{"abi":[{"type":"constructor","inputs":[{"name":"recipient","type":"address","internalType":"address"}],"stateMutability":"nonpayable"},{"type":"function","name":"DOMAIN_SEPARATOR","inputs":[],"outputs":[{"name":"","type":"bytes32","internalType":"bytes32"}],"stateMutability":"view"},{"type":"function","name":"allowance","inputs":[{"name":"owner","type":"address","internalType":"address"},{"name":"spender","type":"address","internalType":"address"}],"outputs":[{"name":"","type":"uint256","internalType":"uint256"}],"stateMutability":"view"},{"type":"function","name":"approve","inputs":[{"name":"spender","type":"address","internalType":"address"},{"name":"value","type":"uint256","internalType":"uint256"}],"outputs":[{"name":"","type":"bool","internalType":"bool"}],"stateMutability":"nonpayable"},{"type":"function","name":"balanceOf","inputs":[{"name":"account","type":"address","internalType":"address"}],"outputs":[{"name":"","type":"uint256","internalType":"uint256"}],"stateMutability":"view"},{"type":"function","name":"decimals","inputs":[],"outputs":[{"name":"","type":"uint8","internalType":"uint8"}],"stateMutability":"view"},{"type":"function","name":"eip712Domain","inputs":[],"outputs":[{"name":"fields","type":"bytes1","internalType":"bytes1"},{"name":"name","type":"string","internalType":"string"},{"name":"version","type":"string","internalType":"string"},{"name":"chainId","type":"uint256","internalType":"uint256"},{"name":"verifyingContract","type":"address","internalType":"address"},{"name":"salt","type":"bytes32","internalType":"bytes32"},{"name":"extensions","type":"uint256[]","internalType":"uint256[]"}],"stateMutability":"view"},{"type":"function","name":"name","inputs":[],"outputs":[{"name":"","type":"string","internalType":"string"}],"stateMutability":"view"},{"type":"function","name":"nonces","inputs":[{"name":"owner","type":"address","internalType":"address"}],"outputs":[{"name":"","type":"uint256","internalType":"uint256"}],"stateMutability":"view"},{"type":"function","name":"permit","inputs":[{"name":"owner","type":"address","internalType":"address"},{"name":"spender","type":"address","internalType":"address"},{"name":"value","type":"uint256","internalType":"uint256"},{"name":"deadline","type":"uint256","internalType":"uint256"},{"name":"v","type":"uint8","internalType":"uint8"},{"name":"r","type":"bytes32","internalType":"bytes32"},{"name":"s","type":"bytes32","internalType":"bytes32"}],"outputs":[],"stateMutability":"nonpayable"},{"type":"function","name":"symbol","inputs":[],"outputs":[{"name":"","type":"string","internalType":"string"}],"stateMutability":"view"},{"type":"function","name":"totalSupply","inputs":[],"outputs":[{"name":"","type":"uint256","internalType":"uint256"}],"stateMutability":"view"},{"type":"function","name":"transfer","inputs":[{"name":"to","type":"address","internalType":"address"},{"name":"value","type":"uint256","internalType":"uint256"}],"outputs":[{"name":"","type":"bool","internalType":"bool"}],"stateMutability":"nonpayable"},{"type":"function","name":"transferFrom","inputs":[{"name":"from","type":"address","internalType":"address"},{"name":"to","type":"address","internalType":"address"},{"name":"value","type":"uint256","internalType":"uint256"}],"outputs":[{"name":"","type":"bool","internalType":"bool"}],"stateMutability":"nonpayable"},{"type":"event","name":"Approval","inputs":[{"name":"owner","type":"address","indexed":true,"internalType":"address"},{"name":"spender","type":"address","indexed":true,"internalType":"address"},{"name":"value","type":"uint256","indexed":false,"internalType":"uint256"}],"anonymous":false},{"type":"event","name":"EIP712DomainChanged","inputs":[],"anonymous":false},{"type":"event","name":"Transfer","inputs":[{"name":"from","type":"address","indexed":true,"internalType":"address"},{"name":"to","type":"address","indexed":true,"internalType":"address"},{"name":"value","type":"uint256","indexed":false,"internalType":"uint256"}],"anonymous":false},{"type":"error","name":"ECDSAInvalidSignature","inputs":[]},{"type":"error","name":"ECDSAInvalidSignatureLength","inputs":[{"name":"length","type":"uint256","internalType":"uint256"}]},{"type":"error","name":"ECDSAInvalidSignatureS","inputs":[{"name":"s","type":"bytes32","internalType":"bytes32"}]},{"type":"error","name":"ERC20InsufficientAllowance","inputs":[{"name":"spender","type":"address","internalType":"address"},{"name":"allowance","type":"uint256","internalType":"uint256"},{"name":"needed","type":"uint256","internalType":"uint256"}]},{"type":"error","name":"ERC20InsufficientBalance","inputs":[{"name":"sender","type":"address","internalType":"address"},{"name":"balance","type":"uint256","internalType":"uint256"},{"name":"needed","type":"uint256","internalType":"uint256"}]},{"type":"error","name":"ERC20InvalidApprover","inputs":[{"name":"approver","type":"address","internalType":"address"}]},{"type":"error","name":"ERC20InvalidReceiver","inputs":[{"name":"receiver","type":"address","internalType":"address"}]},{"type":"error","name":"ERC20InvalidSender","inputs":[{"name":"sender","type":"address","internalType":"address"}]},{"type":"error","name":"ERC20InvalidSpender","inputs":[{"name":"spender","type":"address","internalType":"address"}]},{"type":"error","name":"ERC2612ExpiredSignature","inputs":[{"name":"deadline","type":"uint256","internalType":"uint256"}]},{"type":"error","name":"ERC2612InvalidSigner","inputs":[{"name":"signer","type":"address","internalType":"address"},{"name":"owner","type":"address","internalType":"address"}]},{"type":"error","name":"InvalidAccountNonce","inputs":[{"name":"account","type":"address","internalType":"address"},{"name":"currentNonce","type":"uint256","internalType":"uint256"}]},{"type":"error","name":"InvalidShortString","inputs":[]},{"type":"error","name":"StringTooLong","inputs":[{"name":"str","type":"string","internalType":"string"}]}],"bytecode":{"object":"0x610160604052348015610010575f5ffd5b506040516129383803806129388339818101604052810190610032919061062e565b6040518060400160405280600481526020017f4d6f636b00000000000000000000000000000000000000000000000000000000815250806040518060400160405280600181526020017f31000000000000000000000000000000000000000000000000000000000000008152506040518060400160405280600481526020017f4d6f636b000000000000000000000000000000000000000000000000000000008152506040518060400160405280600481526020017f4d4f434b00000000000000000000000000000000000000000000000000000000815250816003908161011a9190610896565b50806004908161012a9190610896565b50505061014160058361021560201b90919060201c565b610120818152505061015d60068261021560201b90919060201c565b6101408181525050818051906020012060e08181525050808051906020012061010081815250504660a0818152505061019a61026260201b60201c565b608081815250503073ffffffffffffffffffffffffffffffffffffffff1660c08173ffffffffffffffffffffffffffffffffffffffff168152505050505061020f816101ea6102bc60201b60201c565b600a6101f69190610acd565b620f42406102049190610b17565b6102c460201b60201c565b50610d92565b5f6020835110156102365761022f8361034960201b60201c565b905061025c565b82610246836103ae60201b60201c565b5f0190816102549190610896565b5060ff5f1b90505b92915050565b5f7f8b73c3c69bb8fe3d512ecc4cf759cc79239f7b179b0ffacaa9a75d522b39400f60e0516101005146306040516020016102a1959493929190610b8e565b60405160208183030381529060405280519060200120905090565b5f6012905090565b5f73ffffffffffffffffffffffffffffffffffffffff168273ffffffffffffffffffffffffffffffffffffffff1603610334575f6040517fec442f0500000000000000000000000000000000000000000000000000000000815260040161032b9190610bdf565b60405180910390fd5b6103455f83836103b760201b60201c565b5050565b5f5f829050601f8151111561039557826040517f305a27a900000000000000000000000000000000000000000000000000000000815260040161038c9190610c5e565b60405180910390fd5b8051816103a190610cab565b5f1c175f1b915050919050565b5f819050919050565b5f73ffffffffffffffffffffffffffffffffffffffff168373ffffffffffffffffffffffffffffffffffffffff1603610407578060025f8282546103fb9190610d11565b925050819055506104d5565b5f5f5f8573ffffffffffffffffffffffffffffffffffffffff1673ffffffffffffffffffffffffffffffffffffffff1681526020019081526020015f2054905081811015610490578381836040517fe450d38c00000000000000000000000000000000000000000000000000000000815260040161048793929190610d44565b60405180910390fd5b8181035f5f8673ffffffffffffffffffffffffffffffffffffffff1673ffffffffffffffffffffffffffffffffffffffff1681526020019081526020015f2081905550505b5f73ffffffffffffffffffffffffffffffffffffffff168273ffffffffffffffffffffffffffffffffffffffff160361051c578060025f8282540392505081905550610566565b805f5f8473ffffffffffffffffffffffffffffffffffffffff1673ffffffffffffffffffffffffffffffffffffffff1681526020019081526020015f205f82825401925050819055505b8173ffffffffffffffffffffffffffffffffffffffff168373ffffffffffffffffffffffffffffffffffffffff167fddf252ad1be2c89b69c2b068fc378daa952ba7f163c4a11628f55a4df523b3ef836040516105c39190610d79565b60405180910390a3505050565b5f5ffd5b5f73ffffffffffffffffffffffffffffffffffffffff82169050919050565b5f6105fd826105d4565b9050919050565b61060d816105f3565b8114610617575f5ffd5b50565b5f8151905061062881610604565b92915050565b5f60208284031215610643576106426105d0565b5b5f6106508482850161061a565b91505092915050565b5f81519050919050565b7f4e487b71000000000000000000000000000000000000000000000000000000005f52604160045260245ffd5b7f4e487b71000000000000000000000000000000000000000000000000000000005f52602260045260245ffd5b5f60028204905060018216806106d457607f821691505b6020821081036106e7576106e6610690565b5b50919050565b5f819050815f5260205f209050919050565b5f6020601f8301049050919050565b5f82821b905092915050565b5f600883026107497fffffffffffffffffffffffffffffffffffffffffffffffffffffffffffffffff8261070e565b610753868361070e565b95508019841693508086168417925050509392505050565b5f819050919050565b5f819050919050565b5f61079761079261078d8461076b565b610774565b61076b565b9050919050565b5f819050919050565b6107b08361077d565b6107c46107bc8261079e565b84845461071a565b825550505050565b5f5f905090565b6107db6107cc565b6107e68184846107a7565b505050565b5b81811015610809576107fe5f826107d3565b6001810190506107ec565b5050565b601f82111561084e5761081f816106ed565b610828846106ff565b81016020851015610837578190505b61084b610843856106ff565b8301826107eb565b50505b505050565b5f82821c905092915050565b5f61086e5f1984600802610853565b1980831691505092915050565b5f610886838361085f565b9150826002028217905092915050565b61089f82610659565b67ffffffffffffffff8111156108b8576108b7610663565b5b6108c282546106bd565b6108cd82828561080d565b5f60209050601f8311600181146108fe575f84156108ec578287015190505b6108f6858261087b565b86555061095d565b601f19841661090c866106ed565b5f5b828110156109335784890151825560018201915060208501945060208101905061090e565b86831015610950578489015161094c601f89168261085f565b8355505b6001600288020188555050505b505050505050565b7f4e487b71000000000000000000000000000000000000000000000000000000005f52601160045260245ffd5b5f8160011c9050919050565b5f5f8291508390505b60018511156109e7578086048111156109c3576109c2610965565b5b60018516156109d25780820291505b80810290506109e085610992565b94506109a7565b94509492505050565b5f826109ff5760019050610aba565b81610a0c575f9050610aba565b8160018114610a225760028114610a2c57610a5b565b6001915050610aba565b60ff841115610a3e57610a3d610965565b5b8360020a915084821115610a5557610a54610965565b5b50610aba565b5060208310610133831016604e8410600b8410161715610a905782820a905083811115610a8b57610a8a610965565b5b610aba565b610a9d848484600161099e565b92509050818404811115610ab457610ab3610965565b5b81810290505b9392505050565b5f60ff82169050919050565b5f610ad78261076b565b9150610ae283610ac1565b9250610b0f7fffffffffffffffffffffffffffffffffffffffffffffffffffffffffffffffff84846109f0565b905092915050565b5f610b218261076b565b9150610b2c8361076b565b9250828202610b3a8161076b565b91508282048414831517610b5157610b50610965565b5b5092915050565b5f819050919050565b610b6a81610b58565b82525050565b610b798161076b565b82525050565b610b88816105f3565b82525050565b5f60a082019050610ba15f830188610b61565b610bae6020830187610b61565b610bbb6040830186610b61565b610bc86060830185610b70565b610bd56080830184610b7f565b9695505050505050565b5f602082019050610bf25f830184610b7f565b92915050565b5f82825260208201905092915050565b8281835e5f83830152505050565b5f601f19601f8301169050919050565b5f610c3082610659565b610c3a8185610bf8565b9350610c4a818560208601610c08565b610c5381610c16565b840191505092915050565b5f6020820190508181035f830152610c768184610c26565b905092915050565b5f81519050919050565b5f819050602082019050919050565b5f610ca28251610b58565b80915050919050565b5f610cb582610c7e565b82610cbf84610c88565b9050610cca81610c97565b92506020821015610d0a57610d057fffffffffffffffffffffffffffffffffffffffffffffffffffffffffffffffff8360200360080261070e565b831692505b5050919050565b5f610d1b8261076b565b9150610d268361076b565b9250828201905080821115610d3e57610d3d610965565b5b92915050565b5f606082019050610d575f830186610b7f565b610d646020830185610b70565b610d716040830184610b70565b949350505050565b5f602082019050610d8c5f830184610b70565b92915050565b60805160a05160c05160e051610100516101205161014051611b55610de35f395f610a1601525f6109db01525f610f0f01525f610eee01525f6108d901525f61092f01525f6109580152611b555ff3fe608060405234801561000f575f5ffd5b50600436106100cd575f3560e01c806370a082311161008a57806395d89b411161006457806395d89b411461022d578063a9059cbb1461024b578063d505accf1461027b578063dd62ed3e14610297576100cd565b806370a08231146101a95780637ecebe00146101d957806384b0196e14610209576100cd565b806306fdde03146100d1578063095ea7b3146100ef57806318160ddd1461011f57806323b872dd1461013d578063313ce5671461016d5780633644e5151461018b575b5f5ffd5b6100d96102c7565b6040516100e691906113c5565b60405180910390f35b61010960048036038101906101049190611476565b610357565b60405161011691906114ce565b60405180910390f35b610127610379565b60405161013491906114f6565b60405180910390f35b6101576004803603810190610152919061150f565b610382565b60405161016491906114ce565b60405180910390f35b6101756103b0565b604051610182919061157a565b60405180910390f35b6101936103b8565b6040516101a091906115ab565b60405180910390f35b6101c360048036038101906101be91906115c4565b6103c6565b6040516101d091906114f6565b60405180910390f35b6101f360048036038101906101ee91906115c4565b61040b565b60405161020091906114f6565b60405180910390f35b61021161041c565b60405161022497969594939291906116ef565b60405180910390f35b6102356104c1565b60405161024291906113c5565b60405180910390f35b61026560048036038101906102609190611476565b610551565b60405161027291906114ce565b60405180910390f35b610295600480360381019061029091906117c5565b610573565b005b6102b160048036038101906102ac9190611862565b6106b8565b6040516102be91906114f6565b60405180910390f35b6060600380546102d6906118cd565b80601f0160208091040260200160405190810160405280929190818152602001828054610302906118cd565b801561034d5780601f106103245761010080835404028352916020019161034d565b820191905f5260205f20905b81548152906001019060200180831161033057829003601f168201915b5050505050905090565b5f5f61036161073a565b905061036e818585610741565b600191505092915050565b5f600254905090565b5f5f61038c61073a565b9050610399858285610753565b6103a48585856107e6565b60019150509392505050565b5f6012905090565b5f6103c16108d6565b905090565b5f5f5f8373ffffffffffffffffffffffffffffffffffffffff1673ffffffffffffffffffffffffffffffffffffffff1681526020019081526020015f20549050919050565b5f6104158261098c565b9050919050565b5f6060805f5f5f606061042d6109d2565b610435610a0d565b46305f5f1b5f67ffffffffffffffff811115610454576104536118fd565b5b6040519080825280602002602001820160405280156104825781602001602082028036833780820191505090505b507f0f00000000000000000000000000000000000000000000000000000000000000959493929190965096509650965096509650965090919293949596565b6060600480546104d0906118cd565b80601f01602080910402602001604051908101604052809291908181526020018280546104fc906118cd565b80156105475780601f1061051e57610100808354040283529160200191610547565b820191905f5260205f20905b81548152906001019060200180831161052a57829003601f168201915b5050505050905090565b5f5f61055b61073a565b90506105688185856107e6565b600191505092915050565b834211156105b857836040517f627913020000000000000000000000000000000000000000000000000000000081526004016105af91906114f6565b60405180910390fd5b5f7f6e71edae12b1b97f4d1f60370fef10105fa2faae0126114a169c64845d6126c98888886105e68c610a48565b896040516020016105fc9695949392919061192a565b6040516020818303038152906040528051906020012090505f61061e82610a9b565b90505f61062d82878787610ab4565b90508973ffffffffffffffffffffffffffffffffffffffff168173ffffffffffffffffffffffffffffffffffffffff16146106a157808a6040517f4b800e46000000000000000000000000000000000000000000000000000000008152600401610698929190611989565b60405180910390fd5b6106ac8a8a8a610741565b50505050505050505050565b5f60015f8473ffffffffffffffffffffffffffffffffffffffff1673ffffffffffffffffffffffffffffffffffffffff1681526020019081526020015f205f8373ffffffffffffffffffffffffffffffffffffffff1673ffffffffffffffffffffffffffffffffffffffff1681526020019081526020015f2054905092915050565b5f33905090565b61074e8383836001610ae2565b505050565b5f61075e84846106b8565b90507fffffffffffffffffffffffffffffffffffffffffffffffffffffffffffffffff8110156107e057818110156107d1578281836040517ffb8f41b20000000000000000000000000000000000000000000000000000000081526004016107c8939291906119b0565b60405180910390fd5b6107df84848484035f610ae2565b5b50505050565b5f73ffffffffffffffffffffffffffffffffffffffff168373ffffffffffffffffffffffffffffffffffffffff1603610856575f6040517f96c6fd1e00000000000000000000000000000000000000000000000000000000815260040161084d91906119e5565b60405180910390fd5b5f73ffffffffffffffffffffffffffffffffffffffff168273ffffffffffffffffffffffffffffffffffffffff16036108c6575f6040517fec442f050000000000000000000000000000000000000000000000000000000081526004016108bd91906119e5565b60405180910390fd5b6108d1838383610cb1565b505050565b5f7f000000000000000000000000000000000000000000000000000000000000000073ffffffffffffffffffffffffffffffffffffffff163073ffffffffffffffffffffffffffffffffffffffff1614801561095157507f000000000000000000000000000000000000000000000000000000000000000046145b1561097e577f00000000000000000000000000000000000000000000000000000000000000009050610989565b610986610eca565b90505b90565b5f60075f8373ffffffffffffffffffffffffffffffffffffffff1673ffffffffffffffffffffffffffffffffffffffff1681526020019081526020015f20549050919050565b6060610a0860057f0000000000000000000000000000000000000000000000000000000000000000610f5f90919063ffffffff16565b905090565b6060610a4360067f0000000000000000000000000000000000000000000000000000000000000000610f5f90919063ffffffff16565b905090565b5f60075f8373ffffffffffffffffffffffffffffffffffffffff1673ffffffffffffffffffffffffffffffffffffffff1681526020019081526020015f205f815480929190600101919050559050919050565b5f610aad610aa76108d6565b8361100c565b9050919050565b5f5f5f5f610ac48888888861104c565b925092509250610ad48282611133565b829350505050949350505050565b5f73ffffffffffffffffffffffffffffffffffffffff168473ffffffffffffffffffffffffffffffffffffffff1603610b52575f6040517fe602df05000000000000000000000000000000000000000000000000000000008152600401610b4991906119e5565b60405180910390fd5b5f73ffffffffffffffffffffffffffffffffffffffff168373ffffffffffffffffffffffffffffffffffffffff1603610bc2575f6040517f94280d62000000000000000000000000000000000000000000000000000000008152600401610bb991906119e5565b60405180910390fd5b8160015f8673ffffffffffffffffffffffffffffffffffffffff1673ffffffffffffffffffffffffffffffffffffffff1681526020019081526020015f205f8573ffffffffffffffffffffffffffffffffffffffff1673ffffffffffffffffffffffffffffffffffffffff1681526020019081526020015f20819055508015610cab578273ffffffffffffffffffffffffffffffffffffffff168473ffffffffffffffffffffffffffffffffffffffff167f8c5be1e5ebec7d5bd14f71427d1e84f3dd0314c0f7b2291e5b200ac8c7c3b92584604051610ca291906114f6565b60405180910390a35b50505050565b5f73ffffffffffffffffffffffffffffffffffffffff168373ffffffffffffffffffffffffffffffffffffffff1603610d01578060025f828254610cf59190611a2b565b92505081905550610dcf565b5f5f5f8573ffffffffffffffffffffffffffffffffffffffff1673ffffffffffffffffffffffffffffffffffffffff1681526020019081526020015f2054905081811015610d8a578381836040517fe450d38c000000000000000000000000000000000000000000000000000000008152600401610d81939291906119b0565b60405180910390fd5b8181035f5f8673ffffffffffffffffffffffffffffffffffffffff1673ffffffffffffffffffffffffffffffffffffffff1681526020019081526020015f2081905550505b5f73ffffffffffffffffffffffffffffffffffffffff168273ffffffffffffffffffffffffffffffffffffffff1603610e16578060025f8282540392505081905550610e60565b805f5f8473ffffffffffffffffffffffffffffffffffffffff1673ffffffffffffffffffffffffffffffffffffffff1681526020019081526020015f205f82825401925050819055505b8173ffffffffffffffffffffffffffffffffffffffff168373ffffffffffffffffffffffffffffffffffffffff167fddf252ad1be2c89b69c2b068fc378daa952ba7f163c4a11628f55a4df523b3ef83604051610ebd91906114f6565b60405180910390a3505050565b5f7f8b73c3c69bb8fe3d512ecc4cf759cc79239f7b179b0ffacaa9a75d522b39400f7f00000000000000000000000000000000000000000000000000000000000000007f00000000000000000000000000000000000000000000000000000000000000004630604051602001610f44959493929190611a5e565b60405160208183030381529060405280519060200120905090565b606060ff5f1b8314610f7b57610f7483611295565b9050611006565b818054610f87906118cd565b80601f0160208091040260200160405190810160405280929190818152602001828054610fb3906118cd565b8015610ffe5780601f10610fd557610100808354040283529160200191610ffe565b820191905f5260205f20905b815481529060010190602001808311610fe157829003601f168201915b505050505090505b92915050565b5f6040517f190100000000000000000000000000000000000000000000000000000000000081528360028201528260228201526042812091505092915050565b5f5f5f7f7fffffffffffffffffffffffffffffff5d576e7357a4501ddfe92f46681b20a0845f1c1115611088575f600385925092509250611129565b5f6001888888886040515f81526020016040526040516110ab9493929190611aaf565b6020604051602081039080840390855afa1580156110cb573d5f5f3e3d5ffd5b5050506020604051035190505f73ffffffffffffffffffffffffffffffffffffffff168173ffffffffffffffffffffffffffffffffffffffff160361111c575f60015f5f1b93509350935050611129565b805f5f5f1b935093509350505b9450945094915050565b5f600381111561114657611145611af2565b5b82600381111561115957611158611af2565b5b0315611291576001600381111561117357611172611af2565b5b82600381111561118657611185611af2565b5b036111bd576040517ff645eedf00000000000000000000000000000000000000000000000000000000815260040160405180910390fd5b600260038111156111d1576111d0611af2565b5b8260038111156111e4576111e3611af2565b5b0361122857805f1c6040517ffce698f700000000000000000000000000000000000000000000000000000000815260040161121f91906114f6565b60405180910390fd5b60038081111561123b5761123a611af2565b5b82600381111561124e5761124d611af2565b5b0361129057806040517fd78bce0c00000000000000000000000000000000000000000000000000000000815260040161128791906115ab565b60405180910390fd5b5b5050565b60605f6112a183611307565b90505f602067ffffffffffffffff8111156112bf576112be6118fd565b5b6040519080825280601f01601f1916602001820160405280156112f15781602001600182028036833780820191505090505b5090508181528360208201528092505050919050565b5f5f60ff835f1c169050601f81111561134c576040517fb3512b0c00000000000000000000000000000000000000000000000000000000815260040160405180910390fd5b80915050919050565b5f81519050919050565b5f82825260208201905092915050565b8281835e5f83830152505050565b5f601f19601f8301169050919050565b5f61139782611355565b6113a1818561135f565b93506113b181856020860161136f565b6113ba8161137d565b840191505092915050565b5f6020820190508181035f8301526113dd818461138d565b905092915050565b5f5ffd5b5f73ffffffffffffffffffffffffffffffffffffffff82169050919050565b5f611412826113e9565b9050919050565b61142281611408565b811461142c575f5ffd5b50565b5f8135905061143d81611419565b92915050565b5f819050919050565b61145581611443565b811461145f575f5ffd5b50565b5f813590506114708161144c565b92915050565b5f5f6040838503121561148c5761148b6113e5565b5b5f6114998582860161142f565b92505060206114aa85828601611462565b9150509250929050565b5f8115159050919050565b6114c8816114b4565b82525050565b5f6020820190506114e15f8301846114bf565b92915050565b6114f081611443565b82525050565b5f6020820190506115095f8301846114e7565b92915050565b5f5f5f60608486031215611526576115256113e5565b5b5f6115338682870161142f565b93505060206115448682870161142f565b925050604061155586828701611462565b9150509250925092565b5f60ff82169050919050565b6115748161155f565b82525050565b5f60208201905061158d5f83018461156b565b92915050565b5f819050919050565b6115a581611593565b82525050565b5f6020820190506115be5f83018461159c565b92915050565b5f602082840312156115d9576115d86113e5565b5b5f6115e68482850161142f565b91505092915050565b5f7fff0000000000000000000000000000000000000000000000000000000000000082169050919050565b611623816115ef565b82525050565b61163281611408565b82525050565b5f81519050919050565b5f82825260208201905092915050565b5f819050602082019050919050565b61166a81611443565b82525050565b5f61167b8383611661565b60208301905092915050565b5f602082019050919050565b5f61169d82611638565b6116a78185611642565b93506116b283611652565b805f5b838110156116e25781516116c98882611670565b97506116d483611687565b9250506001810190506116b5565b5085935050505092915050565b5f60e0820190506117025f83018a61161a565b8181036020830152611714818961138d565b90508181036040830152611728818861138d565b905061173760608301876114e7565b6117446080830186611629565b61175160a083018561159c565b81810360c08301526117638184611693565b905098975050505050505050565b61177a8161155f565b8114611784575f5ffd5b50565b5f8135905061179581611771565b92915050565b6117a481611593565b81146117ae575f5ffd5b50565b5f813590506117bf8161179b565b92915050565b5f5f5f5f5f5f5f60e0888a0312156117e0576117df6113e5565b5b5f6117ed8a828b0161142f565b97505060206117fe8a828b0161142f565b965050604061180f8a828b01611462565b95505060606118208a828b01611462565b94505060806118318a828b01611787565b93505060a06118428a828b016117b1565b92505060c06118538a828b016117b1565b91505092959891949750929550565b5f5f60408385031215611878576118776113e5565b5b5f6118858582860161142f565b92505060206118968582860161142f565b9150509250929050565b7f4e487b71000000000000000000000000000000000000000000000000000000005f52602260045260245ffd5b5f60028204905060018216806118e457607f821691505b6020821081036118f7576118f66118a0565b5b50919050565b7f4e487b71000000000000000000000000000000000000000000000000000000005f52604160045260245ffd5b5f60c08201905061193d5f83018961159c565b61194a6020830188611629565b6119576040830187611629565b61196460608301866114e7565b61197160808301856114e7565b61197e60a08301846114e7565b979650505050505050565b5f60408201905061199c5f830185611629565b6119a96020830184611629565b9392505050565b5f6060820190506119c35f830186611629565b6119d060208301856114e7565b6119dd60408301846114e7565b949350505050565b5f6020820190506119f85f830184611629565b92915050565b7f4e487b71000000000000000000000000000000000000000000000000000000005f52601160045260245ffd5b5f611a3582611443565b9150611a4083611443565b9250828201905080821115611a5857611a576119fe565b5b92915050565b5f60a082019050611a715f83018861159c565b611a7e602083018761159c565b611a8b604083018661159c565b611a9860608301856114e7565b611aa56080830184611629565b9695505050505050565b5f608082019050611ac25f83018761159c565b611acf602083018661156b565b611adc604083018561159c565b611ae9606083018461159c565b95945050505050565b7f4e487b71000000000000000000000000000000000000000000000000000000005f52602160045260245ffdfea26469706673582212201a29644b66ccd67551aa4f6ee0b8309e273aeb69683d386ebbe3238f4f5aa81164736f6c634300081e0033","linkReferences":{}},"methodIdentifiers":{"DOMAIN_SEPARATOR()":"3644e515","allowance(address,address)":"dd62ed3e","approve(address,uint256)":"095ea7b3","balanceOf(address)":"70a08231","decimals()":"313ce567","eip712Domain()":"84b0196e","name()":"06fdde03","nonces(address)":"7ecebe00","permit(address,address,uint256,uint256,uint8,bytes32,bytes32)":"d505accf","symbol()":"95d89b41","totalSupply()":"18160ddd","transfer(address,uint256)":"a9059cbb","transferFrom(address,address,uint256)":"23b872dd"},"id":6}