{"abi":[{"type":"constructor","inputs":[],"stateMutability":"payable"},{"type":"function","name":"allocatedTokens","inputs":[],"outputs":[{"name":"","type":"uint256","internalType":"uint256"}],"stateMutability":"view"},{"type":"function","name":"claim","inputs":[],"outputs":[],"stateMutability":"nonpayable"},{"type":"function","name":"claimableAmount","inputs":[{"name":"_claimer","type":"address","internalType":"address"}],"outputs":[{"name":"","type":"uint256","internalType":"uint256"}],"stateMutability":"view"},{"type":"function","name":"deployManager","inputs":[],"outputs":[{"name":"","type":"address","internalType":"address"}],"stateMutability":"view"},{"type":"function","name":"getDeployManager","inputs":[],"outputs":[{"name":"","type":"address","internalType":"address"}],"stateMutability":"view"},{"type":"function","name":"getInitData","inputs":[{"name":"_deployManager","type":"address","internalType":"address"},{"name":"_token","type":"address","internalType":"address"},{"name":"_owner","type":"address","internalType":"address"}],"outputs":[{"name":"","type":"bytes","internalType":"bytes"}],"stateMutability":"pure"},{"type":"function","name":"initialize","inputs":[{"name":"_initData","type":"bytes","internalType":"bytes"}],"outputs":[{"name":"","type":"bool","internalType":"bool"}],"stateMutability":"nonpayable"},{"type":"function","name":"initialized","inputs":[],"outputs":[{"name":"","type":"bool","internalType":"bool"}],"stateMutability":"view"},{"type":"function","name":"owner","inputs":[],"outputs":[{"name":"","type":"address","internalType":"address"}],"stateMutability":"view"},{"type":"function","name":"renounceOwnership","inputs":[],"outputs":[],"stateMutability":"nonpayable"},{"type":"function","name":"startVesting","inputs":[{"name":"parameters","type":"tuple","internalType":"struct IVesting.VestingParameters","components":[{"name":"beneficiary","type":"address","internalType":"address"},{"name":"totalAmount","type":"uint256","internalType":"uint256"},{"name":"startTime","type":"uint256","internalType":"uint256"},{"name":"cliff","type":"uint256","internalType":"uint256"},{"name":"duration","type":"uint256","internalType":"uint256"},{"name":"claimCooldown","type":"uint256","internalType":"uint256"},{"name":"minClaimAmount","type":"uint256","internalType":"uint256"}]}],"outputs":[],"stateMutability":"nonpayable"},{"type":"function","name":"supportsInterface","inputs":[{"name":"interfaceId","type":"bytes4","internalType":"bytes4"}],"outputs":[{"name":"","type":"bool","internalType":"bool"}],"stateMutability":"view"},{"type":"function","name":"token","inputs":[],"outputs":[{"name":"","type":"address","internalType":"contract IERC20"}],"stateMutability":"view"},{"type":"function","name":"transferOwnership","inputs":[{"name":"newOwner","type":"address","internalType":"address"}],"outputs":[],"stateMutability":"nonpayable"},{"type":"function","name":"vestedAmount","inputs":[{"name":"_claimer","type":"address","internalType":"address"}],"outputs":[{"name":"","type":"uint256","internalType":"uint256"}],"stateMutability":"view"},{"type":"function","name":"vestings","inputs":[{"name":"","type":"address","internalType":"address"}],"outputs":[{"name":"totalAmount","type":"uint256","internalType":"uint256"},{"name":"startTime","type":"uint256","internalType":"uint256"},{"name":"cliff","type":"uint256","internalType":"uint256"},{"name":"duration","type":"uint256","internalType":"uint256"},{"name":"claimed","type":"uint256","internalType":"uint256"},{"name":"lastClaimTime","type":"uint256","internalType":"uint256"},{"name":"claimCooldown","type":"uint256","internalType":"uint256"},{"name":"minClaimAmount","type":"uint256","internalType":"uint256"},{"name":"created","type":"bool","internalType":"bool"}],"stateMutability":"view"},{"type":"function","name":"withdrawUnallocated","inputs":[{"name":"_to","type":"address","internalType":"address"}],"outputs":[],"stateMutability":"nonpayable"},{"type":"event","name":"Claim","inputs":[{"name":"beneficiary","type":"address","indexed":true,"internalType":"address"},{"name":"amount","type":"uint256","indexed":false,"internalType":"uint256"},{"name":"timestamp","type":"uint256","indexed":false,"internalType":"uint256"}],"anonymous":false},{"type":"event","name":"OwnershipTransferred","inputs":[{"name":"previousOwner","type":"address","indexed":true,"internalType":"address"},{"name":"newOwner","type":"address","indexed":true,"internalType":"address"}],"anonymous":false},{"type":"event","name":"TokensWithdrawn","inputs":[{"name":"to","type":"address","indexed":true,"internalType":"address"},{"name":"amount","type":"uint256","indexed":false,"internalType":"uint256"}],"anonymous":false},{"type":"event","name":"VestingCreated","inputs":[{"name":"beneficiary","type":"address","indexed":true,"internalType":"address"},{"name":"amount","type":"uint256","indexed":false,"internalType":"uint256"},{"name":"creationTime","type":"uint256","indexed":false,"internalType":"uint256"}],"anonymous":false},{"type":"error","name":"AlreadyInitialized","inputs":[]},{"type":"error","name":"AmountCantBeZero","inputs":[]},{"type":"error","name":"BelowMinimalClaimAmount","inputs":[{"name":"_claimable","type":"uint256","internalType":"uint256"},{"name":"_minToClaim","type":"uint256","internalType":"uint256"}]},{"type":"error","name":"ClaimNotAvailable","inputs":[{"name":"_timestamp","type":"uint256","internalType":"uint256"},{"name":"_availableFrom","type":"uint256","internalType":"uint256"}]},{"type":"error","name":"CooldownCantBeLongerThanDuration","inputs":[{"name":"_claimCooldown","type":"uint256","internalType":"uint256"},{"name":"_duration","type":"uint256","internalType":"uint256"}]},{"type":"error","name":"CooldownNotPassed","inputs":[{"name":"_timestamp","type":"uint256","internalType":"uint256"},{"name":"_lastClaimTime","type":"uint256","internalType":"uint256"}]},{"type":"error","name":"DeployManagerCantBeZeroAddress","inputs":[]},{"type":"error","name":"DurationCantBeZero","inputs":[]},{"type":"error","name":"FailedToDeployManager","inputs":[]},{"type":"error","name":"InsufficientBalance","inputs":[{"name":"_availableBalance","type":"uint256","internalType":"uint256"},{"name":"_totalAmount","type":"uint256","internalType":"uint256"}]},{"type":"error","name":"InvalidBeneficiary","inputs":[]},{"type":"error","name":"NotDeployManager","inputs":[]},{"type":"error","name":"NothingToClaim","inputs":[]},{"type":"error","name":"NothingToWithdraw","inputs":[]},{"type":"error","name":"OwnableInvalidOwner","inputs":[{"name":"owner","type":"address","internalType":"address"}]},{"type":"error","name":"OwnableUnauthorizedAccount","inputs":[{"name":"account","type":"address","internalType":"address"}]},{"type":"error","name":"StartTimeShouldBeFuture","inputs":[{"name":"_startTime","type":"uint256","internalType":"uint256"},{"name":"_timestamp","type":"uint256","internalType":"uint256"}]},{"type":"error","name":"VestingAlreadyExists","inputs":[]},{"type":"error","name":"VestingNotFound","inputs":[]}],"bytecode":{"object":"0x608080604052331560585760018054336001600160a01b0319821681179092556001600160a01b03167f8be0079c531659141344cd1fd0a4f28419497f9722a3daafe3b4186f6b6457e05f80a3610cf4908161006c8239f35b631e4fbdf760e01b5f525f60045260245ffdfe6080806040526004361015610012575f80fd5b5f3560e01c9081622f956914610ac25750806301ffc9a714610a6c578063158ef93e14610a48578063384711cc14610a11578063439fab91146108665780634e71d92d146106c8578063715018a61461068057806389885049146106415780638da5cb5b146106195780639339402914610102578063a7fa487b14610406578063b3b3e87f146102a8578063c475dda91461020c578063daf4986314610177578063f2fde38b14610129578063f7fc87f2146101025763fc0c546a146100d6575f80fd5b346100fe575f3660031901126100fe576002546040516001600160a01b039091168152602090f35b5f80fd5b346100fe575f3660031901126100fe575f546040516001600160a01b039091168152602090f35b346100fe5760203660031901126100fe57610142610adc565b61014a610c4f565b6001600160a01b038116156101645761016290610c1a565b005b631e4fbdf760e01b5f525f60045260245ffd5b346100fe5760203660031901126100fe576001600160a01b03610198610adc565b165f52600460205261012060405f2080549060018101549060028101546003820154600483015460058401549160068501549360ff600860078801549701541696604051988952602089015260408801526060870152608086015260a085015260c084015260e08301521515610100820152f35b346100fe5760603660031901126100fe57610225610adc565b6024356001600160a01b038116908190036100fe576044356001600160a01b03811691908290036100fe57604091825191602083019460018060a01b031685528383015260608201526060815261027d608082610af2565b8151928391602083525180918160208501528484015e5f828201840152601f01601f19168101030190f35b346100fe5760203660031901126100fe576102c1610adc565b6102c9610c4f565b6002546040516370a0823160e01b81523060048201526001600160a01b039091169190602081602481865afa80156103b8575f906103d2575b610310915060035490610b93565b9182156103c3576020604051809263a9059cbb60e01b8252815f81610339898960048401610b62565b03925af19081156103b8575f91610389575b50156100fe576040519182526001600160a01b0316907f6352c5382c4a4578e712449ca65e83cdb392d045dfcf1cad9615189db2da244b90602090a2005b6103ab915060203d6020116103b1575b6103a38183610af2565b810190610b4a565b8361034b565b503d610399565b6040513d5f823e3d90fd5b630686827b60e51b5f5260045ffd5b506020813d6020116103fe575b816103ec60209383610af2565b810103126100fe576103109051610302565b3d91506103df565b346100fe5760e03660031901126100fe5761041f610c4f565b6001600160a01b0361042f610b7d565b161561060a5760843580156105fb576024359081156105ec576044354281106105d65760a435918083116105c0576002546040516370a0823160e01b815230600482015290602090829060249082906001600160a01b03165afa80156103b8575f9061058c575b6104a4915060035490610b93565b84811061057557506001600160a01b036104bc610b7d565b165f52600460205260405f20600881019384549260ff841661055a575b60019487845585840155606435600284015560038301555f60048301555f60058301556006820155600760c43591015560ff191617905580600354016003557f9ade76f4385de306666dfb21a52b27d52db0fde8ad0f515fa261f532cac60d21604060018060a01b0361054a610b7d565b16928151908152426020820152a2005b82546004840154146104d957637383ae9560e11b5f5260045ffd5b849063cf47918160e01b5f5260045260245260445ffd5b506020813d6020116105b8575b816105a660209383610af2565b810103126100fe576104a49051610496565b3d9150610599565b82632a96ace760e21b5f5260045260245260445ffd5b635db53ff960e11b5f526004524260245260445ffd5b6346f1397d60e01b5f5260045ffd5b6302bc286b60e61b5f5260045ffd5b631559b7d760e21b5f5260045ffd5b346100fe575f3660031901126100fe576001546040516001600160a01b039091168152602090f35b346100fe5760203660031901126100fe576001600160a01b03610662610adc565b165f526004602052602061067860405f20610c76565b604051908152f35b346100fe575f3660031901126100fe57610698610c4f565b600180546001600160a01b031981169091555f906001600160a01b03165f516020610c9f5f395f51905f528280a3005b346100fe575f3660031901126100fe57335f52600460205260405f2060ff600882015416156108575760018101546002820154906107068282610b29565b42106108375782600581018054610721600684015482610b29565b42106108215750335f52600460205261073c60405f20610c76565b9182156108125760078101548084106107fc5750600401828154019055429055806003540360035560018060a01b03600254166020604051809263a9059cbb60e01b8252815f81610791883360048401610b62565b03925af19081156103b8575f916107dd575b50156100fe576040519081524260208201527f34fcbac0073d7c3d388e51312faf357774904998eeb8fca628b9e6f65ee1cbf760403392a2005b6107f6915060203d6020116103b1576103a38183610af2565b826107a3565b8363405c773160e01b5f5260045260245260445ffd5b6312d37ee560e31b5f5260045ffd5b639a4efe2360e01b5f524260045260245260445ffd5b6108419250610b29565b630395ec9f60e21b5f524260045260245260445ffd5b63e146a52b60e01b5f5260045ffd5b346100fe5760203660031901126100fe576004356001600160401b0381116100fe57366023820112156100fe5760048101356001600160401b0381116109fd57604051906108be601f8201601f191660200183610af2565b808252602082019236602483830101116100fe57815f926024602093018637830101525f549160ff8360a01c166109ef576060828051810103126100fe5761090590610b15565b9061091e606061091760408401610b15565b9201610b15565b916001600160a01b031680156109e0576040516301ffc9a760e01b815263759be8ff60e11b6004820152602081602481855afa9081156103b8575f916109c1575b50156109b2576001600160a01b0319938416175f55600280549093166001600160a01b03918216179092556109949116610c1a565b5f805460ff60a01b1916600160a01b17905560405160018152602090f35b6317c383ff60e21b5f5260045ffd5b6109da915060203d6020116103b1576103a38183610af2565b8561095f565b63013d584d60e71b5f5260045ffd5b62dc149f60e41b5f5260045ffd5b634e487b7160e01b5f52604160045260245ffd5b346100fe5760203660031901126100fe576001600160a01b03610a32610adc565b165f526004602052602061067860405f20610ba0565b346100fe575f3660031901126100fe57602060ff5f5460a01c166040519015158152f35b346100fe5760203660031901126100fe5760043563ffffffff60e01b81168091036100fe5760209063b4632c6360e01b8114908115610ab1575b506040519015158152f35b6301ffc9a760e01b14905082610aa6565b346100fe575f3660031901126100fe576020906003548152f35b600435906001600160a01b03821682036100fe57565b601f909101601f19168101906001600160401b038211908210176109fd57604052565b51906001600160a01b03821682036100fe57565b91908201809211610b3657565b634e487b7160e01b5f52601160045260245ffd5b908160209103126100fe575180151581036100fe5790565b6001600160a01b039091168152602081019190915260400190565b6004356001600160a01b03811681036100fe5790565b91908203918211610b3657565b6001810154600282015490610bb58282610b29565b4210610c1357610bce91610bc891610b29565b42610b93565b600382015491828211610c0b575b54818102918183041490151715610b36578115610bf7570490565b634e487b7160e01b5f52601260045260245ffd5b829150610bdc565b5050505f90565b600180546001600160a01b039283166001600160a01b0319821681179092559091165f516020610c9f5f395f51905f525f80a3565b6001546001600160a01b03163303610c6357565b63118cdaa760e01b5f523360045260245ffd5b6004610c8182610ba0565b91015480821115610c9857610c9591610b93565b90565b50505f9056fe8be0079c531659141344cd1fd0a4f28419497f9722a3daafe3b4186f6b6457e0a26469706673582212200daa22d4780e1e7810fa988680dda39a9dab1acc56f6353b711ecdb9de5e1cb564736f6c634300081e0033","linkReferences":{}},"methodIdentifiers":{"allocatedTokens()":"002f9569","claim()":"4e71d92d","claimableAmount(address)":"89885049","deployManager()":"93394029","getDeployManager()":"f7fc87f2","getInitData(address,address,address)":"c475dda9","initialize(bytes)":"439fab91","initialized()":"158ef93e","owner()":"8da5cb5b","renounceOwnership()":"715018a6","startVesting((address,uint256,uint256,uint256,uint256,uint256,uint256))":"a7fa487b","supportsInterface(bytes4)":"01ffc9a7","token()":"fc0c546a","transferOwnership(address)":"f2fde38b","vestedAmount(address)":"384711cc","vestings(address)":"daf49863","withdrawUnallocated(address)":"b3b3e87f"},"id":72}