{"abi":[{"type":"constructor","inputs":[],"stateMutability":"payable"},{"type":"receive","stateMutability":"payable"},{"type":"function","name":"contribute","inputs":[],"outputs":[],"stateMutability":"payable"},{"type":"function","name":"deployManager","inputs":[],"outputs":[{"name":"","type":"address","internalType":"address"}],"stateMutability":"view"},{"type":"function","name":"donationPool","inputs":[],"outputs":[{"name":"","type":"uint256","internalType":"uint256"}],"stateMutability":"view"},{"type":"function","name":"fundraiser","inputs":[],"outputs":[{"name":"","type":"address","internalType":"address"}],"stateMutability":"view"},{"type":"function","name":"getDeployManager","inputs":[],"outputs":[{"name":"","type":"address","internalType":"address"}],"stateMutability":"view"},{"type":"function","name":"getInitData","inputs":[{"name":"_deployManager","type":"address","internalType":"address"},{"name":"_goal","type":"uint256","internalType":"uint256"},{"name":"_fundraiser","type":"address","internalType":"address"},{"name":"_vestingTime","type":"uint64","internalType":"uint64"},{"name":"_owner","type":"address","internalType":"address"}],"outputs":[{"name":"","type":"bytes","internalType":"bytes"}],"stateMutability":"pure"},{"type":"function","name":"goal","inputs":[],"outputs":[{"name":"","type":"uint256","internalType":"uint256"}],"stateMutability":"view"},{"type":"function","name":"initialize","inputs":[{"name":"_initData","type":"bytes","internalType":"bytes"}],"outputs":[{"name":"","type":"bool","internalType":"bool"}],"stateMutability":"nonpayable"},{"type":"function","name":"initialized","inputs":[],"outputs":[{"name":"","type":"bool","internalType":"bool"}],"stateMutability":"view"},{"type":"function","name":"owner","inputs":[],"outputs":[{"name":"","type":"address","internalType":"address"}],"stateMutability":"view"},{"type":"function","name":"poolReached","inputs":[],"outputs":[{"name":"","type":"bool","internalType":"bool"}],"stateMutability":"view"},{"type":"function","name":"refund","inputs":[{"name":"_value","type":"uint256","internalType":"uint256"}],"outputs":[],"stateMutability":"nonpayable"},{"type":"function","name":"renounceOwnership","inputs":[],"outputs":[],"stateMutability":"nonpayable"},{"type":"function","name":"startTimestamp","inputs":[],"outputs":[{"name":"","type":"uint256","internalType":"uint256"}],"stateMutability":"view"},{"type":"function","name":"supportsInterface","inputs":[{"name":"interfaceId","type":"bytes4","internalType":"bytes4"}],"outputs":[{"name":"","type":"bool","internalType":"bool"}],"stateMutability":"view"},{"type":"function","name":"transferOwnership","inputs":[{"name":"newOwner","type":"address","internalType":"address"}],"outputs":[],"stateMutability":"nonpayable"},{"type":"function","name":"vestingStarted","inputs":[],"outputs":[{"name":"","type":"bool","internalType":"bool"}],"stateMutability":"view"},{"type":"function","name":"vestingTime","inputs":[],"outputs":[{"name":"","type":"uint256","internalType":"uint256"}],"stateMutability":"view"},{"type":"function","name":"vestingWallet","inputs":[],"outputs":[{"name":"","type":"address","internalType":"contract VestingWallet"}],"stateMutability":"view"},{"type":"function","name":"withdraw","inputs":[],"outputs":[],"stateMutability":"nonpayable"},{"type":"event","name":"ContributionReceived","inputs":[{"name":"_user","type":"address","indexed":true,"internalType":"address"},{"name":"_amount","type":"uint256","indexed":false,"internalType":"uint256"},{"name":"_timestamp","type":"uint256","indexed":false,"internalType":"uint256"}],"anonymous":false},{"type":"event","name":"FundsWithdrawnFromVesting","inputs":[{"name":"_fundraiser","type":"address","indexed":true,"internalType":"address"},{"name":"_timestamp","type":"uint256","indexed":false,"internalType":"uint256"}],"anonymous":false},{"type":"event","name":"OwnershipTransferred","inputs":[{"name":"previousOwner","type":"address","indexed":true,"internalType":"address"},{"name":"newOwner","type":"address","indexed":true,"internalType":"address"}],"anonymous":false},{"type":"event","name":"RefundProcessed","inputs":[{"name":"_user","type":"address","indexed":true,"internalType":"address"},{"name":"_amount","type":"uint256","indexed":false,"internalType":"uint256"},{"name":"_timestamp","type":"uint256","indexed":false,"internalType":"uint256"}],"anonymous":false},{"type":"event","name":"VestingStarted","inputs":[{"name":"_vestingContractAddress","type":"address","indexed":true,"internalType":"address"},{"name":"_timestamp","type":"uint256","indexed":false,"internalType":"uint256"}],"anonymous":false},{"type":"error","name":"AlreadyInitialized","inputs":[]},{"type":"error","name":"AmountTooHigh","inputs":[]},{"type":"error","name":"DeployManagerCantBeZeroAddress","inputs":[]},{"type":"error","name":"FailedToDeployManager","inputs":[]},{"type":"error","name":"InvalidValue","inputs":[]},{"type":"error","name":"NotDeployManager","inputs":[]},{"type":"error","name":"NothingToRefund","inputs":[]},{"type":"error","name":"OnlyFundraiserAllowed","inputs":[]},{"type":"error","name":"OwnableInvalidOwner","inputs":[{"name":"owner","type":"address","internalType":"address"}]},{"type":"error","name":"OwnableUnauthorizedAccount","inputs":[{"name":"account","type":"address","internalType":"address"}]},{"type":"error","name":"PoolHasReached","inputs":[]},{"type":"error","name":"PoolHasReachedAndYouCantRefund","inputs":[]},{"type":"error","name":"TransactionFailed","inputs":[]},{"type":"error","name":"VestingNotStarted","inputs":[]}],"bytecode":{"object":"0x608080604052331560585760018054336001600160a01b0319821681179092556001600160a01b03167f8be0079c531659141344cd1fd0a4f28419497f9722a3daafe3b4186f6b6457e05f80a3611463908161006c8239f35b631e4fbdf760e01b5f525f60045260245ffdfe608080604052600436101561003d575b50361561001a575f80fd5b60ff6008541661002e5761002c6108c4565b005b6318144e7f60e21b5f5260045ffd5b5f905f3560e01c90816301ffc9a714610798575080630a5ab11d14610770578063158ef93e1461074c578063278ecde1146106685780633ccfd60b14610590578063401938831461057257806341edb36f146104ac578063439fab91146102ee5780635915497c146102cb578063715018a61461028157806389585d10146102585780638da5cb5b1461022f5780639339402914610167578063c7dab43614610211578063d7bb99ba146101fd578063e6fd48bc146101df578063f2fde38b1461018e578063f7fc87f214610167578063f998c8e8146101415763ff9de9340361000f573461013e578060031936011261013e576020600654604051908152f35b80fd5b503461013e578060031936011261013e57602060ff60085460081c166040519015158152f35b503461013e578060031936011261013e57546040516001600160a01b039091168152602090f35b503461013e57602036600319011261013e576101a86107eb565b6101b0610a95565b6001600160a01b038116156101cb576101c890610a60565b80f35b631e4fbdf760e01b82526004829052602482fd5b503461013e578060031936011261013e576020600754604051908152f35b508060031936011261013e576101c86108c4565b503461013e578060031936011261013e576020600454604051908152f35b503461013e578060031936011261013e576001546040516001600160a01b039091168152602090f35b503461013e578060031936011261013e576003546040516001600160a01b039091168152602090f35b503461013e578060031936011261013e5761029a610a95565b600180546001600160a01b0319811690915581906001600160a01b03165f51602061140e5f395f51905f528280a380f35b503461013e578060031936011261013e57602060ff600854166040519015158152f35b503461013e57602036600319011261013e576004356001600160401b0381116104a857366023820112156104a85780600401358261032b82610838565b926103396040519485610801565b82845260208401923660248284010111610474578060246020930185378401015260ff835460a01c1661049a5760a0828051810103126104745761037f6103d4916108a3565b604083015192610391606082016108a3565b6103a260a0608084015193016108a3565b600595909555600380546001600160a01b0319166001600160a01b039283161790556004919091559081169216610a60565b801561048b576040516301ffc9a760e01b815263759be8ff60e11b6004820152602081602481855afa908115610480578391610441575b50156104325781546001600160a81b03191617600160a01b17905560405160018152602090f35b6317c383ff60e21b8252600482fd5b90506020813d602011610478575b8161045c60209383610801565b8101031261047457518015158103610474575f61040b565b8280fd5b3d915061044f565b6040513d85823e3d90fd5b63013d584d60e71b8252600482fd5b62dc149f60e41b8352600483fd5b5080fd5b503461013e5760a036600319011261013e576104c66107eb565b6044356001600160a01b03811690819003610474576064356001600160401b038116929083900361056e576084356001600160a01b0381169081900361056a57604093845193602085019360018060a01b03168452602435868601526060850152608084015260a083015260a0825261054060c083610801565b8251938492602084525180928160208601528585015e828201840152601f01601f19168101030190f35b8480fd5b8380fd5b503461013e578060031936011261013e576020600554604051908152f35b5034610646575f366003190112610646576003546001600160a01b03163303610659576002546001600160a01b0316801561064a57803b15610646575f80916004604051809481936386d1a69f60e01b83525af1801561063b57610628575b5060018060a01b03600354167fbdaf619ea82dfe67e13d2f88b1eeb27facf2ef2b7a5bba1a7274c8c74eadc3e06020604051428152a280f35b61063491505f90610801565b5f5f6105ef565b6040513d5f823e3d90fd5b5f80fd5b6306aa937d60e31b5f5260045ffd5b63e2faaae160e01b5f5260045ffd5b346106465760203660031901126106465760043560ff6008541661073d57335f52600960205260405f2054801561072e5781811061071f575f80808085335af16106b0610853565b501561071057816106cf916106c782600654610882565b600655610882565b335f52600960205260405f20556040519081524260208201527fa5411d116afcb8415f0019792cccf595f94852ba82886dacbf756d9c3ce85f3f60403392a2005b6317f2c34560e31b5f5260045ffd5b63fd7850ad60e01b5f5260045ffd5b63f76aef6560e01b5f5260045ffd5b63ef7f94c360e01b5f5260045ffd5b34610646575f36600319011261064657602060ff5f5460a01c166040519015158152f35b34610646575f366003190112610646576002546040516001600160a01b039091168152602090f35b34610646576020366003190112610646576004359063ffffffff60e01b82168092036106465760209163b4632c6360e01b81149081156107da575b5015158152f35b6301ffc9a760e01b149050836107d3565b600435906001600160a01b038216820361064657565b601f909101601f19168101906001600160401b0382119082101761082457604052565b634e487b7160e01b5f52604160045260245ffd5b6001600160401b03811161082457601f01601f191660200190565b3d1561087d573d9061086482610838565b916108726040519384610801565b82523d5f602084013e565b606090565b9190820391821161088f57565b634e487b7160e01b5f52601160045260245ffd5b51906001600160a01b038216820361064657565b9190820180921161088f57565b60ff6008541661002e576006546108db34826108b7565b60055410610a51576108ee9034906108b7565b600655335f5260096020526109073460405f20546108b7565b335f52600960205260405f20555f6006546005541461099d575b6001600160a01b0316610963575b6040513481524260208201527fd2dff949d20e874cc6ba1dcefb840fb8cf6000a4197bfb69accfea5a32443ff560403392a2565b60018060a01b03600254167f7b97dcefcb9fdae22321c09ae87ed7865e06d2477325d246f8f1ff039a701a3d6020604051428152a261092f565b50426007556008805461ffff1916610101179055600354600454604051916001600160a01b03169061095190818401906001600160401b0390811690821185831017610824576060938593610abd85398252426001600160401b0316602083015260408201520301905ff0801561063b57600280546001600160a01b0319166001600160a01b039290921691821790555f80808047855af1610a3d610853565b50610921576317f2c34560e31b5f5260045ffd5b632a9ffab760e21b5f5260045ffd5b600180546001600160a01b039283166001600160a01b0319821681179092559091165f51602061140e5f395f51905f525f80a3565b6001546001600160a01b03163303610aa957565b63118cdaa760e01b5f523360045260245ffdfe60c0601f61095138819003918201601f19168301916001600160401b0383118484101761010b578084926060946040528339810103126101075780516001600160a01b038116919082900361010757610066604061005f6020840161011f565b920161011f565b9082156100f4575f80546001600160a01b031981168517825560405194916001600160a01b03909116907f8be0079c531659141344cd1fd0a4f28419497f9722a3daafe3b4186f6b6457e09080a360805260a05261081d908161013482396080518181816101a6015281816106c801526106fc015260a05181818161050a015281816106a4015261075a0152f35b631e4fbdf760e01b5f525f60045260245ffd5b5f80fd5b634e487b7160e01b5f52604160045260245ffd5b51906001600160401b03821682036101075756fe6080604052600436101561001a575b3615610018575f80fd5b005b5f3560e01c80630a17b06b146105395780630fb5a6b4146104f5578063191655871461040b578063715018a6146103c7578063810ec23b1461038e57806386d1a69f146102745780638da5cb5b1461024d57806396132521146102305780639852595c146101f8578063a3f8eace146101d5578063be9a655514610191578063efbe1c1c14610177578063f2fde38b146101055763fbccedae0361000e5734610101575f366003190112610101576001546020906100f9906100f090426001600160401b0316906100eb9047610586565b6106ed565b60015490610654565b604051908152f35b5f80fd5b346101015760203660031901126101015761011e610570565b6101266107a1565b6001600160a01b03168015610164575f80546001600160a01b03198116831782556001600160a01b0316905f5160206107c85f395f51905f529080a3005b631e4fbdf760e01b5f525f60045260245ffd5b34610101575f3660031901126101015760206100f9610697565b34610101575f366003190112610101576040517f00000000000000000000000000000000000000000000000000000000000000006001600160401b03168152602090f35b346101015760203660031901126101015760206100f96101f3610570565b610661565b34610101576020366003190112610101576001600160a01b03610219610570565b165f526002602052602060405f2054604051908152f35b34610101575f366003190112610101576020600154604051908152f35b34610101575f366003190112610101575f546040516001600160a01b039091168152602090f35b34610101575f366003190112610101576001546102a090426001600160401b0316906100eb9047610586565b6102b76102b06001548093610654565b8092610586565b6001557fda9d4e5f101b8b9b1c5b76d0c5a9f7923571acfc02376aa076b75a8c080c956b6020604051838152a15f546001600160a01b0316478211610377575f80809381935af13d1561036f573d906001600160401b03821161035b576040519161032c601f8201601f1916602001846105a7565b82523d5f602084013e5b1561033d57005b80511561034c57805190602001fd5b63d6bda27560e01b5f5260045ffd5b634e487b7160e01b5f52604160045260245ffd5b606090610336565b504763cf47918160e01b5f5260045260245260445ffd5b34610101576040366003190112610101576103a7610570565b602435906001600160401b0382168203610101576020916100f9916105ca565b34610101575f366003190112610101576103df6107a1565b5f80546001600160a01b0319811682556001600160a01b03165f5160206107c85f395f51905f528280a3005b3461010157602036600319011261010157610424610570565b60205f61043083610661565b9260018060a01b0316928382526002835260408220610450828254610586565b9055837fc0e523490dd523c33b1878c9eb14ff46991e3f5b2cd33710918618f2a39cba1b84604051848152a260018060a01b0382541690604051908482019263a9059cbb60e01b845260248301526044820152604481526104b26064826105a7565b519082855af1156104ea575f513d6104e15750803b155b6104cf57005b635274afe760e01b5f5260045260245ffd5b600114156104c9565b6040513d5f823e3d90fd5b34610101575f366003190112610101576040517f00000000000000000000000000000000000000000000000000000000000000006001600160401b03168152602090f35b34610101576020366003190112610101576004356001600160401b0381168103610101576100f96020916100eb4760015490610586565b600435906001600160a01b038216820361010157565b9190820180921161059357565b634e487b7160e01b5f52601160045260245ffd5b601f909101601f19168101906001600160401b0382119082101761035b57604052565b6040516370a0823160e01b81523060048201526001600160a01b03919091169190602081602481865afa9081156104ea575f91610620575b506100eb9061061d935f52600260205260405f205490610586565b90565b90506020813d60201161064c575b8161063b602093836105a7565b81010312610101575161061d610602565b3d915061062e565b9190820391821161059357565b61061d90610678426001600160401b0316826105ca565b6001600160a01b039091165f9081526002602052604090205490610654565b61061d6001600160401b037f00000000000000000000000000000000000000000000000000000000000000008116907f000000000000000000000000000000000000000000000000000000000000000016610586565b906001600160401b03908116907f0000000000000000000000000000000000000000000000000000000000000000168082101561072b575050505f90565b610733610697565b821061073e57505090565b61074791610654565b90818102918183041490151715610593577f00000000000000000000000000000000000000000000000000000000000000006001600160401b031690811561078d570490565b634e487b7160e01b5f52601260045260245ffd5b5f546001600160a01b031633036107b457565b63118cdaa760e01b5f523360045260245ffdfe8be0079c531659141344cd1fd0a4f28419497f9722a3daafe3b4186f6b6457e0a26469706673582212206de941b77b480e19bf9d76754a7c54a577a2adc913b620e8d759afe1b7b5f8e964736f6c634300081e00338be0079c531659141344cd1fd0a4f28419497f9722a3daafe3b4186f6b6457e0a26469706673582212205972c727ddd1cf71b7360f4128cab9fa9a36a3ff1917c2b2bde9ffdf50a7067064736f6c634300081e0033","linkReferences":{}},"methodIdentifiers":{"contribute()":"d7bb99ba","deployManager()":"93394029","donationPool()":"ff9de934","fundraiser()":"89585d10","getDeployManager()":"f7fc87f2","getInitData(address,uint256,address,uint64,address)":"41edb36f","goal()":"40193883","initialize(bytes)":"439fab91","initialized()":"158ef93e","owner()":"8da5cb5b","poolReached()":"5915497c","refund(uint256)":"278ecde1","renounceOwnership()":"715018a6","startTimestamp()":"e6fd48bc","supportsInterface(bytes4)":"01ffc9a7","transferOwnership(address)":"f2fde38b","vestingStarted()":"f998c8e8","vestingTime()":"c7dab436","vestingWallet()":"0a5ab11d","withdraw()":"3ccfd60b"},"id":63}