{"abi":[{"type":"constructor","inputs":[{"name":"recipient","type":"address","internalType":"address"},{"name":"initialOwner","type":"address","internalType":"address"}],"stateMutability":"nonpayable"},{"type":"function","name":"DOMAIN_SEPARATOR","inputs":[],"outputs":[{"name":"","type":"bytes32","internalType":"bytes32"}],"stateMutability":"view"},{"type":"function","name":"allowance","inputs":[{"name":"owner","type":"address","internalType":"address"},{"name":"spender","type":"address","internalType":"address"}],"outputs":[{"name":"","type":"uint256","internalType":"uint256"}],"stateMutability":"view"},{"type":"function","name":"approve","inputs":[{"name":"spender","type":"address","internalType":"address"},{"name":"value","type":"uint256","internalType":"uint256"}],"outputs":[{"name":"","type":"bool","internalType":"bool"}],"stateMutability":"nonpayable"},{"type":"function","name":"balanceOf","inputs":[{"name":"account","type":"address","internalType":"address"}],"outputs":[{"name":"","type":"uint256","internalType":"uint256"}],"stateMutability":"view"},{"type":"function","name":"decimals","inputs":[],"outputs":[{"name":"","type":"uint8","internalType":"uint8"}],"stateMutability":"view"},{"type":"function","name":"eip712Domain","inputs":[],"outputs":[{"name":"fields","type":"bytes1","internalType":"bytes1"},{"name":"name","type":"string","internalType":"string"},{"name":"version","type":"string","internalType":"string"},{"name":"chainId","type":"uint256","internalType":"uint256"},{"name":"verifyingContract","type":"address","internalType":"address"},{"name":"salt","type":"bytes32","internalType":"bytes32"},{"name":"extensions","type":"uint256[]","internalType":"uint256[]"}],"stateMutability":"view"},{"type":"function","name":"mint","inputs":[{"name":"to","type":"address","internalType":"address"},{"name":"amount","type":"uint256","internalType":"uint256"}],"outputs":[],"stateMutability":"nonpayable"},{"type":"function","name":"name","inputs":[],"outputs":[{"name":"","type":"string","internalType":"string"}],"stateMutability":"view"},{"type":"function","name":"nonces","inputs":[{"name":"owner","type":"address","internalType":"address"}],"outputs":[{"name":"","type":"uint256","internalType":"uint256"}],"stateMutability":"view"},{"type":"function","name":"owner","inputs":[],"outputs":[{"name":"","type":"address","internalType":"address"}],"stateMutability":"view"},{"type":"function","name":"permit","inputs":[{"name":"owner","type":"address","internalType":"address"},{"name":"spender","type":"address","internalType":"address"},{"name":"value","type":"uint256","internalType":"uint256"},{"name":"deadline","type":"uint256","internalType":"uint256"},{"name":"v","type":"uint8","internalType":"uint8"},{"name":"r","type":"bytes32","internalType":"bytes32"},{"name":"s","type":"bytes32","internalType":"bytes32"}],"outputs":[],"stateMutability":"nonpayable"},{"type":"function","name":"renounceOwnership","inputs":[],"outputs":[],"stateMutability":"nonpayable"},{"type":"function","name":"symbol","inputs":[],"outputs":[{"name":"","type":"string","internalType":"string"}],"stateMutability":"view"},{"type":"function","name":"totalSupply","inputs":[],"outputs":[{"name":"","type":"uint256","internalType":"uint256"}],"stateMutability":"view"},{"type":"function","name":"transfer","inputs":[{"name":"to","type":"address","internalType":"address"},{"name":"value","type":"uint256","internalType":"uint256"}],"outputs":[{"name":"","type":"bool","internalType":"bool"}],"stateMutability":"nonpayable"},{"type":"function","name":"transferFrom","inputs":[{"name":"from","type":"address","internalType":"address"},{"name":"to","type":"address","internalType":"address"},{"name":"value","type":"uint256","internalType":"uint256"}],"outputs":[{"name":"","type":"bool","internalType":"bool"}],"stateMutability":"nonpayable"},{"type":"function","name":"transferOwnership","inputs":[{"name":"newOwner","type":"address","internalType":"address"}],"outputs":[],"stateMutability":"nonpayable"},{"type":"event","name":"Approval","inputs":[{"name":"owner","type":"address","indexed":true,"internalType":"address"},{"name":"spender","type":"address","indexed":true,"internalType":"address"},{"name":"value","type":"uint256","indexed":false,"internalType":"uint256"}],"anonymous":false},{"type":"event","name":"EIP712DomainChanged","inputs":[],"anonymous":false},{"type":"event","name":"OwnershipTransferred","inputs":[{"name":"previousOwner","type":"address","indexed":true,"internalType":"address"},{"name":"newOwner","type":"address","indexed":true,"internalType":"address"}],"anonymous":false},{"type":"event","name":"Transfer","inputs":[{"name":"from","type":"address","indexed":true,"internalType":"address"},{"name":"to","type":"address","indexed":true,"internalType":"address"},{"name":"value","type":"uint256","indexed":false,"internalType":"uint256"}],"anonymous":false},{"type":"error","name":"ECDSAInvalidSignature","inputs":[]},{"type":"error","name":"ECDSAInvalidSignatureLength","inputs":[{"name":"length","type":"uint256","internalType":"uint256"}]},{"type":"error","name":"ECDSAInvalidSignatureS","inputs":[{"name":"s","type":"bytes32","internalType":"bytes32"}]},{"type":"error","name":"ERC20InsufficientAllowance","inputs":[{"name":"spender","type":"address","internalType":"address"},{"name":"allowance","type":"uint256","internalType":"uint256"},{"name":"needed","type":"uint256","internalType":"uint256"}]},{"type":"error","name":"ERC20InsufficientBalance","inputs":[{"name":"sender","type":"address","internalType":"address"},{"name":"balance","type":"uint256","internalType":"uint256"},{"name":"needed","type":"uint256","internalType":"uint256"}]},{"type":"error","name":"ERC20InvalidApprover","inputs":[{"name":"approver","type":"address","internalType":"address"}]},{"type":"error","name":"ERC20InvalidReceiver","inputs":[{"name":"receiver","type":"address","internalType":"address"}]},{"type":"error","name":"ERC20InvalidSender","inputs":[{"name":"sender","type":"address","internalType":"address"}]},{"type":"error","name":"ERC20InvalidSpender","inputs":[{"name":"spender","type":"address","internalType":"address"}]},{"type":"error","name":"ERC2612ExpiredSignature","inputs":[{"name":"deadline","type":"uint256","internalType":"uint256"}]},{"type":"error","name":"ERC2612InvalidSigner","inputs":[{"name":"signer","type":"address","internalType":"address"},{"name":"owner","type":"address","internalType":"address"}]},{"type":"error","name":"InvalidAccountNonce","inputs":[{"name":"account","type":"address","internalType":"address"},{"name":"currentNonce","type":"uint256","internalType":"uint256"}]},{"type":"error","name":"InvalidShortString","inputs":[]},{"type":"error","name":"OwnableInvalidOwner","inputs":[{"name":"owner","type":"address","internalType":"address"}]},{"type":"error","name":"OwnableUnauthorizedAccount","inputs":[{"name":"account","type":"address","internalType":"address"}]},{"type":"error","name":"StringTooLong","inputs":[{"name":"str","type":"string","internalType":"string"}]}],"bytecode":{"object":"0x61016080604052346105645760408161164a80380380916100208285610568565b8339810103126105645761003f60206100388361058b565b920161058b565b60405161004d604082610568565b600981526020810168546f6b656e4d6f636b60b81b815260405191610073604084610568565b6009835268546f6b656e4d6f636b60b81b602084015260405193610098604086610568565b60048552634d4f434b60e01b6020860152604051946100b8604087610568565b60018652603160f81b60208701908152855190956001600160401b0382116104675760035490600182811c9216801561055a575b60208310146104495781601f8493116104ec575b50602090601f8311600114610486575f9261047b575b50508160011b915f199060031b1c1916176003555b8051906001600160401b0382116104675760045490600182811c9216801561045d575b60208310146104495781601f8493116103db575b50602090601f8311600114610375575f9261036a575b50508160011b915f199060031b1c1916176004555b6001600160a01b0316801561035757600580546001600160a01b0319811683179091556001600160a01b03167f8be0079c531659141344cd1fd0a4f28419497f9722a3daafe3b4186f6b6457e05f80a36101e68161059f565b610120526101f384610726565b61014052519020918260e05251902080610100524660a0526040519060208201927f8b73c3c69bb8fe3d512ecc4cf759cc79239f7b179b0ffacaa9a75d522b39400f8452604083015260608201524660808201523060a082015260a0815261025c60c082610568565b5190206080523060c0526001600160a01b031680156103445760025469021e19e0c9bab2400000810180911161033057600255805f525f60205260405f2069021e19e0c9bab240000081540190555f7fddf252ad1be2c89b69c2b068fc378daa952ba7f163c4a11628f55a4df523b3ef602060405169021e19e0c9bab24000008152a3604051610deb908161085f823960805181610a77015260a05181610b34015260c05181610a41015260e05181610ac601526101005181610aec015261012051816104360152610140518161045f0152f35b634e487b7160e01b5f52601160045260245ffd5b63ec442f0560e01b5f525f60045260245ffd5b631e4fbdf760e01b5f525f60045260245ffd5b015190505f80610178565b60045f9081528281209350601f198516905b8181106103c357509084600195949392106103ab575b505050811b0160045561018d565b01515f1960f88460031b161c191690555f808061039d565b92936020600181928786015181550195019301610387565b60045f529091507f8a35acfbc15ff81a39ae7d344fd709f28e8600b4aa8c65c6b64bfe7fe36bd19b601f840160051c8101916020851061043f575b90601f859493920160051c01905b8181106104315750610162565b5f8155849350600101610424565b9091508190610416565b634e487b7160e01b5f52602260045260245ffd5b91607f169161014e565b634e487b7160e01b5f52604160045260245ffd5b015190505f80610116565b60035f9081528281209350601f198516905b8181106104d457509084600195949392106104bc575b505050811b0160035561012b565b01515f1960f88460031b161c191690555f80806104ae565b92936020600181928786015181550195019301610498565b60035f529091507fc2575a0e9e593c00f959f8c92f12db2869c3395a3b0502d05e2516446f71f85b601f840160051c81019160208510610550575b90601f859493920160051c01905b8181106105425750610100565b5f8155849350600101610535565b9091508190610527565b91607f16916100ec565b5f80fd5b601f909101601f19168101906001600160401b0382119082101761046757604052565b51906001600160a01b038216820361056457565b908151602081105f14610619575090601f8151116105d95760208151910151602082106105ca571790565b5f198260200360031b1b161790565b604460209160405192839163305a27a960e01b83528160048401528051918291826024860152018484015e5f828201840152601f01601f19168101030190fd5b6001600160401b03811161046757600654600181811c9116801561071c575b602082101461044957601f81116106e9575b50602092601f821160011461068857928192935f9261067d575b50508160011b915f199060031b1c19161760065560ff90565b015190505f80610664565b601f1982169360065f52805f20915f5b8681106106d157508360019596106106b9575b505050811b0160065560ff90565b01515f1960f88460031b161c191690555f80806106ab565b91926020600181928685015181550194019201610698565b60065f52601f60205f20910160051c810190601f830160051c015b818110610711575061064a565b5f8155600101610704565b90607f1690610638565b908151602081105f14610751575090601f8151116105d95760208151910151602082106105ca571790565b6001600160401b03811161046757600754600181811c91168015610854575b602082101461044957601f8111610821575b50602092601f82116001146107c057928192935f926107b5575b50508160011b915f199060031b1c19161760075560ff90565b015190505f8061079c565b601f1982169360075f52805f20915f5b86811061080957508360019596106107f1575b505050811b0160075560ff90565b01515f1960f88460031b161c191690555f80806107e3565b919260206001819286850151815501940192016107d0565b60075f52601f60205f20910160051c810190601f830160051c015b8181106108495750610782565b5f815560010161083c565b90607f169061077056fe6080806040526004361015610012575f80fd5b5f3560e01c90816306fdde03146107c557508063095ea7b31461079f57806318160ddd1461078257806323b872dd146106a3578063313ce567146106885780633644e5151461066657806340c10f19146105cd57806370a0823114610596578063715018a61461054e5780637ecebe001461051657806384b0196e1461041e5780638da5cb5b146103f657806395d89b4114610314578063a9059cbb146102e3578063d505accf1461019e578063dd62ed3e1461014e5763f2fde38b146100d7575f80fd5b3461014a57602036600319011261014a576100f061088b565b6100f8610b5a565b6001600160a01b0316801561013757600580546001600160a01b0319811683179091556001600160a01b03165f516020610d765f395f51905f525f80a3005b631e4fbdf760e01b5f525f60045260245ffd5b5f80fd5b3461014a57604036600319011261014a5761016761088b565b61016f6108a1565b6001600160a01b039182165f908152600160209081526040808320949093168252928352819020549051908152f35b3461014a5760e036600319011261014a576101b761088b565b6101bf6108a1565b604435906064359260843560ff8116810361014a578442116102d05761029361029c9160018060a01b03841696875f52600860205260405f20908154916001830190556040519060208201927f6e71edae12b1b97f4d1f60370fef10105fa2faae0126114a169c64845d6126c984528a604084015260018060a01b038916606084015289608084015260a083015260c082015260c0815261026160e082610970565b51902061026c610a3e565b906040519161190160f01b83526002830152602282015260c43591604260a4359220610c7e565b90929192610d01565b6001600160a01b03168481036102b957506102b79350610b81565b005b84906325c0072360e11b5f5260045260245260445ffd5b8463313c898160e11b5f5260045260245ffd5b3461014a57604036600319011261014a576103096102ff61088b565b60243590336109a7565b602060405160018152f35b3461014a575f36600319011261014a576040515f600454610334816108b7565b80845290600181169081156103d25750600114610374575b6103708361035c81850382610970565b604051918291602083526020830190610867565b0390f35b60045f9081527f8a35acfbc15ff81a39ae7d344fd709f28e8600b4aa8c65c6b64bfe7fe36bd19b939250905b8082106103b85750909150810160200161035c61034c565b9192600181602092548385880101520191019092916103a0565b60ff191660208086019190915291151560051b8401909101915061035c905061034c565b3461014a575f36600319011261014a576005546040516001600160a01b039091168152602090f35b3461014a575f36600319011261014a576104ba61045a7f0000000000000000000000000000000000000000000000000000000000000000610be4565b6104837f0000000000000000000000000000000000000000000000000000000000000000610c47565b60206104c8604051926104968385610970565b5f84525f368137604051958695600f60f81b875260e08588015260e0870190610867565b908582036040870152610867565b4660608501523060808501525f60a085015283810360c08501528180845192838152019301915f5b8281106104ff57505050500390f35b8351855286955093810193928101926001016104f0565b3461014a57602036600319011261014a576001600160a01b0361053761088b565b165f526008602052602060405f2054604051908152f35b3461014a575f36600319011261014a57610566610b5a565b600580546001600160a01b031981169091555f906001600160a01b03165f516020610d765f395f51905f528280a3005b3461014a57602036600319011261014a576001600160a01b036105b761088b565b165f525f602052602060405f2054604051908152f35b3461014a57604036600319011261014a576105e661088b565b602435906105f2610b5a565b6001600160a01b0316908115610653576002549080820180921161063f5760205f516020610d965f395f51905f52915f9360025584845283825260408420818154019055604051908152a3005b634e487b7160e01b5f52601160045260245ffd5b63ec442f0560e01b5f525f60045260245ffd5b3461014a575f36600319011261014a576020610680610a3e565b604051908152f35b3461014a575f36600319011261014a57602060405160128152f35b3461014a57606036600319011261014a576106bc61088b565b6106c46108a1565b6001600160a01b0382165f818152600160209081526040808320338452909152902054909260443592915f198110610702575b5061030993506109a7565b83811061076757841561075457331561074157610309945f52600160205260405f2060018060a01b0333165f526020528360405f2091039055846106f7565b634a1406b160e11b5f525f60045260245ffd5b63e602df0560e01b5f525f60045260245ffd5b8390637dc7a0d960e11b5f523360045260245260445260645ffd5b3461014a575f36600319011261014a576020600254604051908152f35b3461014a57604036600319011261014a576103096107bb61088b565b6024359033610b81565b3461014a575f36600319011261014a575f6003546107e2816108b7565b80845290600181169081156103d25750600114610809576103708361035c81850382610970565b60035f9081527fc2575a0e9e593c00f959f8c92f12db2869c3395a3b0502d05e2516446f71f85b939250905b80821061084d5750909150810160200161035c61034c565b919260018160209254838588010152019101909291610835565b805180835260209291819084018484015e5f828201840152601f01601f1916010190565b600435906001600160a01b038216820361014a57565b602435906001600160a01b038216820361014a57565b90600182811c921680156108e5575b60208310146108d157565b634e487b7160e01b5f52602260045260245ffd5b91607f16916108c6565b5f92918154916108fe836108b7565b8083529260018116908115610953575060011461091a57505050565b5f9081526020812093945091925b838310610939575060209250010190565b600181602092949394548385870101520191019190610928565b915050602093945060ff929192191683830152151560051b010190565b601f909101601f19168101906001600160401b0382119082101761099357604052565b634e487b7160e01b5f52604160045260245ffd5b6001600160a01b0316908115610a2b576001600160a01b031691821561065357815f525f60205260405f2054818110610a1257815f516020610d965f395f51905f5292602092855f525f84520360405f2055845f525f825260405f20818154019055604051908152a3565b8263391434e360e21b5f5260045260245260445260645ffd5b634b637e8f60e11b5f525f60045260245ffd5b307f00000000000000000000000000000000000000000000000000000000000000006001600160a01b03161480610b31575b15610a99577f000000000000000000000000000000000000000000000000000000000000000090565b60405160208101907f8b73c3c69bb8fe3d512ecc4cf759cc79239f7b179b0ffacaa9a75d522b39400f82527f000000000000000000000000000000000000000000000000000000000000000060408201527f000000000000000000000000000000000000000000000000000000000000000060608201524660808201523060a082015260a08152610b2b60c082610970565b51902090565b507f00000000000000000000000000000000000000000000000000000000000000004614610a70565b6005546001600160a01b03163303610b6e57565b63118cdaa760e01b5f523360045260245ffd5b6001600160a01b0316908115610754576001600160a01b03169182156107415760207f8c5be1e5ebec7d5bd14f71427d1e84f3dd0314c0f7b2291e5b200ac8c7c3b92591835f526001825260405f20855f5282528060405f2055604051908152a3565b60ff8114610c2a5760ff811690601f8211610c1b5760405191610c08604084610970565b6020808452838101919036833783525290565b632cd44ac360e21b5f5260045ffd5b50604051610c4481610c3d8160066108ef565b0382610970565b90565b60ff8114610c6b5760ff811690601f8211610c1b5760405191610c08604084610970565b50604051610c4481610c3d8160076108ef565b91906fa2a8918ca85bafe22016d0b997e4df60600160ff1b038411610cf6579160209360809260ff5f9560405194855216868401526040830152606082015282805260015afa15610ceb575f516001600160a01b03811615610ce157905f905f90565b505f906001905f90565b6040513d5f823e3d90fd5b5050505f9160039190565b6004811015610d615780610d13575050565b60018103610d2a5763f645eedf60e01b5f5260045ffd5b60028103610d45575063fce698f760e01b5f5260045260245ffd5b600314610d4f5750565b6335e2f38360e21b5f5260045260245ffd5b634e487b7160e01b5f52602160045260245ffdfe8be0079c531659141344cd1fd0a4f28419497f9722a3daafe3b4186f6b6457e0ddf252ad1be2c89b69c2b068fc378daa952ba7f163c4a11628f55a4df523b3efa26469706673582212209baa7e8675fdbe0fa50826d20b1b875adad4e1a029fe7fa795fd4e9ae06f767164736f6c634300081e0033","linkReferences":{}},"methodIdentifiers":{"DOMAIN_SEPARATOR()":"3644e515","allowance(address,address)":"dd62ed3e","approve(address,uint256)":"095ea7b3","balanceOf(address)":"70a08231","decimals()":"313ce567","eip712Domain()":"84b0196e","mint(address,uint256)":"40c10f19","name()":"06fdde03","nonces(address)":"7ecebe00","owner()":"8da5cb5b","permit(address,address,uint256,uint256,uint8,bytes32,bytes32)":"d505accf","renounceOwnership()":"715018a6","symbol()":"95d89b41","totalSupply()":"18160ddd","transfer(address,uint256)":"a9059cbb","transferFrom(address,address,uint256)":"23b872dd","transferOwnership(address)":"f2fde38b"},"id":75}