{"abi":[{"type":"function","name":"bigBoss","inputs":[],"outputs":[{"name":"","type":"address","internalType":"address"}],"stateMutability":"view"},{"type":"function","name":"doSomethink","inputs":[],"outputs":[{"name":"","type":"uint256","internalType":"uint256"},{"name":"","type":"address","internalType":"address"}],"stateMutability":"view"},{"type":"function","name":"getInitData","inputs":[{"name":"_number","type":"uint256","internalType":"uint256"},{"name":"_bigBoss","type":"address","internalType":"address"}],"outputs":[{"name":"","type":"bytes","internalType":"bytes"}],"stateMutability":"pure"},{"type":"function","name":"initialize","inputs":[{"name":"_initData","type":"bytes","internalType":"bytes"}],"outputs":[{"name":"","type":"bool","internalType":"bool"}],"stateMutability":"nonpayable"},{"type":"function","name":"initialized","inputs":[],"outputs":[{"name":"","type":"bool","internalType":"bool"}],"stateMutability":"view"},{"type":"function","name":"number","inputs":[],"outputs":[{"name":"","type":"uint256","internalType":"uint256"}],"stateMutability":"view"},{"type":"error","name":"AlreadyInitialized","inputs":[]}],"bytecode":{"object":"0x6080604052348015600e575f5ffd5b506106ed8061001c5f395ff3fe608060405234801561000f575f5ffd5b5060043610610060575f3560e01c8063158ef93e146100645780633cac7f7914610082578063439fab91146100b257806381ff7ef4146100e25780638381f58a14610101578063a9c326791461011f575b5f5ffd5b61006c61013d565b60405161007991906102bb565b60405180910390f35b61009c60048036038101906100979190610372565b610150565b6040516100a99190610420565b60405180910390f35b6100cc60048036038101906100c7919061056c565b61017c565b6040516100d991906102bb565b60405180910390f35b6100ea610249565b6040516100f89291906105d1565b60405180910390f35b610109610277565b60405161011691906105f8565b60405180910390f35b61012761027c565b6040516101349190610611565b60405180910390f35b600160149054906101000a900460ff1681565b606082826040516020016101659291906105d1565b604051602081830303815290604052905092915050565b5f600160149054906101000a900460ff16156101c4576040517f0dc149f000000000000000000000000000000000000000000000000000000000815260040160405180910390fd5b5f5f838060200190518101906101da9190610679565b91509150815f819055508060015f6101000a81548173ffffffffffffffffffffffffffffffffffffffff021916908373ffffffffffffffffffffffffffffffffffffffff16021790555060018060146101000a81548160ff021916908315150217905550600192505050919050565b5f5f5f5460015f9054906101000a900473ffffffffffffffffffffffffffffffffffffffff16915091509091565b5f5481565b60015f9054906101000a900473ffffffffffffffffffffffffffffffffffffffff1681565b5f8115159050919050565b6102b5816102a1565b82525050565b5f6020820190506102ce5f8301846102ac565b92915050565b5f604051905090565b5f5ffd5b5f5ffd5b5f819050919050565b6102f7816102e5565b8114610301575f5ffd5b50565b5f81359050610312816102ee565b92915050565b5f73ffffffffffffffffffffffffffffffffffffffff82169050919050565b5f61034182610318565b9050919050565b61035181610337565b811461035b575f5ffd5b50565b5f8135905061036c81610348565b92915050565b5f5f60408385031215610388576103876102dd565b5b5f61039585828601610304565b92505060206103a68582860161035e565b9150509250929050565b5f81519050919050565b5f82825260208201905092915050565b8281835e5f83830152505050565b5f601f19601f8301169050919050565b5f6103f2826103b0565b6103fc81856103ba565b935061040c8185602086016103ca565b610415816103d8565b840191505092915050565b5f6020820190508181035f83015261043881846103e8565b905092915050565b5f5ffd5b5f5ffd5b7f4e487b71000000000000000000000000000000000000000000000000000000005f52604160045260245ffd5b61047e826103d8565b810181811067ffffffffffffffff8211171561049d5761049c610448565b5b80604052505050565b5f6104af6102d4565b90506104bb8282610475565b919050565b5f67ffffffffffffffff8211156104da576104d9610448565b5b6104e3826103d8565b9050602081019050919050565b828183375f83830152505050565b5f61051061050b846104c0565b6104a6565b90508281526020810184848401111561052c5761052b610444565b5b6105378482856104f0565b509392505050565b5f82601f83011261055357610552610440565b5b81356105638482602086016104fe565b91505092915050565b5f60208284031215610581576105806102dd565b5b5f82013567ffffffffffffffff81111561059e5761059d6102e1565b5b6105aa8482850161053f565b91505092915050565b6105bc816102e5565b82525050565b6105cb81610337565b82525050565b5f6040820190506105e45f8301856105b3565b6105f160208301846105c2565b9392505050565b5f60208201905061060b5f8301846105b3565b92915050565b5f6020820190506106245f8301846105c2565b92915050565b5f81519050610638816102ee565b92915050565b5f61064882610318565b9050919050565b6106588161063e565b8114610662575f5ffd5b50565b5f815190506106738161064f565b92915050565b5f5f6040838503121561068f5761068e6102dd565b5b5f61069c8582860161062a565b92505060206106ad85828601610665565b915050925092905056fea26469706673582212201a43d2da86db5a2ea0455644d86bb7d483f3696852f905c22cbd5a4d1747df0e64736f6c634300081e0033","linkReferences":{}},"methodIdentifiers":{"bigBoss()":"a9c32679","doSomethink()":"81ff7ef4","getInitData(uint256,address)":"3cac7f79","initialize(bytes)":"439fab91","initialized()":"158ef93e","number()":"8381f58a"},"id":0}