{"abi":[{"type":"constructor","inputs":[],"stateMutability":"nonpayable"},{"type":"function","name":"deployManager","inputs":[],"outputs":[{"name":"","type":"address","internalType":"address"}],"stateMutability":"view"},{"type":"function","name":"electionParams","inputs":[],"outputs":[{"name":"votingMaxVotes","type":"uint256","internalType":"uint256"},{"name":"usersMaxVotes","type":"uint256","internalType":"uint256"},{"name":"votingStartTime","type":"uint256","internalType":"uint256"},{"name":"votingEndTime","type":"uint256","internalType":"uint256"}],"stateMutability":"view"},{"type":"function","name":"electorsScores","inputs":[{"name":"","type":"uint256","internalType":"uint256"}],"outputs":[{"name":"","type":"uint256","internalType":"uint256"}],"stateMutability":"view"},{"type":"function","name":"getDeployManager","inputs":[],"outputs":[{"name":"","type":"address","internalType":"address"}],"stateMutability":"view"},{"type":"function","name":"getInitData","inputs":[{"name":"_deployManager","type":"address","internalType":"address"},{"name":"_owner","type":"address","internalType":"address"}],"outputs":[{"name":"","type":"bytes","internalType":"bytes"}],"stateMutability":"pure"},{"type":"function","name":"getLeader","inputs":[],"outputs":[{"name":"","type":"uint256","internalType":"uint256"}],"stateMutability":"view"},{"type":"function","name":"initialize","inputs":[{"name":"_initData","type":"bytes","internalType":"bytes"}],"outputs":[{"name":"","type":"bool","internalType":"bool"}],"stateMutability":"nonpayable"},{"type":"function","name":"initialized","inputs":[],"outputs":[{"name":"","type":"bool","internalType":"bool"}],"stateMutability":"view"},{"type":"function","name":"owner","inputs":[],"outputs":[{"name":"","type":"address","internalType":"address"}],"stateMutability":"view"},{"type":"function","name":"renounceOwnership","inputs":[],"outputs":[],"stateMutability":"nonpayable"},{"type":"function","name":"startVoting","inputs":[{"name":"_params","type":"tuple","internalType":"struct IVoting.ElectionParameters","components":[{"name":"electors","type":"uint256[]","internalType":"uint256[]"},{"name":"votingMaxVotes","type":"uint256","internalType":"uint256"},{"name":"usersMaxVotes","type":"uint256","internalType":"uint256"},{"name":"votingStartTime","type":"uint256","internalType":"uint256"},{"name":"votingEndTime","type":"uint256","internalType":"uint256"}]}],"outputs":[],"stateMutability":"nonpayable"},{"type":"function","name":"supportsInterface","inputs":[{"name":"interfaceId","type":"bytes4","internalType":"bytes4"}],"outputs":[{"name":"","type":"bool","internalType":"bool"}],"stateMutability":"view"},{"type":"function","name":"totalVotes","inputs":[],"outputs":[{"name":"","type":"uint256","internalType":"uint256"}],"stateMutability":"view"},{"type":"function","name":"transferOwnership","inputs":[{"name":"newOwner","type":"address","internalType":"address"}],"outputs":[],"stateMutability":"nonpayable"},{"type":"function","name":"userVotes","inputs":[{"name":"","type":"address","internalType":"address"}],"outputs":[{"name":"","type":"uint256","internalType":"uint256"}],"stateMutability":"view"},{"type":"function","name":"vote","inputs":[{"name":"_number","type":"uint256","internalType":"uint256"}],"outputs":[],"stateMutability":"nonpayable"},{"type":"function","name":"votingStarted","inputs":[],"outputs":[{"name":"","type":"bool","internalType":"bool"}],"stateMutability":"view"},{"type":"event","name":"OwnershipTransferred","inputs":[{"name":"previousOwner","type":"address","indexed":true,"internalType":"address"},{"name":"newOwner","type":"address","indexed":true,"internalType":"address"}],"anonymous":false},{"type":"event","name":"Voted","inputs":[{"name":"index","type":"uint256","indexed":true,"internalType":"uint256"},{"name":"voter","type":"address","indexed":true,"internalType":"address"}],"anonymous":false},{"type":"event","name":"VotingStarted","inputs":[],"anonymous":false},{"type":"error","name":"AlreadyInitialized","inputs":[]},{"type":"error","name":"DeployManagerCantBeZeroAddress","inputs":[]},{"type":"error","name":"ElectorDoesNotExist","inputs":[{"name":"_pickedElector","type":"uint256","internalType":"uint256"},{"name":"_totalElectors","type":"uint256","internalType":"uint256"}]},{"type":"error","name":"FailedToDeployManager","inputs":[]},{"type":"error","name":"NotDeployManager","inputs":[]},{"type":"error","name":"NotEnoughtElectors","inputs":[]},{"type":"error","name":"OwnableInvalidOwner","inputs":[{"name":"owner","type":"address","internalType":"address"}]},{"type":"error","name":"OwnableUnauthorizedAccount","inputs":[{"name":"account","type":"address","internalType":"address"}]},{"type":"error","name":"OwnerCanNotVote","inputs":[]},{"type":"error","name":"UserMaxVotesReached","inputs":[{"name":"_totalUserVotes","type":"uint256","internalType":"uint256"}]},{"type":"error","name":"VotingAlreadyStarted","inputs":[]},{"type":"error","name":"VotingDoesNotStarted","inputs":[]},{"type":"error","name":"VotingEndTimeShouldBeAfterStart","inputs":[]},{"type":"error","name":"VotingMaxVotesReached","inputs":[{"name":"_totalReached","type":"uint256","internalType":"uint256"}]},{"type":"error","name":"VotingStartTimeShouldBeInFuture","inputs":[]},{"type":"error","name":"VotingTimeIsOver","inputs":[]}],"bytecode":{"object":"0x60808060405234606f573315605c5760018054336001600160a01b0319821681179092556001600160a01b03167f8be0079c531659141344cd1fd0a4f28419497f9722a3daafe3b4186f6b6457e05f80a3610aa690816100748239f35b631e4fbdf760e01b5f525f60045260245ffd5b5f80fdfe6080806040526004361015610012575f80fd5b5f3560e01c9081630121b93f146107575750806301ffc9a7146107015780630d15fd77146106e4578063158ef93e146106c0578063439fab911461051a5780634c051f14146104ac5780636219015014610474578063715018a61461042c57806383d948b71461040a5780638da5cb5b146103e257806393394029146100d7578063a00a45cb14610362578063b7c29f25146101b0578063d79ad6381461017a578063f2fde38b1461012c578063f6c522e5146101025763f7fc87f2146100d7575f80fd5b346100fe575f3660031901126100fe575f546040516001600160a01b039091168152602090f35b5f80fd5b346100fe5760203660031901126100fe576004355f52600a602052602060405f2054604051908152f35b346100fe5760203660031901126100fe57610145610995565b61014d610a29565b6001600160a01b0381161561016757610165906109f4565b005b631e4fbdf760e01b5f525f60045260245ffd5b346100fe575f3660031901126100fe57608060035460045460055460065491604051938452602084015260408301526060820152f35b346100fe5760203660031901126100fe576004356001600160401b0381116100fe57806004019060a060031982360301126100fe576101ed610a29565b60ff600854166103535760648101359042821115610344576084810135928284111561033557600261021f82806109bf565b9050106103265780610230916109bf565b906001600160401b03821161031257600160401b821161031257600254826002558083106102ce575b5060025f5260205f205f5b8381106102ba57868660448760248101356003550135600455600555600655600160ff1960085416176008555f6007557f877e2548498f42b7975a186b94ef1d32c86d420b7b806dd2be2bea293b8959045f80a1005b600190602084359401938184015501610264565b60025f527f405787fa12a823e0f2b7631cc41b3ba8828b3321ca811111fa75cd3aa3bb5ace9081019083015b8181106103075750610259565b5f81556001016102fa565b634e487b7160e01b5f52604160045260245ffd5b63d4c3da0f60e01b5f5260045ffd5b631888788960e01b5f5260045ffd5b638a62d81b60e01b5f5260045ffd5b6301da8d1f60e51b5f5260045ffd5b346100fe5760403660031901126100fe5761037b610995565b6024356001600160a01b038116908190036100fe57604090815190602082019360018060a01b03168452828201528181526103b7606082610972565b8151928391602083525180918160208501528484015e5f828201840152601f01601f19168101030190f35b346100fe575f3660031901126100fe576001546040516001600160a01b039091168152602090f35b346100fe575f3660031901126100fe57602060ff600854166040519015158152f35b346100fe575f3660031901126100fe57610444610a29565b600180546001600160a01b031981169091555f906001600160a01b03165f516020610a515f395f51905f528280a3005b346100fe5760203660031901126100fe576001600160a01b03610495610995565b165f526009602052602060405f2054604051908152f35b346100fe575f3660031901126100fe5760ff600854161561050b575f5f600254905b8181106104e057602083604051908152f35b5f818152600a60205260408082205485835291205410610503575b6001016104ce565b9150816104fb565b63372327d160e11b5f5260045ffd5b346100fe5760203660031901126100fe576004356001600160401b0381116100fe57366023820112156100fe5760048101356001600160401b0381116103125760405190610572601f8201601f191660200183610972565b808252602082019236602483830101116100fe57815f926024602093018637830101525f549160ff8360a01c166106b2576040828051810103126100fe5760406105be6105c5926109ab565b92016109ab565b906001600160a01b031680156106a3576040516301ffc9a760e01b815263759be8ff60e11b6004820152602081602481855afa908115610698575f9161065d575b501561064e576001600160a01b0319909216919091175f55610630906001600160a01b03166109f4565b5f805460ff60a01b1916600160a01b17905560405160018152602090f35b6317c383ff60e21b5f5260045ffd5b90506020813d602011610690575b8161067860209383610972565b810103126100fe575180151581036100fe5784610606565b3d915061066b565b6040513d5f823e3d90fd5b63013d584d60e71b5f5260045ffd5b62dc149f60e41b5f5260045ffd5b346100fe575f3660031901126100fe57602060ff5f5460a01c166040519015158152f35b346100fe575f3660031901126100fe576020600754604051908152f35b346100fe5760203660031901126100fe5760043563ffffffff60e01b81168091036100fe5760209063b4632c6360e01b8114908115610746575b506040519015158152f35b6301ffc9a760e01b1490508261073b565b346100fe5760203660031901126100fe576004359060ff600854161561050b5760a081016001600160401b038111828210176103125760405260405180816020600254928381520160025f5260205f20925f5b8181106109595750506107bf92500382610972565b81526003549060208101918252600454916040820192835260055460608301908152600654906080840191825260018060a01b0360015416331461094a5751421061050b5751421161093b5751801515908161092f575b5061091a5751518083101561090457508051151590816108ec575b506108cd57600754600181018091116108b957600755335f52600960205260405f2054600181018091116108b957335f52600960205260405f2055805f52600a60205260405f2054600181018091116108b957815f52600a60205260405f205533907f030b0f8dcd86a031eddb071f91882edeac8173663ba775713b677b42b51be44b5f80a3005b634e487b7160e01b5f52601160045260245ffd5b335f52600960205260405f205463c025889560e01b5f5260045260245ffd5b9050335f52600960205260405f205490511482610831565b82630197390d60e31b5f5260045260245260445ffd5b6007546337fe4e9360e01b5f5260045260245ffd5b90506007541484610816565b634cb8003d60e01b5f5260045ffd5b63168f7ebf60e31b5f5260045ffd5b84548352600194850194869450602090930192016107aa565b601f909101601f19168101906001600160401b0382119082101761031257604052565b600435906001600160a01b03821682036100fe57565b51906001600160a01b03821682036100fe57565b903590601e19813603018212156100fe57018035906001600160401b0382116100fe57602001918160051b360383136100fe57565b600180546001600160a01b039283166001600160a01b0319821681179092559091165f516020610a515f395f51905f525f80a3565b6001546001600160a01b03163303610a3d57565b63118cdaa760e01b5f523360045260245ffdfe8be0079c531659141344cd1fd0a4f28419497f9722a3daafe3b4186f6b6457e0a264697066735822122064097b001be7bf347c7fdfde476e3fa4846065d3da7016d4faff86c4868b6ae364736f6c634300081e0033","linkReferences":{}},"methodIdentifiers":{"deployManager()":"93394029","electionParams()":"d79ad638","electorsScores(uint256)":"f6c522e5","getDeployManager()":"f7fc87f2","getInitData(address,address)":"a00a45cb","getLeader()":"4c051f14","initialize(bytes)":"439fab91","initialized()":"158ef93e","owner()":"8da5cb5b","renounceOwnership()":"715018a6","startVoting((uint256[],uint256,uint256,uint256,uint256))":"b7c29f25","supportsInterface(bytes4)":"01ffc9a7","totalVotes()":"0d15fd77","transferOwnership(address)":"f2fde38b","userVotes(address)":"62190150","vote(uint256)":"0121b93f","votingStarted()":"83d948b7"},"id":67}