{"abi":[{"type":"constructor","inputs":[],"stateMutability":"nonpayable"},{"type":"function","name":"airdropChecker","inputs":[{"name":"_amount","type":"uint256","internalType":"uint256"},{"name":"proof","type":"bytes32[]","internalType":"bytes32[]"}],"outputs":[{"name":"","type":"bool","internalType":"bool"}],"stateMutability":"view"},{"type":"function","name":"claim","inputs":[{"name":"_amount","type":"uint256","internalType":"uint256"},{"name":"proof","type":"bytes32[]","internalType":"bytes32[]"}],"outputs":[],"stateMutability":"nonpayable"},{"type":"function","name":"deployManager","inputs":[],"outputs":[{"name":"","type":"address","internalType":"address"}],"stateMutability":"view"},{"type":"function","name":"deposit","inputs":[{"name":"_amount","type":"uint256","internalType":"uint256"}],"outputs":[],"stateMutability":"nonpayable"},{"type":"function","name":"getDeployManager","inputs":[],"outputs":[{"name":"","type":"address","internalType":"address"}],"stateMutability":"view"},{"type":"function","name":"getInitData","inputs":[{"name":"_deployManager","type":"address","internalType":"address"},{"name":"_tokenAddress","type":"address","internalType":"address"},{"name":"_merkleRoot","type":"bytes32","internalType":"bytes32"},{"name":"_timeForClaim","type":"uint256","internalType":"uint256"},{"name":"_owner","type":"address","internalType":"address"}],"outputs":[{"name":"","type":"bytes","internalType":"bytes"}],"stateMutability":"pure"},{"type":"function","name":"initialize","inputs":[{"name":"_initData","type":"bytes","internalType":"bytes"}],"outputs":[{"name":"","type":"bool","internalType":"bool"}],"stateMutability":"nonpayable"},{"type":"function","name":"initialized","inputs":[],"outputs":[{"name":"","type":"bool","internalType":"bool"}],"stateMutability":"view"},{"type":"function","name":"merkleRoot","inputs":[],"outputs":[{"name":"","type":"bytes32","internalType":"bytes32"}],"stateMutability":"view"},{"type":"function","name":"owner","inputs":[],"outputs":[{"name":"","type":"address","internalType":"address"}],"stateMutability":"view"},{"type":"function","name":"recoverUnclaimed","inputs":[],"outputs":[],"stateMutability":"nonpayable"},{"type":"function","name":"renounceOwnership","inputs":[],"outputs":[],"stateMutability":"nonpayable"},{"type":"function","name":"supportsInterface","inputs":[{"name":"interfaceId","type":"bytes4","internalType":"bytes4"}],"outputs":[{"name":"","type":"bool","internalType":"bool"}],"stateMutability":"view"},{"type":"function","name":"timeForClaim","inputs":[],"outputs":[{"name":"","type":"uint256","internalType":"uint256"}],"stateMutability":"view"},{"type":"function","name":"token","inputs":[],"outputs":[{"name":"","type":"address","internalType":"contract IERC20"}],"stateMutability":"view"},{"type":"function","name":"totalTokensClaimed","inputs":[],"outputs":[{"name":"","type":"uint256","internalType":"uint256"}],"stateMutability":"view"},{"type":"function","name":"transferOwnership","inputs":[{"name":"newOwner","type":"address","internalType":"address"}],"outputs":[],"stateMutability":"nonpayable"},{"type":"event","name":"DepositMade","inputs":[{"name":"sender","type":"address","indexed":true,"internalType":"address"},{"name":"amount","type":"uint256","indexed":false,"internalType":"uint256"},{"name":"tokenAddress","type":"address","indexed":true,"internalType":"address"}],"anonymous":false},{"type":"event","name":"OwnershipTransferred","inputs":[{"name":"previousOwner","type":"address","indexed":true,"internalType":"address"},{"name":"newOwner","type":"address","indexed":true,"internalType":"address"}],"anonymous":false},{"type":"event","name":"TokensClaimed","inputs":[{"name":"claimer","type":"address","indexed":true,"internalType":"address"},{"name":"amount","type":"uint256","indexed":true,"internalType":"uint256"},{"name":"timestamp","type":"uint256","indexed":false,"internalType":"uint256"}],"anonymous":false},{"type":"error","name":"AlreadyClaimed","inputs":[]},{"type":"error","name":"AlreadyInitialized","inputs":[]},{"type":"error","name":"AmountMustBeGreaterThanZero","inputs":[]},{"type":"error","name":"ClaimTimeDoesNotExpired","inputs":[]},{"type":"error","name":"DeployManagerCantBeZeroAddress","inputs":[]},{"type":"error","name":"DepositFailed","inputs":[]},{"type":"error","name":"FailedToDeployManager","inputs":[]},{"type":"error","name":"NotDeployManager","inputs":[]},{"type":"error","name":"NotEnoughFundsInContract","inputs":[]},{"type":"error","name":"NothingToClaim","inputs":[]},{"type":"error","name":"NothingToWithdraw","inputs":[]},{"type":"error","name":"OwnableInvalidOwner","inputs":[{"name":"owner","type":"address","internalType":"address"}]},{"type":"error","name":"OwnableUnauthorizedAccount","inputs":[{"name":"account","type":"address","internalType":"address"}]},{"type":"error","name":"TooLateForClaim","inputs":[]},{"type":"error","name":"TransactionFailed","inputs":[]}],"bytecode":{"object":"0x60808060405234606f573315605c5760018054336001600160a01b0319821681179092556001600160a01b03167f8be0079c531659141344cd1fd0a4f28419497f9722a3daafe3b4186f6b6457e05f80a3610c0d90816100748239f35b631e4fbdf760e01b5f525f60045260245ffd5b5f80fdfe6080806040526004361015610012575f80fd5b5f3560e01c90816301ffc9a71461091857508063158ef93e146108f45780632eb4a7ab146108d75780632f52ebb7146106f657806335fb0ebd1461064a578063439fab91146104795780635912c0461461045c57806364cc74021461032e578063715018a6146102e6578063758e2f9b146102c35780638da5cb5b1461029b578063916dc58e1461027e5780639339402914610103578063b6b55f2514610178578063f2fde38b1461012a578063f7fc87f2146101035763fc0c546a146100d7575f80fd5b346100ff575f3660031901126100ff576002546040516001600160a01b039091168152602090f35b5f80fd5b346100ff575f3660031901126100ff575f546040516001600160a01b039091168152602090f35b346100ff5760203660031901126100ff576101436109c0565b61014b610b90565b6001600160a01b038116156101655761016390610b5b565b005b631e4fbdf760e01b5f525f60045260245ffd5b346100ff5760203660031901126100ff57600435610194610b90565b801561026f576002546040516323b872dd60e01b81523360048201523060248201526044810183905290602090829060649082905f906001600160a01b03165af1908115610264575f91610235575b5015610226576002546040519182526001600160a01b03169033907ff83afbf348a70cd4998dbcfe3957ca3b9cf7f4c7c00e091e4df6f2d541d61c5290602090a3005b6379cacff160e01b5f5260045ffd5b610257915060203d60201161025d575b61024f81836109d6565b810190610a8f565b826101e3565b503d610245565b6040513d5f823e3d90fd5b635e85ae7360e01b5f5260045ffd5b346100ff575f3660031901126100ff576020600554604051908152f35b346100ff575f3660031901126100ff576001546040516001600160a01b039091168152602090f35b346100ff5760206102dc6102d63661096b565b91610ad6565b6040519015158152f35b346100ff575f3660031901126100ff576102fe610b90565b600180546001600160a01b031981169091555f906001600160a01b03165f516020610bb85f395f51905f528280a3005b346100ff575f3660031901126100ff57610346610b90565b600554421061044d576002546040516370a0823160e01b8152306004820152906001600160a01b0316602082602481845afa918215610264575f92610419575b50811561040a5760015460405163a9059cbb60e01b8152926020928492909183915f9183916103c291906001600160a01b031660048401610aa7565b03925af1908115610264575f916103eb575b50156103dc57005b6317f2c34560e31b5f5260045ffd5b610404915060203d60201161025d5761024f81836109d6565b816103d4565b630686827b60e51b5f5260045ffd5b9091506020813d602011610445575b81610435602093836109d6565b810103126100ff57519082610386565b3d9150610428565b633080597f60e21b5f5260045ffd5b346100ff575f3660031901126100ff576020600454604051908152f35b346100ff5760203660031901126100ff576004356001600160401b0381116100ff57366023820112156100ff576004810135906001600160401b03821161063657604051916104d2601f8201601f1916602001846109d6565b808352602083019136602483830101116100ff57815f926024602093018537840101525f549060ff8260a01c166106285760a0838051810103126100ff5761051990610ac2565b9061052660408401610ac2565b92606081015161053d60a060808401519301610ac2565b6001600160a01b03909416948515610619576040516301ffc9a760e01b815263759be8ff60e11b60048201526020816024818a5afa908115610264575f916105fa575b50156105eb576105cd956105bc9460018060a01b031916175f5560018060a01b031660018060a01b031960025416176002556003554290610a6e565b6005556001600160a01b0316610b5b565b5f805460ff60a01b1916600160a01b17905560405160018152602090f35b6317c383ff60e21b5f5260045ffd5b610613915060203d60201161025d5761024f81836109d6565b87610580565b63013d584d60e71b5f5260045ffd5b62dc149f60e41b5f5260045ffd5b634e487b7160e01b5f52604160045260245ffd5b346100ff5760a03660031901126100ff576106636109c0565b6024356001600160a01b038116908190036100ff576084356001600160a01b03811691908290036100ff57604091825191602083019460018060a01b03168552838301526044356060830152606435608083015260a082015260a081526106cb60c0826109d6565b8151928391602083525180918160208501528484015e5f828201840152601f01601f19168101030190f35b346100ff576107043661096b565b9060055442116108c857335f52600660205260ff60405f2054166108b957821561026f57610768916107636040516020810190610754816107468933866109f9565b03601f1981018352826109d6565b51902092600354923691610a19565b610b0a565b156108aa576002546040516370a0823160e01b815230600482015290602090829060249082906001600160a01b03165afa80156102645782915f91610875575b501061086657335f52600660205260405f20600160ff198254161790556107d181600454610a6e565b60045560018060a01b03600254166020604051809263a9059cbb60e01b8252815f81610801883360048401610aa7565b03925af1908115610264575f91610847575b50156103dc576040514281527f9923b4306c6c030f2bdfbf156517d5983b87e15b96176da122cd4f2effa4ba7b60203392a3005b610860915060203d60201161025d5761024f81836109d6565b82610813565b63247e65ad60e01b5f5260045ffd5b9150506020813d6020116108a2575b81610891602093836109d6565b810103126100ff57819051836107a8565b3d9150610884565b6312d37ee560e31b5f5260045ffd5b630c8d9eab60e31b5f5260045ffd5b637d63fef160e01b5f5260045ffd5b346100ff575f3660031901126100ff576020600354604051908152f35b346100ff575f3660031901126100ff57602060ff5f5460a01c166040519015158152f35b346100ff5760203660031901126100ff576004359063ffffffff60e01b82168092036100ff5760209163b4632c6360e01b811490811561095a575b5015158152f35b6301ffc9a760e01b14905083610953565b60406003198201126100ff57600435916024356001600160401b0381116100ff57826023820112156100ff576004810135926001600160401b0384116100ff5760248460051b830101116100ff576024019190565b600435906001600160a01b03821682036100ff57565b601f909101601f19168101906001600160401b0382119082101761063657604052565b60609190911b6001600160601b0319168152601481019190915260340190565b909291906001600160401b038411610636578360051b906020604051610a41828501826109d6565b80968152019181019283116100ff57905b828210610a5e57505050565b8135815260209182019101610a52565b91908201809211610a7b57565b634e487b7160e01b5f52601160045260245ffd5b908160209103126100ff575180151581036100ff5790565b6001600160a01b039091168152602081019190915260400190565b51906001600160a01b03821682036100ff57565b9160055442116108c857610763610afd9360405161075481610746602082019433866109f9565b610b05575f90565b600190565b929091905f915b8451831015610b535760208360051b86010151908181105f14610b42575f52602052600160405f205b920191610b11565b905f52602052600160405f20610b3a565b915092501490565b600180546001600160a01b039283166001600160a01b0319821681179092559091165f516020610bb85f395f51905f525f80a3565b6001546001600160a01b03163303610ba457565b63118cdaa760e01b5f523360045260245ffdfe8be0079c531659141344cd1fd0a4f28419497f9722a3daafe3b4186f6b6457e0a26469706673582212205a9e68ac2172bdda36d5f742ec0aaa3d5dd70d34c19d0dfb09e30c5bea60c11d64736f6c634300081e0033","linkReferences":{}},"methodIdentifiers":{"airdropChecker(uint256,bytes32[])":"758e2f9b","claim(uint256,bytes32[])":"2f52ebb7","deployManager()":"93394029","deposit(uint256)":"b6b55f25","getDeployManager()":"f7fc87f2","getInitData(address,address,bytes32,uint256,address)":"35fb0ebd","initialize(bytes)":"439fab91","initialized()":"158ef93e","merkleRoot()":"2eb4a7ab","owner()":"8da5cb5b","recoverUnclaimed()":"64cc7402","renounceOwnership()":"715018a6","supportsInterface(bytes4)":"01ffc9a7","timeForClaim()":"916dc58e","token()":"fc0c546a","totalTokensClaimed()":"5912c046","transferOwnership(address)":"f2fde38b"},"id":55}