{"abi":[{"type":"constructor","inputs":[{"name":"beneficiary","type":"address","internalType":"address"},{"name":"startTimestamp","type":"uint64","internalType":"uint64"},{"name":"durationSeconds","type":"uint64","internalType":"uint64"}],"stateMutability":"payable"},{"type":"receive","stateMutability":"payable"},{"type":"function","name":"duration","inputs":[],"outputs":[{"name":"","type":"uint256","internalType":"uint256"}],"stateMutability":"view"},{"type":"function","name":"end","inputs":[],"outputs":[{"name":"","type":"uint256","internalType":"uint256"}],"stateMutability":"view"},{"type":"function","name":"owner","inputs":[],"outputs":[{"name":"","type":"address","internalType":"address"}],"stateMutability":"view"},{"type":"function","name":"releasable","inputs":[{"name":"token","type":"address","internalType":"address"}],"outputs":[{"name":"","type":"uint256","internalType":"uint256"}],"stateMutability":"view"},{"type":"function","name":"releasable","inputs":[],"outputs":[{"name":"","type":"uint256","internalType":"uint256"}],"stateMutability":"view"},{"type":"function","name":"release","inputs":[{"name":"token","type":"address","internalType":"address"}],"outputs":[],"stateMutability":"nonpayable"},{"type":"function","name":"release","inputs":[],"outputs":[],"stateMutability":"nonpayable"},{"type":"function","name":"released","inputs":[],"outputs":[{"name":"","type":"uint256","internalType":"uint256"}],"stateMutability":"view"},{"type":"function","name":"released","inputs":[{"name":"token","type":"address","internalType":"address"}],"outputs":[{"name":"","type":"uint256","internalType":"uint256"}],"stateMutability":"view"},{"type":"function","name":"renounceOwnership","inputs":[],"outputs":[],"stateMutability":"nonpayable"},{"type":"function","name":"start","inputs":[],"outputs":[{"name":"","type":"uint256","internalType":"uint256"}],"stateMutability":"view"},{"type":"function","name":"transferOwnership","inputs":[{"name":"newOwner","type":"address","internalType":"address"}],"outputs":[],"stateMutability":"nonpayable"},{"type":"function","name":"vestedAmount","inputs":[{"name":"timestamp","type":"uint64","internalType":"uint64"}],"outputs":[{"name":"","type":"uint256","internalType":"uint256"}],"stateMutability":"view"},{"type":"function","name":"vestedAmount","inputs":[{"name":"token","type":"address","internalType":"address"},{"name":"timestamp","type":"uint64","internalType":"uint64"}],"outputs":[{"name":"","type":"uint256","internalType":"uint256"}],"stateMutability":"view"},{"type":"event","name":"ERC20Released","inputs":[{"name":"token","type":"address","indexed":true,"internalType":"address"},{"name":"amount","type":"uint256","indexed":false,"internalType":"uint256"}],"anonymous":false},{"type":"event","name":"EtherReleased","inputs":[{"name":"amount","type":"uint256","indexed":false,"internalType":"uint256"}],"anonymous":false},{"type":"event","name":"OwnershipTransferred","inputs":[{"name":"previousOwner","type":"address","indexed":true,"internalType":"address"},{"name":"newOwner","type":"address","indexed":true,"internalType":"address"}],"anonymous":false},{"type":"error","name":"FailedCall","inputs":[]},{"type":"error","name":"InsufficientBalance","inputs":[{"name":"balance","type":"uint256","internalType":"uint256"},{"name":"needed","type":"uint256","internalType":"uint256"}]},{"type":"error","name":"OwnableInvalidOwner","inputs":[{"name":"owner","type":"address","internalType":"address"}]},{"type":"error","name":"OwnableUnauthorizedAccount","inputs":[{"name":"account","type":"address","internalType":"address"}]},{"type":"error","name":"SafeERC20FailedOperation","inputs":[{"name":"token","type":"address","internalType":"address"}]}],"bytecode":{"object":"0x60c0601f61095138819003918201601f19168301916001600160401b0383118484101761010b578084926060946040528339810103126101075780516001600160a01b038116919082900361010757610066604061005f6020840161011f565b920161011f565b9082156100f4575f80546001600160a01b031981168517825560405194916001600160a01b03909116907f8be0079c531659141344cd1fd0a4f28419497f9722a3daafe3b4186f6b6457e09080a360805260a05261081d908161013482396080518181816101a6015281816106c801526106fc015260a05181818161050a015281816106a4015261075a0152f35b631e4fbdf760e01b5f525f60045260245ffd5b5f80fd5b634e487b7160e01b5f52604160045260245ffd5b51906001600160401b03821682036101075756fe6080604052600436101561001a575b3615610018575f80fd5b005b5f3560e01c80630a17b06b146105395780630fb5a6b4146104f5578063191655871461040b578063715018a6146103c7578063810ec23b1461038e57806386d1a69f146102745780638da5cb5b1461024d57806396132521146102305780639852595c146101f8578063a3f8eace146101d5578063be9a655514610191578063efbe1c1c14610177578063f2fde38b146101055763fbccedae0361000e5734610101575f366003190112610101576001546020906100f9906100f090426001600160401b0316906100eb9047610586565b6106ed565b60015490610654565b604051908152f35b5f80fd5b346101015760203660031901126101015761011e610570565b6101266107a1565b6001600160a01b03168015610164575f80546001600160a01b03198116831782556001600160a01b0316905f5160206107c85f395f51905f529080a3005b631e4fbdf760e01b5f525f60045260245ffd5b34610101575f3660031901126101015760206100f9610697565b34610101575f366003190112610101576040517f00000000000000000000000000000000000000000000000000000000000000006001600160401b03168152602090f35b346101015760203660031901126101015760206100f96101f3610570565b610661565b34610101576020366003190112610101576001600160a01b03610219610570565b165f526002602052602060405f2054604051908152f35b34610101575f366003190112610101576020600154604051908152f35b34610101575f366003190112610101575f546040516001600160a01b039091168152602090f35b34610101575f366003190112610101576001546102a090426001600160401b0316906100eb9047610586565b6102b76102b06001548093610654565b8092610586565b6001557fda9d4e5f101b8b9b1c5b76d0c5a9f7923571acfc02376aa076b75a8c080c956b6020604051838152a15f546001600160a01b0316478211610377575f80809381935af13d1561036f573d906001600160401b03821161035b576040519161032c601f8201601f1916602001846105a7565b82523d5f602084013e5b1561033d57005b80511561034c57805190602001fd5b63d6bda27560e01b5f5260045ffd5b634e487b7160e01b5f52604160045260245ffd5b606090610336565b504763cf47918160e01b5f5260045260245260445ffd5b34610101576040366003190112610101576103a7610570565b602435906001600160401b0382168203610101576020916100f9916105ca565b34610101575f366003190112610101576103df6107a1565b5f80546001600160a01b0319811682556001600160a01b03165f5160206107c85f395f51905f528280a3005b3461010157602036600319011261010157610424610570565b60205f61043083610661565b9260018060a01b0316928382526002835260408220610450828254610586565b9055837fc0e523490dd523c33b1878c9eb14ff46991e3f5b2cd33710918618f2a39cba1b84604051848152a260018060a01b0382541690604051908482019263a9059cbb60e01b845260248301526044820152604481526104b26064826105a7565b519082855af1156104ea575f513d6104e15750803b155b6104cf57005b635274afe760e01b5f5260045260245ffd5b600114156104c9565b6040513d5f823e3d90fd5b34610101575f366003190112610101576040517f00000000000000000000000000000000000000000000000000000000000000006001600160401b03168152602090f35b34610101576020366003190112610101576004356001600160401b0381168103610101576100f96020916100eb4760015490610586565b600435906001600160a01b038216820361010157565b9190820180921161059357565b634e487b7160e01b5f52601160045260245ffd5b601f909101601f19168101906001600160401b0382119082101761035b57604052565b6040516370a0823160e01b81523060048201526001600160a01b03919091169190602081602481865afa9081156104ea575f91610620575b506100eb9061061d935f52600260205260405f205490610586565b90565b90506020813d60201161064c575b8161063b602093836105a7565b81010312610101575161061d610602565b3d915061062e565b9190820391821161059357565b61061d90610678426001600160401b0316826105ca565b6001600160a01b039091165f9081526002602052604090205490610654565b61061d6001600160401b037f00000000000000000000000000000000000000000000000000000000000000008116907f000000000000000000000000000000000000000000000000000000000000000016610586565b906001600160401b03908116907f0000000000000000000000000000000000000000000000000000000000000000168082101561072b575050505f90565b610733610697565b821061073e57505090565b61074791610654565b90818102918183041490151715610593577f00000000000000000000000000000000000000000000000000000000000000006001600160401b031690811561078d570490565b634e487b7160e01b5f52601260045260245ffd5b5f546001600160a01b031633036107b457565b63118cdaa760e01b5f523360045260245ffdfe8be0079c531659141344cd1fd0a4f28419497f9722a3daafe3b4186f6b6457e0a26469706673582212206de941b77b480e19bf9d76754a7c54a577a2adc913b620e8d759afe1b7b5f8e964736f6c634300081e0033","linkReferences":{}},"methodIdentifiers":{"duration()":"0fb5a6b4","end()":"efbe1c1c","owner()":"8da5cb5b","releasable()":"fbccedae","releasable(address)":"a3f8eace","release()":"86d1a69f","release(address)":"19165587","released()":"96132521","released(address)":"9852595c","renounceOwnership()":"715018a6","start()":"be9a6555","transferOwnership(address)":"f2fde38b","vestedAmount(address,uint64)":"810ec23b","vestedAmount(uint64)":"0a17b06b"},"id":20}