{"abi":[{"type":"constructor","inputs":[{"name":"_initialOwner","type":"address","internalType":"address"}],"stateMutability":"nonpayable"},{"type":"function","name":"approve","inputs":[{"name":"to","type":"address","internalType":"address"},{"name":"tokenId","type":"uint256","internalType":"uint256"}],"outputs":[],"stateMutability":"nonpayable"},{"type":"function","name":"balanceOf","inputs":[{"name":"owner","type":"address","internalType":"address"}],"outputs":[{"name":"","type":"uint256","internalType":"uint256"}],"stateMutability":"view"},{"type":"function","name":"getApproved","inputs":[{"name":"tokenId","type":"uint256","internalType":"uint256"}],"outputs":[{"name":"","type":"address","internalType":"address"}],"stateMutability":"view"},{"type":"function","name":"isApprovedForAll","inputs":[{"name":"owner","type":"address","internalType":"address"},{"name":"operator","type":"address","internalType":"address"}],"outputs":[{"name":"","type":"bool","internalType":"bool"}],"stateMutability":"view"},{"type":"function","name":"name","inputs":[],"outputs":[{"name":"","type":"string","internalType":"string"}],"stateMutability":"view"},{"type":"function","name":"owner","inputs":[],"outputs":[{"name":"","type":"address","internalType":"address"}],"stateMutability":"view"},{"type":"function","name":"ownerOf","inputs":[{"name":"tokenId","type":"uint256","internalType":"uint256"}],"outputs":[{"name":"","type":"address","internalType":"address"}],"stateMutability":"view"},{"type":"function","name":"renounceOwnership","inputs":[],"outputs":[],"stateMutability":"nonpayable"},{"type":"function","name":"safeMint","inputs":[{"name":"to","type":"address","internalType":"address"},{"name":"quantity","type":"uint256","internalType":"uint256"}],"outputs":[],"stateMutability":"nonpayable"},{"type":"function","name":"safeTransferFrom","inputs":[{"name":"from","type":"address","internalType":"address"},{"name":"to","type":"address","internalType":"address"},{"name":"tokenId","type":"uint256","internalType":"uint256"}],"outputs":[],"stateMutability":"nonpayable"},{"type":"function","name":"safeTransferFrom","inputs":[{"name":"from","type":"address","internalType":"address"},{"name":"to","type":"address","internalType":"address"},{"name":"tokenId","type":"uint256","internalType":"uint256"},{"name":"data","type":"bytes","internalType":"bytes"}],"outputs":[],"stateMutability":"nonpayable"},{"type":"function","name":"setApprovalForAll","inputs":[{"name":"operator","type":"address","internalType":"address"},{"name":"approved","type":"bool","internalType":"bool"}],"outputs":[],"stateMutability":"nonpayable"},{"type":"function","name":"supportsInterface","inputs":[{"name":"interfaceId","type":"bytes4","internalType":"bytes4"}],"outputs":[{"name":"","type":"bool","internalType":"bool"}],"stateMutability":"view"},{"type":"function","name":"symbol","inputs":[],"outputs":[{"name":"","type":"string","internalType":"string"}],"stateMutability":"view"},{"type":"function","name":"tokenURI","inputs":[{"name":"tokenId","type":"uint256","internalType":"uint256"}],"outputs":[{"name":"","type":"string","internalType":"string"}],"stateMutability":"view"},{"type":"function","name":"transferFrom","inputs":[{"name":"from","type":"address","internalType":"address"},{"name":"to","type":"address","internalType":"address"},{"name":"tokenId","type":"uint256","internalType":"uint256"}],"outputs":[],"stateMutability":"nonpayable"},{"type":"function","name":"transferOwnership","inputs":[{"name":"newOwner","type":"address","internalType":"address"}],"outputs":[],"stateMutability":"nonpayable"},{"type":"event","name":"Approval","inputs":[{"name":"owner","type":"address","indexed":true,"internalType":"address"},{"name":"approved","type":"address","indexed":true,"internalType":"address"},{"name":"tokenId","type":"uint256","indexed":true,"internalType":"uint256"}],"anonymous":false},{"type":"event","name":"ApprovalForAll","inputs":[{"name":"owner","type":"address","indexed":true,"internalType":"address"},{"name":"operator","type":"address","indexed":true,"internalType":"address"},{"name":"approved","type":"bool","indexed":false,"internalType":"bool"}],"anonymous":false},{"type":"event","name":"OwnershipTransferred","inputs":[{"name":"previousOwner","type":"address","indexed":true,"internalType":"address"},{"name":"newOwner","type":"address","indexed":true,"internalType":"address"}],"anonymous":false},{"type":"event","name":"Transfer","inputs":[{"name":"from","type":"address","indexed":true,"internalType":"address"},{"name":"to","type":"address","indexed":true,"internalType":"address"},{"name":"tokenId","type":"uint256","indexed":true,"internalType":"uint256"}],"anonymous":false},{"type":"error","name":"ERC721IncorrectOwner","inputs":[{"name":"sender","type":"address","internalType":"address"},{"name":"tokenId","type":"uint256","internalType":"uint256"},{"name":"owner","type":"address","internalType":"address"}]},{"type":"error","name":"ERC721InsufficientApproval","inputs":[{"name":"operator","type":"address","internalType":"address"},{"name":"tokenId","type":"uint256","internalType":"uint256"}]},{"type":"error","name":"ERC721InvalidApprover","inputs":[{"name":"approver","type":"address","internalType":"address"}]},{"type":"error","name":"ERC721InvalidOperator","inputs":[{"name":"operator","type":"address","internalType":"address"}]},{"type":"error","name":"ERC721InvalidOwner","inputs":[{"name":"owner","type":"address","internalType":"address"}]},{"type":"error","name":"ERC721InvalidReceiver","inputs":[{"name":"receiver","type":"address","internalType":"address"}]},{"type":"error","name":"ERC721InvalidSender","inputs":[{"name":"sender","type":"address","internalType":"address"}]},{"type":"error","name":"ERC721NonexistentToken","inputs":[{"name":"tokenId","type":"uint256","internalType":"uint256"}]},{"type":"error","name":"OwnableInvalidOwner","inputs":[{"name":"owner","type":"address","internalType":"address"}]},{"type":"error","name":"OwnableUnauthorizedAccount","inputs":[{"name":"account","type":"address","internalType":"address"}]}],"bytecode":{"object":"0x608060405234610385576113f76020813803918261001c81610389565b93849283398101031261038557516001600160a01b03811690819003610385576100466040610389565b90600982526826b7b1b5aa37b5b2b760b91b60208301526100676040610389565b60048152634d54544b60e01b602082015282519091906001600160401b038111610299575f54600181811c9116801561037b575b602082101461027b57601f8111610319575b506020601f82116001146102b857819293945f926102ad575b50508160011b915f199060031b1c1916175f555b81516001600160401b03811161029957600154600181811c9116801561028f575b602082101461027b57601f8111610218575b50602092601f82116001146101b757928192935f926101ac575b50508160011b915f199060031b1c1916176001555b801561019957600680546001600160a01b03198116831790915560405191906001600160a01b03167f8be0079c531659141344cd1fd0a4f28419497f9722a3daafe3b4186f6b6457e05f80a3600160075561104890816103af8239f35b631e4fbdf760e01b5f525f60045260245ffd5b015190505f80610127565b601f1982169360015f52805f20915f5b86811061020057508360019596106101e8575b505050811b0160015561013c565b01515f1960f88460031b161c191690555f80806101da565b919260206001819286850151815501940192016101c7565b60015f527fb10e2d527612073b26eecdfd717e6a320cf44b4afac2b0732d9fcbe2b7fa0cf6601f830160051c81019160208410610271575b601f0160051c01905b818110610266575061010d565b5f8155600101610259565b9091508190610250565b634e487b7160e01b5f52602260045260245ffd5b90607f16906100fb565b634e487b7160e01b5f52604160045260245ffd5b015190505f806100c6565b601f198216905f8052805f20915f5b818110610301575095836001959697106102e9575b505050811b015f556100da565b01515f1960f88460031b161c191690555f80806102dc565b9192602060018192868b0151815501940192016102c7565b5f80527f290decd9548b62a8d60345a988386fc84ba6bc95484008f6362f93160ef3e563601f830160051c81019160208410610371575b601f0160051c01905b81811061036657506100ad565b5f8155600101610359565b9091508190610350565b90607f169061009b565b5f80fd5b6040519190601f01601f191682016001600160401b038111838210176102995760405256fe6080806040526004361015610012575f80fd5b5f3560e01c90816301ffc9a714610b7d5750806306fdde0314610ac5578063081812fc14610a89578063095ea7b31461099f57806323b872dd1461098857806342842e0e146109595780636352211e1461092957806370a08231146108d8578063715018a6146108905780638da5cb5b1461086857806395d89b4114610774578063a144819414610515578063a22cb4651461047a578063b88d4fde146103e4578063c87b56dd146101a5578063e985e9c51461014e5763f2fde38b146100d7575f80fd5b3461014a57602036600319011261014a576100f0610c0c565b6100f8610e58565b6001600160a01b0316801561013757600680546001600160a01b0319811683179091556001600160a01b03165f516020610fd35f395f51905f525f80a3005b631e4fbdf760e01b5f525f60045260245ffd5b5f80fd5b3461014a57604036600319011261014a57610167610c0c565b61016f610c22565b9060018060a01b03165f52600560205260405f209060018060a01b03165f52602052602060ff60405f2054166040519015158152f35b3461014a57602036600319011261014a576004356101c281610e24565b50604051906101d2606083610c72565b603a82527f697066733a2f2f516d504d6334746342734d714c5275435174506d506538346260208301908152790e0a6d4e4866696f26ee86694aeea90b0b28468c2a65e626e60760331b604084015290915f90838072184f03e93ff9f4daa797ed6e38ed64bf6a1f0160401b8110156103be575b50600a906904ee2d6d415b85acef8160201b8110156103a2575b662386f26fc1000081101561038e575b6305f5e10081101561037d575b61271081101561036e575b6064811015610360575b1015610356575b6001820193600a60216102c46102ae88610ca9565b976102bc604051998a610c72565b808952610ca9565b602088019590601f19013687378701015b5f1901916f181899199a1a9b1b9c1cb0b131b232b360811b8282061a83530490811561030357600a906102d5565b5050602061033e92610352956040519586945180918587015e840190838201905f8252519283915e01015f815203601f198101835282610c72565b604051918291602083526020830190610be8565b0390f35b9060010190610299565b606460029104930192610292565b61271060049104930192610288565b6305f5e1006008910493019261027d565b662386f26fc1000060109104930192610270565b602093909301926904ee2d6d415b85acef8160201b9004610260565b6040935072184f03e93ff9f4daa797ed6e38ed64bf6a1f0160401b90049050600a610246565b3461014a57608036600319011261014a576103fd610c0c565b610405610c22565b6064359190604435906001600160401b03841161014a573660238501121561014a5783600401359261043684610ca9565b936104446040519586610c72565b808552366024828801011161014a576020815f92602461047899018389013786010152610472838383610cc4565b33610e7f565b005b3461014a57604036600319011261014a57610493610c0c565b6024359081151580920361014a576001600160a01b031690811561050257335f52600560205260405f20825f5260205260405f2060ff1981541660ff83161790556040519081527f17307eab39ab6107e8899845ad3d59bd9653f200f220920489ca2b5937696c3160203392a3005b50630b61174360e31b5f5260045260245ffd5b3461014a57604036600319011261014a5761052e610c0c565b602435610539610e58565b6001600160a01b038216916020908315908115905f5b85811061055857005b600754905f19821461076057600182016007556040516105788782610c72565b855f825261074d575f8381526002885260409020546001600160a01b031680151590868261072b575b610714575b5f85815260028a526040812080546001600160a01b0319168d17905585908c9083905f516020610ff35f395f51905f529080a450610701578690843b6105f3575b5050600191500161054f565b61062c92936040519384928392630a85bd0160e11b84523360048501525f60248501526044840152608060648401526084830190610be8565b03815f8c5af15f91816106c1575b5061068d5787863d15610686573d61065181610ca9565b9061065f6040519283610c72565b81523d5f8383013e5b805191826106835783633250574960e11b5f5260045260245ffd5b01fd5b6060610668565b6001600160e01b03191663757a42ff60e11b016106ae5760019085896105e7565b86633250574960e11b5f5260045260245ffd5b9091508681813d83116106fa575b6106d98183610c72565b8101031261014a57516001600160e01b03198116810361014a57908961063a565b503d6106cf565b6339e3563760e11b5f525f60045260245ffd5b8a5f526003895260405f20600181540190556105a6565b5061073585610fb5565b805f52600389528660405f205f1981540190556105a1565b633250574960e11b5f525f60045260245ffd5b634e487b7160e01b5f52601160045260245ffd5b3461014a575f36600319011261014a576040515f6001548060011c9060018116801561085e575b60208310811461084a5782855290811561082657506001146107c8575b6103528361033e81850382610c72565b60015f9081527fb10e2d527612073b26eecdfd717e6a320cf44b4afac2b0732d9fcbe2b7fa0cf6939250905b80821061080c5750909150810160200161033e6107b8565b9192600181602092548385880101520191019092916107f4565b60ff191660208086019190915291151560051b8401909101915061033e90506107b8565b634e487b7160e01b5f52602260045260245ffd5b91607f169161079b565b3461014a575f36600319011261014a576006546040516001600160a01b039091168152602090f35b3461014a575f36600319011261014a576108a8610e58565b600680546001600160a01b031981169091555f906001600160a01b03165f516020610fd35f395f51905f528280a3005b3461014a57602036600319011261014a576001600160a01b036108f9610c0c565b168015610916575f526003602052602060405f2054604051908152f35b6322718ad960e21b5f525f60045260245ffd5b3461014a57602036600319011261014a576020610947600435610e24565b6040516001600160a01b039091168152f35b3461014a5761047861096a36610c38565b906040519261097a602085610c72565b5f8452610472838383610cc4565b3461014a5761047861099936610c38565b91610cc4565b3461014a57604036600319011261014a576109b8610c0c565b6024356109c481610e24565b33151580610a76575b80610a49575b610a365781906001600160a01b0384811691167f8c5be1e5ebec7d5bd14f71427d1e84f3dd0314c0f7b2291e5b200ac8c7c3b9255f80a45f90815260046020526040902080546001600160a01b0319166001600160a01b03909216919091179055005b63a9fbf51f60e01b5f523360045260245ffd5b506001600160a01b0381165f90815260056020908152604080832033845290915290205460ff16156109d3565b506001600160a01b0381163314156109cd565b3461014a57602036600319011261014a57600435610aa681610e24565b505f526004602052602060018060a01b0360405f205416604051908152f35b3461014a575f36600319011261014a576040515f5f548060011c90600181168015610b73575b60208310811461084a578285529081156108265750600114610b17576103528361033e81850382610c72565b5f8080527f290decd9548b62a8d60345a988386fc84ba6bc95484008f6362f93160ef3e563939250905b808210610b595750909150810160200161033e6107b8565b919260018160209254838588010152019101909291610b41565b91607f1691610aeb565b3461014a57602036600319011261014a576004359063ffffffff60e01b821680920361014a576020916380ac58cd60e01b8114908115610bd7575b8115610bc6575b5015158152f35b6301ffc9a760e01b14905083610bbf565b635b5e139f60e01b81149150610bb8565b805180835260209291819084018484015e5f828201840152601f01601f1916010190565b600435906001600160a01b038216820361014a57565b602435906001600160a01b038216820361014a57565b606090600319011261014a576004356001600160a01b038116810361014a57906024356001600160a01b038116810361014a579060443590565b601f909101601f19168101906001600160401b03821190821017610c9557604052565b634e487b7160e01b5f52604160045260245ffd5b6001600160401b038111610c9557601f01601f191660200190565b6001600160a01b039091169190821561074d575f828152600260205260409020546001600160a01b031692829033151580610d8f575b5084610d6e575b805f52600360205260405f2060018154019055815f52600260205260405f208160018060a01b0319825416179055845f516020610ff35f395f51905f525f80a46001600160a01b0316808303610d5657505050565b6364283d7b60e01b5f5260045260245260445260645ffd5b610d7782610fb5565b845f52600360205260405f205f198154019055610d01565b90915080610dd3575b15610da55782905f610cfa565b8284610dbd57637e27328960e01b5f5260045260245ffd5b63177e802f60e01b5f523360045260245260445ffd5b503384148015610e02575b80610d9857505f838152600460205260409020546001600160a01b03163314610d98565b505f84815260056020908152604080832033845290915290205460ff16610dde565b5f818152600260205260409020546001600160a01b0316908115610e46575090565b637e27328960e01b5f5260045260245ffd5b6006546001600160a01b03163303610e6c57565b63118cdaa760e01b5f523360045260245ffd5b823b610e8d575b5050505050565b604051630a85bd0160e11b81526001600160a01b039182166004820152918116602483015260448201939093526080606482015291169160209082908190610ed9906084830190610be8565b03815f865af15f9181610f70575b50610f3c57503d15610f35573d610efd81610ca9565b90610f0b6040519283610c72565b81523d5f602083013e5b80519081610f305782633250574960e11b5f5260045260245ffd5b602001fd5b6060610f15565b6001600160e01b03191663757a42ff60e11b01610f5e57505f80808080610e86565b633250574960e11b5f5260045260245ffd5b9091506020813d602011610fad575b81610f8c60209383610c72565b8101031261014a57516001600160e01b03198116810361014a57905f610ee7565b3d9150610f7f565b5f90815260046020526040902080546001600160a01b031916905556fe8be0079c531659141344cd1fd0a4f28419497f9722a3daafe3b4186f6b6457e0ddf252ad1be2c89b69c2b068fc378daa952ba7f163c4a11628f55a4df523b3efa2646970667358221220387ff38ddfea31f1c091ff575d77fae68be689fcfd57a546275290ae3fa3f0bf64736f6c634300081e0033","linkReferences":{}},"methodIdentifiers":{"approve(address,uint256)":"095ea7b3","balanceOf(address)":"70a08231","getApproved(uint256)":"081812fc","isApprovedForAll(address,address)":"e985e9c5","name()":"06fdde03","owner()":"8da5cb5b","ownerOf(uint256)":"6352211e","renounceOwnership()":"715018a6","safeMint(address,uint256)":"a1448194","safeTransferFrom(address,address,uint256)":"42842e0e","safeTransferFrom(address,address,uint256,bytes)":"b88d4fde","setApprovalForAll(address,bool)":"a22cb465","supportsInterface(bytes4)":"01ffc9a7","symbol()":"95d89b41","tokenURI(uint256)":"c87b56dd","transferFrom(address,address,uint256)":"23b872dd","transferOwnership(address)":"f2fde38b"},"id":76}