{"abi":[{"type":"function","name":"setValue","inputs":[{"name":"_value","type":"uint256","internalType":"uint256"}],"outputs":[],"stateMutability":"nonpayable"},{"type":"function","name":"value","inputs":[],"outputs":[{"name":"","type":"uint256","internalType":"uint256"}],"stateMutability":"view"}],"bytecode":{"object":"0x608080604052346013576096908160188239f35b5f80fdfe60808060405260043610156011575f80fd5b5f3560e01c9081633fa4f2451460495750635524107714602f575f80fd5b3460455760203660031901126045576004355f55005b5f80fd5b346045575f3660031901126045576020905f548152f3fea2646970667358221220680fb8ddcc9e06f634be69ad3f6cc949d969e89001394f7c439200476c5179a864736f6c634300081e0033","linkReferences":{}},"methodIdentifiers":{"setValue(uint256)":"55241077","value()":"3fa4f245"},"id":73}