{"abi":[{"type":"constructor","inputs":[],"stateMutability":"payable"},{"type":"function","name":"activateContract","inputs":[{"name":"_address","type":"address","internalType":"address"}],"outputs":[],"stateMutability":"nonpayable"},{"type":"function","name":"addNewContract","inputs":[{"name":"_contractAddress","type":"address","internalType":"address"},{"name":"_fee","type":"uint256","internalType":"uint256"},{"name":"_isActive","type":"bool","internalType":"bool"}],"outputs":[],"stateMutability":"nonpayable"},{"type":"function","name":"contractsData","inputs":[{"name":"","type":"address","internalType":"address"}],"outputs":[{"name":"fee","type":"uint256","internalType":"uint256"},{"name":"isActive","type":"bool","internalType":"bool"},{"name":"registeredAt","type":"uint256","internalType":"uint256"}],"stateMutability":"view"},{"type":"function","name":"deactivateContract","inputs":[{"name":"_address","type":"address","internalType":"address"}],"outputs":[],"stateMutability":"nonpayable"},{"type":"function","name":"deploy","inputs":[{"name":"_utilityContract","type":"address","internalType":"address"},{"name":"_initData","type":"bytes","internalType":"bytes"}],"outputs":[{"name":"","type":"address","internalType":"address"}],"stateMutability":"payable"},{"type":"function","name":"deployedContracts","inputs":[{"name":"","type":"address","internalType":"address"},{"name":"","type":"uint256","internalType":"uint256"}],"outputs":[{"name":"","type":"address","internalType":"address"}],"stateMutability":"view"},{"type":"function","name":"getContractInfo","inputs":[{"name":"_address","type":"address","internalType":"address"}],"outputs":[{"name":"","type":"tuple","internalType":"struct IDeployManager.ContractInfo","components":[{"name":"fee","type":"uint256","internalType":"uint256"},{"name":"isActive","type":"bool","internalType":"bool"},{"name":"registeredAt","type":"uint256","internalType":"uint256"}]}],"stateMutability":"view"},{"type":"function","name":"owner","inputs":[],"outputs":[{"name":"","type":"address","internalType":"address"}],"stateMutability":"view"},{"type":"function","name":"renounceOwnership","inputs":[],"outputs":[],"stateMutability":"nonpayable"},{"type":"function","name":"supportsInterface","inputs":[{"name":"interfaceId","type":"bytes4","internalType":"bytes4"}],"outputs":[{"name":"","type":"bool","internalType":"bool"}],"stateMutability":"view"},{"type":"function","name":"transferOwnership","inputs":[{"name":"newOwner","type":"address","internalType":"address"}],"outputs":[],"stateMutability":"nonpayable"},{"type":"function","name":"updateFee","inputs":[{"name":"_contractAddress","type":"address","internalType":"address"},{"name":"_newFee","type":"uint256","internalType":"uint256"}],"outputs":[],"stateMutability":"nonpayable"},{"type":"event","name":"ContractFeeUpdated","inputs":[{"name":"_contractAddress","type":"address","indexed":true,"internalType":"address"},{"name":"_oldFee","type":"uint256","indexed":false,"internalType":"uint256"},{"name":"_newFee","type":"uint256","indexed":false,"internalType":"uint256"},{"name":"_timestamp","type":"uint256","indexed":false,"internalType":"uint256"}],"anonymous":false},{"type":"event","name":"ContractStatusUpdated","inputs":[{"name":"_contractAddress","type":"address","indexed":true,"internalType":"address"},{"name":"_isActive","type":"bool","indexed":false,"internalType":"bool"},{"name":"_timestamp","type":"uint256","indexed":false,"internalType":"uint256"}],"anonymous":false},{"type":"event","name":"NewContractAdded","inputs":[{"name":"_contractAddress","type":"address","indexed":true,"internalType":"address"},{"name":"_fee","type":"uint256","indexed":false,"internalType":"uint256"},{"name":"_isActive","type":"bool","indexed":false,"internalType":"bool"},{"name":"_timestamp","type":"uint256","indexed":false,"internalType":"uint256"}],"anonymous":false},{"type":"event","name":"NewDeployment","inputs":[{"name":"_deployer","type":"address","indexed":true,"internalType":"address"},{"name":"_contractAddress","type":"address","indexed":true,"internalType":"address"},{"name":"_fee","type":"uint256","indexed":false,"internalType":"uint256"},{"name":"_timestamp","type":"uint256","indexed":false,"internalType":"uint256"}],"anonymous":false},{"type":"event","name":"OwnershipTransferred","inputs":[{"name":"previousOwner","type":"address","indexed":true,"internalType":"address"},{"name":"newOwner","type":"address","indexed":true,"internalType":"address"}],"anonymous":false},{"type":"error","name":"ContractAlreadyRegistered","inputs":[]},{"type":"error","name":"ContractDoesNotActive","inputs":[]},{"type":"error","name":"ContractDoesNotRegistered","inputs":[]},{"type":"error","name":"ContractIsNotUtilityContract","inputs":[]},{"type":"error","name":"FailedDeployment","inputs":[]},{"type":"error","name":"InitializationFailed","inputs":[]},{"type":"error","name":"InsufficientBalance","inputs":[{"name":"balance","type":"uint256","internalType":"uint256"},{"name":"needed","type":"uint256","internalType":"uint256"}]},{"type":"error","name":"NotEnoughFunds","inputs":[]},{"type":"error","name":"OwnableInvalidOwner","inputs":[{"name":"owner","type":"address","internalType":"address"}]},{"type":"error","name":"OwnableUnauthorizedAccount","inputs":[{"name":"account","type":"address","internalType":"address"}]},{"type":"error","name":"TransactionFailed","inputs":[]}],"bytecode":{"object":"0x6080806040523315605a575f8054336001600160a01b0319821681178355916001600160a01b03909116907f8be0079c531659141344cd1fd0a4f28419497f9722a3daafe3b4186f6b6457e09080a36109f0908161006e8239f35b631e4fbdf760e01b5f525f60045260245ffdfe6080806040526004361015610012575f80fd5b5f3560e01c90816301ffc9a714610854575080630d159b3f1461070a57806331a765351461069457806345967555146106325780634d580453146105e3578063670cec3714610569578063715018a6146105255780638da5cb5b146104fe57806394be719714610467578063cd481e51146103db578063e97fac05146101165763f2fde38b146100a0575f80fd5b34610112576020366003190112610112576100b96108a7565b6100c1610954565b6001600160a01b031680156100ff575f80546001600160a01b03198116831782556001600160a01b0316905f51602061099b5f395f51905f529080a3005b631e4fbdf760e01b5f525f60045260245ffd5b5f80fd5b60403660031901126101125761012a6108a7565b602435906001600160401b0382116101125736602383011215610112576004820135906001600160401b0382116101125736602483850101116101125760018060a01b0381165f52600260205260405f2060405190610188826108fe565b80548252600260ff600183015416916020840192151583520154806040840152156103cc5751156103bd575134106103ae5780763d602d80600a3d3981f3363d3d373d3d3d363d7300000062ffffff6e5af43d82803e903d91602b57fd5bf39360881c16175f5260781b1760205260018060a01b03603760095ff01691821561039f576024604460209284604051958694859363439fab9160e01b8552876004860152828286015201848401375f838284010152601f801991011681010301815f865af1908115610394575f91610365575b5015610356575f8080803460018060a01b038254165af13d15610351573d6001600160401b03811161032e576040519061029e601f8201601f191660200183610919565b81525f60203d92013e5b1561034257335f52600160205260405f2090815491600160401b83101561032e57826102db9160016020950181556108bd565b81549060031b9083821b9160018060a01b03901b19161790558060405134815242848201527f4335dea2303bafa4bcabf73562ea6cf86520c11cda707391eac6afaf50c46ab860403392a3604051908152f35b634e487b7160e01b5f52604160045260245ffd5b6317f2c34560e31b5f5260045ffd5b6102a8565b630337323560e31b5f5260045ffd5b610387915060203d60201161038d575b61037f8183610919565b81019061093c565b8261025a565b503d610375565b6040513d5f823e3d90fd5b63b06ebf3d60e01b5f5260045ffd5b631036b5ad60e31b5f5260045ffd5b63ef7e509960e01b5f5260045ffd5b63e87feefd60e01b5f5260045ffd5b34610112576020366003190112610112576103f46108a7565b5f60408051610402816108fe565b828152826020820152015260018060a01b03165f526002602052606060405f2060405161042e816108fe565b8154918282526040600260ff60018401541692602085019315158452015492019182526040519283525115156020830152516040820152f35b34610112576040366003190112610112576104806108a7565b6024359061048c610954565b60018060a01b031690815f526002602052600260405f200154156103cc5760607fae754cde05a89e748dcec68ddb7845dfa44d041f114d95bf8d37338b6e0c9a5d91835f52600260205260405f205490845f5260026020528060405f20556040519182526020820152426040820152a2005b34610112575f366003190112610112575f546040516001600160a01b039091168152602090f35b34610112575f3660031901126101125761053d610954565b5f80546001600160a01b0319811682556001600160a01b03165f51602061099b5f395f51905f528280a3005b34610112576020366003190112610112576105826108a7565b61058a610954565b6001600160a01b03165f8181526002602081905260409091200154156103cc57805f526002602052600160405f2001600160ff198254161790555f51602061097b5f395f51905f526040805160018152426020820152a2005b34610112576020366003190112610112576001600160a01b036106046108a7565b165f52600260205260405f20805461062e600260ff600185015416930154604051938493846108e6565b0390f35b346101125760403660031901126101125761064b6108a7565b6001600160a01b03165f908152600160205260409020805460243591908210156101125760209161067b916108bd565b905460405160039290921b1c6001600160a01b03168152f35b34610112576020366003190112610112576106ad6108a7565b6106b5610954565b6001600160a01b03165f8181526002602081905260409091200154156103cc57805f526002602052600160405f200160ff1981541690555f51602061097b5f395f51905f52604080515f8152426020820152a2005b34610112576060366003190112610112576107236108a7565b6024359060443591821515918284036101125761073e610954565b6040516301ffc9a760e01b815263b4632c6360e01b60048201526001600160a01b03919091169390602081602481885afa908115610394575f91610835575b501561082657835f526002602052600260405f200154610817577f04e5c77ae4e9e5b61ff3abeac1936c96fbd58c0bd1465c73362dccfeb31ee75a926002604051916107c8836108fe565b848352602083019081526040830190428252875f528260205260405f2093518455600184019051151560ff80198354169116179055519101556108126040519283924291846108e6565b0390a2005b6370bc3e8560e01b5f5260045ffd5b63eb2876cd60e01b5f5260045ffd5b61084e915060203d60201161038d5761037f8183610919565b8561077d565b34610112576020366003190112610112576004359063ffffffff60e01b82168092036101125760209163759be8ff60e11b8114908115610896575b5015158152f35b6301ffc9a760e01b1490508361088f565b600435906001600160a01b038216820361011257565b80548210156108d2575f5260205f2001905f90565b634e487b7160e01b5f52603260045260245ffd5b60409194939260608201958252151560208201520152565b606081019081106001600160401b0382111761032e57604052565b601f909101601f19168101906001600160401b0382119082101761032e57604052565b90816020910312610112575180151581036101125790565b5f546001600160a01b0316330361096757565b63118cdaa760e01b5f523360045260245ffdfe434ee15f55ff3aeee926d0d2cdc10861189dfdc47305a9ea5d0504102c4085158be0079c531659141344cd1fd0a4f28419497f9722a3daafe3b4186f6b6457e0a264697066735822122032d102428d0a010a4f0c5b6845647247533843c171cd9dc64d815eb30f82d9c564736f6c634300081e0033","linkReferences":{}},"methodIdentifiers":{"activateContract(address)":"670cec37","addNewContract(address,uint256,bool)":"0d159b3f","contractsData(address)":"4d580453","deactivateContract(address)":"31a76535","deploy(address,bytes)":"e97fac05","deployedContracts(address,uint256)":"45967555","getContractInfo(address)":"cd481e51","owner()":"8da5cb5b","renounceOwnership()":"715018a6","supportsInterface(bytes4)":"01ffc9a7","transferOwnership(address)":"f2fde38b","updateFee(address,uint256)":"94be7197"},"id":65}