{"abi":[{"type":"constructor","inputs":[],"stateMutability":"nonpayable"},{"type":"function","name":"airdropChecker","inputs":[{"name":"tokenIds","type":"uint256[]","internalType":"uint256[]"},{"name":"amounts","type":"uint256[]","internalType":"uint256[]"},{"name":"proof","type":"bytes32[]","internalType":"bytes32[]"}],"outputs":[{"name":"","type":"bool","internalType":"bool"}],"stateMutability":"view"},{"type":"function","name":"claim","inputs":[{"name":"tokenIds","type":"uint256[]","internalType":"uint256[]"},{"name":"amounts","type":"uint256[]","internalType":"uint256[]"},{"name":"proof","type":"bytes32[]","internalType":"bytes32[]"}],"outputs":[],"stateMutability":"nonpayable"},{"type":"function","name":"deployManager","inputs":[],"outputs":[{"name":"","type":"address","internalType":"address"}],"stateMutability":"view"},{"type":"function","name":"deposit","inputs":[{"name":"_tokenIds","type":"uint256[]","internalType":"uint256[]"},{"name":"_amounts","type":"uint256[]","internalType":"uint256[]"}],"outputs":[],"stateMutability":"nonpayable"},{"type":"function","name":"getDeployManager","inputs":[],"outputs":[{"name":"","type":"address","internalType":"address"}],"stateMutability":"view"},{"type":"function","name":"getInitData","inputs":[{"name":"_deployManager","type":"address","internalType":"address"},{"name":"_tokenAddress","type":"address","internalType":"address"},{"name":"_merkleRoot","type":"bytes32","internalType":"bytes32"},{"name":"_timeForClaim","type":"uint256","internalType":"uint256"},{"name":"_owner","type":"address","internalType":"address"}],"outputs":[{"name":"","type":"bytes","internalType":"bytes"}],"stateMutability":"pure"},{"type":"function","name":"initialize","inputs":[{"name":"_initData","type":"bytes","internalType":"bytes"}],"outputs":[{"name":"","type":"bool","internalType":"bool"}],"stateMutability":"nonpayable"},{"type":"function","name":"initialized","inputs":[],"outputs":[{"name":"","type":"bool","internalType":"bool"}],"stateMutability":"view"},{"type":"function","name":"merkleRoot","inputs":[],"outputs":[{"name":"","type":"bytes32","internalType":"bytes32"}],"stateMutability":"view"},{"type":"function","name":"owner","inputs":[],"outputs":[{"name":"","type":"address","internalType":"address"}],"stateMutability":"view"},{"type":"function","name":"recoverUnclaimed","inputs":[{"name":"_tokenIdsToRecover","type":"uint256[]","internalType":"uint256[]"},{"name":"_amountsToRecover","type":"uint256[]","internalType":"uint256[]"}],"outputs":[],"stateMutability":"nonpayable"},{"type":"function","name":"renounceOwnership","inputs":[],"outputs":[],"stateMutability":"nonpayable"},{"type":"function","name":"supportsInterface","inputs":[{"name":"interfaceId","type":"bytes4","internalType":"bytes4"}],"outputs":[{"name":"","type":"bool","internalType":"bool"}],"stateMutability":"view"},{"type":"function","name":"timeForClaim","inputs":[],"outputs":[{"name":"","type":"uint256","internalType":"uint256"}],"stateMutability":"view"},{"type":"function","name":"token","inputs":[],"outputs":[{"name":"","type":"address","internalType":"contract IERC1155"}],"stateMutability":"view"},{"type":"function","name":"totalTokensClaimed","inputs":[],"outputs":[{"name":"","type":"uint256","internalType":"uint256"}],"stateMutability":"view"},{"type":"function","name":"transferOwnership","inputs":[{"name":"newOwner","type":"address","internalType":"address"}],"outputs":[],"stateMutability":"nonpayable"},{"type":"event","name":"DepositMade","inputs":[{"name":"sender","type":"address","indexed":true,"internalType":"address"},{"name":"_tokenIds","type":"uint256[]","indexed":false,"internalType":"uint256[]"},{"name":"_amounts","type":"uint256[]","indexed":false,"internalType":"uint256[]"},{"name":"tokenAddress","type":"address","indexed":true,"internalType":"address"}],"anonymous":false},{"type":"event","name":"OwnershipTransferred","inputs":[{"name":"previousOwner","type":"address","indexed":true,"internalType":"address"},{"name":"newOwner","type":"address","indexed":true,"internalType":"address"}],"anonymous":false},{"type":"event","name":"TokensClaimed","inputs":[{"name":"claimer","type":"address","indexed":true,"internalType":"address"},{"name":"_tokenIds","type":"uint256[]","indexed":false,"internalType":"uint256[]"},{"name":"amounts","type":"uint256[]","indexed":false,"internalType":"uint256[]"},{"name":"timestamp","type":"uint256","indexed":false,"internalType":"uint256"}],"anonymous":false},{"type":"error","name":"AlreadyClaimed","inputs":[]},{"type":"error","name":"AlreadyInitialized","inputs":[]},{"type":"error","name":"AmountCanNotBeZero","inputs":[]},{"type":"error","name":"ClaimTimeDoesNotExpired","inputs":[]},{"type":"error","name":"DeployManagerCantBeZeroAddress","inputs":[]},{"type":"error","name":"FailedToDeployManager","inputs":[]},{"type":"error","name":"IdLengthMustBeGreaterThanZero","inputs":[]},{"type":"error","name":"LengthSizesMismatch","inputs":[]},{"type":"error","name":"NotApprovedForAll","inputs":[]},{"type":"error","name":"NotDeployManager","inputs":[]},{"type":"error","name":"NotEnoughFunds","inputs":[]},{"type":"error","name":"NotEnoughFundsInContract","inputs":[]},{"type":"error","name":"NothingToClaim","inputs":[]},{"type":"error","name":"OwnableInvalidOwner","inputs":[{"name":"owner","type":"address","internalType":"address"}]},{"type":"error","name":"OwnableUnauthorizedAccount","inputs":[{"name":"account","type":"address","internalType":"address"}]},{"type":"error","name":"TokenIdMustBeGreaterThanZero","inputs":[]},{"type":"error","name":"TooLateForClaim","inputs":[]}],"bytecode":{"object":"0x60808060405234606f573315605c5760018054336001600160a01b0319821681179092556001600160a01b03167f8be0079c531659141344cd1fd0a4f28419497f9722a3daafe3b4186f6b6457e05f80a3610f4d90816100748239f35b631e4fbdf760e01b5f525f60045260245ffd5b5f80fdfe6080806040526004361015610012575f80fd5b5f3560e01c90816301ffc9a714610b2157508063158ef93e14610afd5780632eb4a7ab14610ae057806335fb0ebd14610a34578063439fab911461086357806345a7d6ee146107165780635912c046146106f9578063715018a6146106b15780638da5cb5b14610689578063916dc58e1461066c57806393394029146103bc578063f223885a1461045a578063f2d9c2ce14610431578063f2fde38b146103e3578063f7fc87f2146103bc578063f83ea5fa146101035763fc0c546a146100d7575f80fd5b346100ff575f3660031901126100ff576002546040516001600160a01b039091168152602090f35b5f80fd5b346100ff5761011136610c2d565b9060059592955442116103ad57335f52600660205260ff60405f20541661039e57841561038f57858503610380576101829161017d604051602081019061016e816101608c8b8d8c3389610d83565b03601f198101835282610b8a565b51902092600354923691610dba565b610ea6565b1561037157335f52600660205260405f20600160ff198254161790555f5b83811061020157507ff1d323ee56e8f309a833c04e2eb6a2837cca738d7b3e68a6d01fcdd9d194976991846101e46101f29360405196606088526060880191610d5f565b918583036020870152610d5f565b914260408201528033930390a2005b61020c818584610cd0565b35156103625761021d818685610cd0565b3515610353576002546001600160a01b03169061025b6020610240838887610cd0565b3560405180938192627eeac760e11b83523060048401610cf4565b0381865afa908115610308575f91610322575b5061027a828887610cd0565b35116103135761028b818685610cd0565b35610297828887610cd0565b35833b156100ff576102c4935f9283604051809781958294637921219560e11b8452333060048601610d0f565b03925af1918215610308576001926102f8575b506102ef6102e6828887610cd0565b35600454610caf565b600455016101a0565b5f61030291610b8a565b866102d7565b6040513d5f823e3d90fd5b63247e65ad60e01b5f5260045ffd5b90506020813d821161034b575b8161033c60209383610b8a565b810103126100ff57518761026e565b3d915061032f565b63cb9653d560e01b5f5260045ffd5b633852bbb360e21b5f5260045ffd5b6312d37ee560e31b5f5260045ffd5b631a8680db60e31b5f5260045ffd5b63145d0c9360e01b5f5260045ffd5b630c8d9eab60e31b5f5260045ffd5b637d63fef160e01b5f5260045ffd5b346100ff575f3660031901126100ff575f546040516001600160a01b039091168152602090f35b346100ff5760203660031901126100ff576103fc610b74565b610404610e7f565b6001600160a01b0381161561041e5761041c90610e4a565b005b631e4fbdf760e01b5f525f60045260245ffd5b346100ff57602061045061044436610c2d565b94939093929192610e0f565b6040519015158152f35b346100ff5761046836610bdd565b929091610473610e7f565b801561038f5760025460405163e985e9c560e01b815233600482015230602482015290602090829060449082906001600160a01b03165afa908115610308575f9161063d575b501561062e575f5b8181106105275750907f897c832176326f25c9cec617156ba188f6b053b1141d6d0fd90f3e83ea4bf34e9161052260018060a01b036002541695610512604051948594604086526040860191610d5f565b9083820360208501523396610d5f565b0390a3005b610532818385610cd0565b359061053f818787610cd0565b3591821561035357801561036257600254604051627eeac760e11b81526001600160a01b0390911693906020818061057b863360048401610cf4565b0381885afa80156103085782915f916105fa575b50106105eb57833b156100ff576105c1935f9283604051809781958294637921219560e11b8452303360048601610d0f565b03925af1918215610308576001926105db575b50016104c1565b5f6105e591610b8a565b866105d4565b631036b5ad60e31b5f5260045ffd5b9150506020813d8211610626575b8161061560209383610b8a565b810103126100ff578190518a61058f565b3d9150610608565b63cd7769ff60e01b5f5260045ffd5b61065f915060203d602011610665575b6106578183610b8a565b810190610d47565b856104b9565b503d61064d565b346100ff575f3660031901126100ff576020600554604051908152f35b346100ff575f3660031901126100ff576001546040516001600160a01b039091168152602090f35b346100ff575f3660031901126100ff576106c9610e7f565b600180546001600160a01b031981169091555f906001600160a01b03165f516020610ef85f395f51905f528280a3005b346100ff575f3660031901126100ff576020600454604051908152f35b346100ff5761072436610bdd565b91909261072f610e7f565b600554421061085457811561038f57828203610380575f5b82811061075057005b61075b818484610cd0565b3590610768818688610cd0565b35821561036257801561035357600254604051627eeac760e11b81526001600160a01b039091169190602081806107a3883060048401610cf4565b0381865afa80156103085782915f91610820575b5010610313576001546001600160a01b031691803b156100ff576107f6945f809460405197889586948593637921219560e11b85523060048601610d0f565b03925af191821561030857600192610810575b5001610747565b5f61081a91610b8a565b86610809565b9150506020813d821161084c575b8161083b60209383610b8a565b810103126100ff578190518a6107b7565b3d915061082e565b633080597f60e21b5f5260045ffd5b346100ff5760203660031901126100ff576004356001600160401b0381116100ff57366023820112156100ff576004810135906001600160401b038211610a2057604051916108bc601f8201601f191660200184610b8a565b808352602083019136602483830101116100ff57815f926024602093018537840101525f549060ff8260a01c16610a125760a0838051810103126100ff5761090390610c9b565b9061091060408401610c9b565b92606081015161092760a060808401519301610c9b565b6001600160a01b03909416948515610a03576040516301ffc9a760e01b815263759be8ff60e11b60048201526020816024818a5afa908115610308575f916109e4575b50156109d5576109b7956109a69460018060a01b031916175f5560018060a01b031660018060a01b031960025416176002556003554290610caf565b6005556001600160a01b0316610e4a565b5f805460ff60a01b1916600160a01b17905560405160018152602090f35b6317c383ff60e21b5f5260045ffd5b6109fd915060203d602011610665576106578183610b8a565b8761096a565b63013d584d60e71b5f5260045ffd5b62dc149f60e41b5f5260045ffd5b634e487b7160e01b5f52604160045260245ffd5b346100ff5760a03660031901126100ff57610a4d610b74565b6024356001600160a01b038116908190036100ff576084356001600160a01b03811691908290036100ff57604091825191602083019460018060a01b03168552838301526044356060830152606435608083015260a082015260a08152610ab560c082610b8a565b8151928391602083525180918160208501528484015e5f828201840152601f01601f19168101030190f35b346100ff575f3660031901126100ff576020600354604051908152f35b346100ff575f3660031901126100ff57602060ff5f5460a01c166040519015158152f35b346100ff5760203660031901126100ff576004359063ffffffff60e01b82168092036100ff5760209163b4632c6360e01b8114908115610b63575b5015158152f35b6301ffc9a760e01b14905083610b5c565b600435906001600160a01b03821682036100ff57565b601f909101601f19168101906001600160401b03821190821017610a2057604052565b9181601f840112156100ff578235916001600160401b0383116100ff576020808501948460051b0101116100ff57565b60406003198201126100ff576004356001600160401b0381116100ff5781610c0791600401610bad565b90929091602435906001600160401b0382116100ff57610c2991600401610bad565b9091565b60606003198201126100ff576004356001600160401b0381116100ff5781610c5791600401610bad565b909290916024356001600160401b0381116100ff5781610c7991600401610bad565b90929091604435906001600160401b0382116100ff57610c2991600401610bad565b51906001600160a01b03821682036100ff57565b91908201809211610cbc57565b634e487b7160e01b5f52601160045260245ffd5b9190811015610ce05760051b0190565b634e487b7160e01b5f52603260045260245ffd5b6001600160a01b039091168152602081019190915260400190565b6001600160a01b039182168152911660208201526040810191909152606081019190915260a0608082018190525f9082015260c00190565b908160209103126100ff575180151581036100ff5790565b81835290916001600160fb1b0383116100ff5760209260051b809284830137010190565b9391610db79593610da99260018060a01b03168652606060208701526060860191610d5f565b926040818503910152610d5f565b90565b909291906001600160401b038411610a20578360051b906020604051610de282850182610b8a565b80968152019181019283116100ff57905b828210610dff57505050565b8135815260209182019101610df3565b909194929460055442116103ad5761016e61017d93610160610e3d9860405194859360208501973389610d83565b610e45575f90565b600190565b600180546001600160a01b039283166001600160a01b0319821681179092559091165f516020610ef85f395f51905f525f80a3565b6001546001600160a01b03163303610e9357565b63118cdaa760e01b5f523360045260245ffd5b929091905f915b8451831015610eef5760208360051b86010151908181105f14610ede575f52602052600160405f205b920191610ead565b905f52602052600160405f20610ed6565b91509250149056fe8be0079c531659141344cd1fd0a4f28419497f9722a3daafe3b4186f6b6457e0a2646970667358221220a411d03f824877873cf26858e84d9fd52067b033b874a9b781a628866c74fcf064736f6c634300081e0033","linkReferences":{}},"methodIdentifiers":{"airdropChecker(uint256[],uint256[],bytes32[])":"f2d9c2ce","claim(uint256[],uint256[],bytes32[])":"f83ea5fa","deployManager()":"93394029","deposit(uint256[],uint256[])":"f223885a","getDeployManager()":"f7fc87f2","getInitData(address,address,bytes32,uint256,address)":"35fb0ebd","initialize(bytes)":"439fab91","initialized()":"158ef93e","merkleRoot()":"2eb4a7ab","owner()":"8da5cb5b","recoverUnclaimed(uint256[],uint256[])":"45a7d6ee","renounceOwnership()":"715018a6","supportsInterface(bytes4)":"01ffc9a7","timeForClaim()":"916dc58e","token()":"fc0c546a","totalTokensClaimed()":"5912c046","transferOwnership(address)":"f2fde38b"},"id":51}