{"abi":[{"type":"constructor","inputs":[],"stateMutability":"nonpayable"},{"type":"function","name":"airdropChecker","inputs":[{"name":"_tokenId","type":"uint256","internalType":"uint256"},{"name":"proof","type":"bytes32[]","internalType":"bytes32[]"}],"outputs":[{"name":"","type":"bool","internalType":"bool"}],"stateMutability":"view"},{"type":"function","name":"claim","inputs":[{"name":"_tokenId","type":"uint256","internalType":"uint256"},{"name":"proof","type":"bytes32[]","internalType":"bytes32[]"}],"outputs":[],"stateMutability":"nonpayable"},{"type":"function","name":"deployManager","inputs":[],"outputs":[{"name":"","type":"address","internalType":"address"}],"stateMutability":"view"},{"type":"function","name":"deposit","inputs":[{"name":"_tokenIds","type":"uint256[]","internalType":"uint256[]"}],"outputs":[],"stateMutability":"nonpayable"},{"type":"function","name":"getDeployManager","inputs":[],"outputs":[{"name":"","type":"address","internalType":"address"}],"stateMutability":"view"},{"type":"function","name":"getInitData","inputs":[{"name":"_deployManager","type":"address","internalType":"address"},{"name":"_tokenAddress","type":"address","internalType":"address"},{"name":"_merkleRoot","type":"bytes32","internalType":"bytes32"},{"name":"_timeForClaim","type":"uint256","internalType":"uint256"},{"name":"_owner","type":"address","internalType":"address"}],"outputs":[{"name":"","type":"bytes","internalType":"bytes"}],"stateMutability":"pure"},{"type":"function","name":"initialize","inputs":[{"name":"_initData","type":"bytes","internalType":"bytes"}],"outputs":[{"name":"","type":"bool","internalType":"bool"}],"stateMutability":"nonpayable"},{"type":"function","name":"initialized","inputs":[],"outputs":[{"name":"","type":"bool","internalType":"bool"}],"stateMutability":"view"},{"type":"function","name":"merkleRoot","inputs":[],"outputs":[{"name":"","type":"bytes32","internalType":"bytes32"}],"stateMutability":"view"},{"type":"function","name":"owner","inputs":[],"outputs":[{"name":"","type":"address","internalType":"address"}],"stateMutability":"view"},{"type":"function","name":"recoverUnclaimed","inputs":[{"name":"_tokenIdsToRecover","type":"uint256[]","internalType":"uint256[]"}],"outputs":[],"stateMutability":"nonpayable"},{"type":"function","name":"renounceOwnership","inputs":[],"outputs":[],"stateMutability":"nonpayable"},{"type":"function","name":"supportsInterface","inputs":[{"name":"interfaceId","type":"bytes4","internalType":"bytes4"}],"outputs":[{"name":"","type":"bool","internalType":"bool"}],"stateMutability":"view"},{"type":"function","name":"timeForClaim","inputs":[],"outputs":[{"name":"","type":"uint256","internalType":"uint256"}],"stateMutability":"view"},{"type":"function","name":"token","inputs":[],"outputs":[{"name":"","type":"address","internalType":"contract IERC721"}],"stateMutability":"view"},{"type":"function","name":"totalNFTsClaimed","inputs":[],"outputs":[{"name":"","type":"uint256","internalType":"uint256"}],"stateMutability":"view"},{"type":"function","name":"transferOwnership","inputs":[{"name":"newOwner","type":"address","internalType":"address"}],"outputs":[],"stateMutability":"nonpayable"},{"type":"event","name":"DepositMade","inputs":[{"name":"sender","type":"address","indexed":true,"internalType":"address"},{"name":"_tokenIds","type":"uint256[]","indexed":false,"internalType":"uint256[]"},{"name":"tokenAddress","type":"address","indexed":true,"internalType":"address"}],"anonymous":false},{"type":"event","name":"NFTClaimed","inputs":[{"name":"claimer","type":"address","indexed":true,"internalType":"address"},{"name":"_tokenId","type":"uint256","indexed":true,"internalType":"uint256"},{"name":"timestamp","type":"uint256","indexed":false,"internalType":"uint256"}],"anonymous":false},{"type":"event","name":"OwnershipTransferred","inputs":[{"name":"previousOwner","type":"address","indexed":true,"internalType":"address"},{"name":"newOwner","type":"address","indexed":true,"internalType":"address"}],"anonymous":false},{"type":"error","name":"AlreadyClaimed","inputs":[]},{"type":"error","name":"AlreadyInitialized","inputs":[]},{"type":"error","name":"ClaimTimeDoesNotExpired","inputs":[]},{"type":"error","name":"DeployManagerCantBeZeroAddress","inputs":[]},{"type":"error","name":"FailedToDeployManager","inputs":[]},{"type":"error","name":"IdLengthMustBeGreaterThanZero","inputs":[]},{"type":"error","name":"NFTNotOwnedByContract","inputs":[]},{"type":"error","name":"NFTsNotApprovedForAll","inputs":[]},{"type":"error","name":"NotDeployManager","inputs":[]},{"type":"error","name":"NothingToClaim","inputs":[]},{"type":"error","name":"NothingToWithdraw","inputs":[]},{"type":"error","name":"OwnableInvalidOwner","inputs":[{"name":"owner","type":"address","internalType":"address"}]},{"type":"error","name":"OwnableUnauthorizedAccount","inputs":[{"name":"account","type":"address","internalType":"address"}]},{"type":"error","name":"TokenIdMustBeGreaterThanZero","inputs":[]},{"type":"error","name":"TooLateForClaim","inputs":[]},{"type":"error","name":"TransactionFailed","inputs":[]}],"bytecode":{"object":"0x60808060405234606f573315605c5760018054336001600160a01b0319821681179092556001600160a01b03167f8be0079c531659141344cd1fd0a4f28419497f9722a3daafe3b4186f6b6457e05f80a3610df090816100748239f35b631e4fbdf760e01b5f525f60045260245ffd5b5f80fdfe6080806040526004361015610012575f80fd5b5f905f3560e01c90816301ffc9a714610ab057508063158ef93e14610a8c5780632eb4a7ab14610a6f5780632f52ebb71461086c57806335fb0ebd146107c0578063439fab91146105d3578063598b8e71146103f6578063715018a6146103ac578063758e2f9b146103885780638da5cb5b1461035f578063916dc58e146103415780639339402914610104578063a85046ec1461019a578063e0a511261461017c578063f2fde38b1461012b578063f7fc87f2146101045763fc0c546a146100d9575f80fd5b346101015780600319360112610101576002546040516001600160a01b039091168152602090f35b80fd5b5034610101578060031936011261010157546040516001600160a01b039091168152602090f35b503461010157602036600319011261010157610145610b66565b61014d610d73565b6001600160a01b038116156101685761016590610d3e565b80f35b631e4fbdf760e01b82526004829052602482fd5b50346101015780600319360112610101576020600454604051908152f35b5034610101576020366003190112610101576004356001600160401b03811161033d576101cb903690600401610b03565b6101d3610d73565b600554421061032e57801561031f57825b8181106101ef578380f35b6101fa818385610c95565b358015610310576002546040516331a9108f60e11b8152600481018390526001600160a01b039091169190602081602481865afa9081156103055787916102d7575b50306001600160a01b03909116036102c8576001548692916001600160a01b0390911690823b156102b95761028b92849283604051809681958294632142170760e11b84523060048501610c47565b03925af180156102bd576102a4575b50506001016101e4565b816102ae91610b7c565b6102b957835f61029a565b8380fd5b6040513d84823e3d90fd5b635c05403d60e11b8652600486fd5b6102f8915060203d81116102fe575b6102f08183610b7c565b810190610c28565b5f61023c565b503d6102e6565b6040513d89823e3d90fd5b633852bbb360e21b8552600485fd5b63145d0c9360e01b8352600483fd5b633080597f60e21b8352600483fd5b5080fd5b50346101015780600319360112610101576020600554604051908152f35b50346101015780600319360112610101576001546040516001600160a01b039091168152602090f35b50346101015760206103a261039c36610b33565b91610cb9565b6040519015158152f35b50346101015780600319360112610101576103c5610d73565b600180546001600160a01b0319811690915581906001600160a01b03165f516020610d9b5f395f51905f528280a380f35b5034610101576020366003190112610101576004356001600160401b03811161033d57610427903690600401610b03565b90610430610d73565b811561031f5760025460405163e985e9c560e01b815233600482015230602482015290602090829060449082906001600160a01b03165afa9081156105c8578491610599575b501561058a57825b8281106104ef5750600254604051602080825281018490526001600160a01b0390911692906001600160fb1b0382116104eb577f54a4b4136f8341b033309dc5099fa3dfe6821b75956d5476fff985362b95834d9160051b8093604083013760408133948101030190a380f35b8480fd5b6104fa818484610c95565b351561057b5760025484906001600160a01b0316610519838686610c95565b3590803b1561057757604051632142170760e11b8152918391839182908490829061054990303360048501610c47565b03925af180156102bd57610562575b505060010161047e565b8161056c91610b7c565b6102b957835f610558565b8280fd5b633852bbb360e21b8452600484fd5b6368b391ad60e01b8352600483fd5b6105bb915060203d6020116105c1575b6105b38183610b7c565b810190610c7d565b5f610476565b503d6105a9565b6040513d86823e3d90fd5b5034610101576020366003190112610101576004356001600160401b03811161033d573660238201121561033d576004810135906001600160401b0382116107ac57826040519161062e6020601f19601f8701160184610b7c565b83835260208301933660248284010111610577578060246020930186378301015282549160ff8360a01c1661079e5760a0828051810103126102b95761067390610c69565b9161068060408301610c69565b60608301519161069760a060808601519501610c69565b946001600160a01b031690811561078f576040516301ffc9a760e01b815263759be8ff60e11b6004820152602081602481865afa908115610784578891610765575b50156107565760018060a01b03191617855560018060a01b031660018060a01b0319600254161760025560035542810180911161074257600555610725906001600160a01b0316610d3e565b805460ff60a01b1916600160a01b17905560405160018152602090f35b634e487b7160e01b83526011600452602483fd5b6317c383ff60e21b8752600487fd5b61077e915060203d6020116105c1576105b38183610b7c565b5f6106d9565b6040513d8a823e3d90fd5b63013d584d60e71b8752600487fd5b62dc149f60e41b8452600484fd5b634e487b7160e01b83526041600452602483fd5b50346101015760a0366003190112610101576107da610b66565b6024356001600160a01b03811690819003610577576084356001600160a01b03811692908390036102b957604092835192602084019260018060a01b03168352848401526044356060840152606435608084015260a083015260a0825261084260c083610b7c565b8251938492602084525180928160208601528585015e828201840152601f01601f19168101030190f35b50346109ed5761087b36610b33565b906005544211610a6057335f52600660205260ff60405f205416610a51578215610a42576108df916108da60405160208101906108cb816108bd893386610bb3565b03601f198101835282610b7c565b51902092600354923691610bd3565b610ced565b15610a33576002546040516331a9108f60e11b81526004810183905290602090829060249082906001600160a01b03165afa9081156109e2575f91610a14575b50306001600160a01b0390911603610a0557335f52600660205260405f20600160ff19825416179055600454600181018091116109f1576004556002546001600160a01b0316803b156109ed575f6040518092632142170760e11b825281838161098e88333060048501610c47565b03925af180156109e2576109cd575b506040514281527fd93bbb9e10b7af5aa4b410ac845ae87a717d305e8a4777959ad1dd06e6a1ac9860203392a380f35b6109da9192505f90610b7c565b5f905f61099d565b6040513d5f823e3d90fd5b5f80fd5b634e487b7160e01b5f52601160045260245ffd5b635c05403d60e11b5f5260045ffd5b610a2d915060203d6020116102fe576102f08183610b7c565b5f61091f565b6312d37ee560e31b5f5260045ffd5b633852bbb360e21b5f5260045ffd5b630c8d9eab60e31b5f5260045ffd5b637d63fef160e01b5f5260045ffd5b346109ed575f3660031901126109ed576020600354604051908152f35b346109ed575f3660031901126109ed57602060ff5f5460a01c166040519015158152f35b346109ed5760203660031901126109ed576004359063ffffffff60e01b82168092036109ed5760209163b4632c6360e01b8114908115610af2575b5015158152f35b6301ffc9a760e01b14905083610aeb565b9181601f840112156109ed578235916001600160401b0383116109ed576020808501948460051b0101116109ed57565b9060406003198301126109ed5760043591602435906001600160401b0382116109ed57610b6291600401610b03565b9091565b600435906001600160a01b03821682036109ed57565b601f909101601f19168101906001600160401b03821190821017610b9f57604052565b634e487b7160e01b5f52604160045260245ffd5b60609190911b6001600160601b0319168152601481019190915260340190565b909291906001600160401b038411610b9f578360051b906020604051610bfb82850182610b7c565b80968152019181019283116109ed57905b828210610c1857505050565b8135815260209182019101610c0c565b908160209103126109ed57516001600160a01b03811681036109ed5790565b6001600160a01b03918216815291166020820152604081019190915260600190565b51906001600160a01b03821682036109ed57565b908160209103126109ed575180151581036109ed5790565b9190811015610ca55760051b0190565b634e487b7160e01b5f52603260045260245ffd5b916005544211610a60576108da610ce0936040516108cb816108bd60208201943386610bb3565b610ce8575f90565b600190565b929091905f915b8451831015610d365760208360051b86010151908181105f14610d25575f52602052600160405f205b920191610cf4565b905f52602052600160405f20610d1d565b915092501490565b600180546001600160a01b039283166001600160a01b0319821681179092559091165f516020610d9b5f395f51905f525f80a3565b6001546001600160a01b03163303610d8757565b63118cdaa760e01b5f523360045260245ffdfe8be0079c531659141344cd1fd0a4f28419497f9722a3daafe3b4186f6b6457e0a2646970667358221220c8d5a68a1e36dbec376c82578e701fb16e166d3c19f9a9bb0050914ee8078bff64736f6c634300081e0033","linkReferences":{}},"methodIdentifiers":{"airdropChecker(uint256,bytes32[])":"758e2f9b","claim(uint256,bytes32[])":"2f52ebb7","deployManager()":"93394029","deposit(uint256[])":"598b8e71","getDeployManager()":"f7fc87f2","getInitData(address,address,bytes32,uint256,address)":"35fb0ebd","initialize(bytes)":"439fab91","initialized()":"158ef93e","merkleRoot()":"2eb4a7ab","owner()":"8da5cb5b","recoverUnclaimed(uint256[])":"a85046ec","renounceOwnership()":"715018a6","supportsInterface(bytes4)":"01ffc9a7","timeForClaim()":"916dc58e","token()":"fc0c546a","totalNFTsClaimed()":"e0a51126","transferOwnership(address)":"f2fde38b"},"id":57}