{"abi":[{"type":"constructor","inputs":[],"stateMutability":"payable"},{"type":"function","name":"MAX_AIRDROP_ITERATIONS","inputs":[],"outputs":[{"name":"","type":"uint256","internalType":"uint256"}],"stateMutability":"view"},{"type":"function","name":"airdrop","inputs":[{"name":"receivers","type":"address[]","internalType":"address[]"},{"name":"tokenIds","type":"uint256[]","internalType":"uint256[]"}],"outputs":[],"stateMutability":"nonpayable"},{"type":"function","name":"deployManager","inputs":[],"outputs":[{"name":"","type":"address","internalType":"address"}],"stateMutability":"view"},{"type":"function","name":"getDeployManager","inputs":[],"outputs":[{"name":"","type":"address","internalType":"address"}],"stateMutability":"view"},{"type":"function","name":"getInitData","inputs":[{"name":"_deployManager","type":"address","internalType":"address"},{"name":"_token","type":"address","internalType":"address"},{"name":"_treasury","type":"address","internalType":"address"},{"name":"_owner","type":"address","internalType":"address"}],"outputs":[{"name":"","type":"bytes","internalType":"bytes"}],"stateMutability":"pure"},{"type":"function","name":"initialize","inputs":[{"name":"_initData","type":"bytes","internalType":"bytes"}],"outputs":[{"name":"","type":"bool","internalType":"bool"}],"stateMutability":"nonpayable"},{"type":"function","name":"initialized","inputs":[],"outputs":[{"name":"","type":"bool","internalType":"bool"}],"stateMutability":"view"},{"type":"function","name":"owner","inputs":[],"outputs":[{"name":"","type":"address","internalType":"address"}],"stateMutability":"view"},{"type":"function","name":"renounceOwnership","inputs":[],"outputs":[],"stateMutability":"nonpayable"},{"type":"function","name":"supportsInterface","inputs":[{"name":"interfaceId","type":"bytes4","internalType":"bytes4"}],"outputs":[{"name":"","type":"bool","internalType":"bool"}],"stateMutability":"view"},{"type":"function","name":"token","inputs":[],"outputs":[{"name":"","type":"address","internalType":"contract IERC721"}],"stateMutability":"view"},{"type":"function","name":"transferOwnership","inputs":[{"name":"newOwner","type":"address","internalType":"address"}],"outputs":[],"stateMutability":"nonpayable"},{"type":"function","name":"treasury","inputs":[],"outputs":[{"name":"","type":"address","internalType":"address"}],"stateMutability":"view"},{"type":"event","name":"AirdropSent","inputs":[{"name":"timestamp","type":"uint256","indexed":false,"internalType":"uint256"}],"anonymous":false},{"type":"event","name":"OwnershipTransferred","inputs":[{"name":"previousOwner","type":"address","indexed":true,"internalType":"address"},{"name":"newOwner","type":"address","indexed":true,"internalType":"address"}],"anonymous":false},{"type":"error","name":"AlreadyInitialized","inputs":[]},{"type":"error","name":"ArraysLengthMismatch","inputs":[]},{"type":"error","name":"DeployManagerCantBeZeroAddress","inputs":[]},{"type":"error","name":"FailedToDeployManager","inputs":[]},{"type":"error","name":"IterationsQuantityMismatch","inputs":[]},{"type":"error","name":"NeedToApproveTokens","inputs":[]},{"type":"error","name":"NotDeployManager","inputs":[]},{"type":"error","name":"OwnableInvalidOwner","inputs":[{"name":"owner","type":"address","internalType":"address"}]},{"type":"error","name":"OwnableUnauthorizedAccount","inputs":[{"name":"account","type":"address","internalType":"address"}]}],"bytecode":{"object":"0x608080604052331560585760018054336001600160a01b0319821681179092556001600160a01b03167f8be0079c531659141344cd1fd0a4f28419497f9722a3daafe3b4186f6b6457e05f80a361083d908161006c8239f35b631e4fbdf760e01b5f525f60045260245ffdfe6080806040526004361015610012575f80fd5b5f3560e01c90816301ffc9a71461067f575080631431f87a146105c9578063158ef93e146105a55780633318cc0d1461058a578063439fab91146103c457806361d027b31461039c57806367243482146101bc578063715018a6146101745780638da5cb5b1461014c57806393394029146100d7578063f2fde38b146100fe578063f7fc87f2146100d75763fc0c546a146100ab575f80fd5b346100d3575f3660031901126100d3576002546040516001600160a01b039091168152602090f35b5f80fd5b346100d3575f3660031901126100d3575f546040516001600160a01b039091168152602090f35b346100d35760203660031901126100d3576101176106d2565b61011f6107c0565b6001600160a01b03811615610139576101379061078b565b005b631e4fbdf760e01b5f525f60045260245ffd5b346100d3575f3660031901126100d3576001546040516001600160a01b039091168152602090f35b346100d3575f3660031901126100d35761018c6107c0565b600180546001600160a01b031981169091555f906001600160a01b03165f5160206107e85f395f51905f528280a3005b346100d35760403660031901126100d3576004356001600160401b0381116100d3576101ec90369060040161070b565b6024356001600160401b0381116100d35761020b90369060040161070b565b906102146107c0565b8160071061038d5781830361037e5760025460035460405163e985e9c560e01b81526001600160a01b03918216600482018190523060248301529492909160209183916044918391165afa908115610335575f9161034f575b5015610340575f5b8181106102a8577fd2cdffe9bbf70e401e40463c2a814df41590a33d34303f1f7f765008e629789f6020604051428152a1005b6002546001600160a01b0316906102c0818789610767565b356001600160a01b038116908190036100d3576102de828587610767565b35833b156100d35760645f92836040519687948593632142170760e11b85528c6004860152602485015260448401525af191821561033557600192610325575b5001610275565b5f61032f916106e8565b8761031e565b6040513d5f823e3d90fd5b634dd67ecd60e11b5f5260045ffd5b610371915060203d602011610377575b61036981836106e8565b81019061074f565b8661026d565b503d61035f565b6307e11acb60e51b5f5260045ffd5b63357bdd4f60e01b5f5260045ffd5b346100d3575f3660031901126100d3576003546040516001600160a01b039091168152602090f35b346100d35760203660031901126100d3576004356001600160401b0381116100d357366023820112156100d35760048101356001600160401b038111610576576040519061041c601f8201601f1916602001836106e8565b808252602082019236602483830101116100d357815f926024602093018637830101525f549160ff8360a01c16610568576080828051810103126100d3576104639061073b565b906104706040820161073b565b61048860806104816060850161073b565b930161073b565b926001600160a01b03168015610559576040516301ffc9a760e01b815263759be8ff60e11b6004820152602081602481855afa908115610335575f9161053a575b501561052b576001600160a01b0319948516175f556002805485166001600160a01b03928316179055600380549094169181169190911790925561050d911661078b565b5f805460ff60a01b1916600160a01b17905560405160018152602090f35b6317c383ff60e21b5f5260045ffd5b610553915060203d6020116103775761036981836106e8565b866104c9565b63013d584d60e71b5f5260045ffd5b62dc149f60e41b5f5260045ffd5b634e487b7160e01b5f52604160045260245ffd5b346100d3575f3660031901126100d357602060405160078152f35b346100d3575f3660031901126100d357602060ff5f5460a01c166040519015158152f35b346100d35760803660031901126100d3576105e26106d2565b6024356001600160a01b038116908190036100d3576044356001600160a01b03811691908290036100d3576064356001600160a01b038116908190036100d357604092835192602084019560018060a01b0316865284840152606083015260808201526080815261065460a0826106e8565b8151928391602083525180918160208501528484015e5f828201840152601f01601f19168101030190f35b346100d35760203660031901126100d3576004359063ffffffff60e01b82168092036100d35760209163b4632c6360e01b81149081156106c1575b5015158152f35b6301ffc9a760e01b149050836106ba565b600435906001600160a01b03821682036100d357565b601f909101601f19168101906001600160401b0382119082101761057657604052565b9181601f840112156100d3578235916001600160401b0383116100d3576020808501948460051b0101116100d357565b51906001600160a01b03821682036100d357565b908160209103126100d3575180151581036100d35790565b91908110156107775760051b0190565b634e487b7160e01b5f52603260045260245ffd5b600180546001600160a01b039283166001600160a01b0319821681179092559091165f5160206107e85f395f51905f525f80a3565b6001546001600160a01b031633036107d457565b63118cdaa760e01b5f523360045260245ffdfe8be0079c531659141344cd1fd0a4f28419497f9722a3daafe3b4186f6b6457e0a26469706673582212208c05b65821f7681ee00dbbda3f818f2341fdc61edff752e3ae88519f761a732464736f6c634300081e0033","linkReferences":{}},"methodIdentifiers":{"MAX_AIRDROP_ITERATIONS()":"3318cc0d","airdrop(address[],uint256[])":"67243482","deployManager()":"93394029","getDeployManager()":"f7fc87f2","getInitData(address,address,address,address)":"1431f87a","initialize(bytes)":"439fab91","initialized()":"158ef93e","owner()":"8da5cb5b","renounceOwnership()":"715018a6","supportsInterface(bytes4)":"01ffc9a7","token()":"fc0c546a","transferOwnership(address)":"f2fde38b","treasury()":"61d027b3"},"id":69}