{"abi":[{"type":"constructor","inputs":[{"name":"initialOwner","type":"address","internalType":"address"}],"stateMutability":"nonpayable"},{"type":"function","name":"balanceOf","inputs":[{"name":"account","type":"address","internalType":"address"},{"name":"id","type":"uint256","internalType":"uint256"}],"outputs":[{"name":"","type":"uint256","internalType":"uint256"}],"stateMutability":"view"},{"type":"function","name":"balanceOfBatch","inputs":[{"name":"accounts","type":"address[]","internalType":"address[]"},{"name":"ids","type":"uint256[]","internalType":"uint256[]"}],"outputs":[{"name":"","type":"uint256[]","internalType":"uint256[]"}],"stateMutability":"view"},{"type":"function","name":"isApprovedForAll","inputs":[{"name":"account","type":"address","internalType":"address"},{"name":"operator","type":"address","internalType":"address"}],"outputs":[{"name":"","type":"bool","internalType":"bool"}],"stateMutability":"view"},{"type":"function","name":"mint","inputs":[{"name":"account","type":"address","internalType":"address"},{"name":"id","type":"uint256","internalType":"uint256"},{"name":"amount","type":"uint256","internalType":"uint256"},{"name":"data","type":"bytes","internalType":"bytes"}],"outputs":[],"stateMutability":"nonpayable"},{"type":"function","name":"mintBatch","inputs":[{"name":"to","type":"address","internalType":"address"},{"name":"ids","type":"uint256[]","internalType":"uint256[]"},{"name":"amounts","type":"uint256[]","internalType":"uint256[]"},{"name":"data","type":"bytes","internalType":"bytes"}],"outputs":[],"stateMutability":"nonpayable"},{"type":"function","name":"owner","inputs":[],"outputs":[{"name":"","type":"address","internalType":"address"}],"stateMutability":"view"},{"type":"function","name":"renounceOwnership","inputs":[],"outputs":[],"stateMutability":"nonpayable"},{"type":"function","name":"safeBatchTransferFrom","inputs":[{"name":"from","type":"address","internalType":"address"},{"name":"to","type":"address","internalType":"address"},{"name":"ids","type":"uint256[]","internalType":"uint256[]"},{"name":"values","type":"uint256[]","internalType":"uint256[]"},{"name":"data","type":"bytes","internalType":"bytes"}],"outputs":[],"stateMutability":"nonpayable"},{"type":"function","name":"safeTransferFrom","inputs":[{"name":"from","type":"address","internalType":"address"},{"name":"to","type":"address","internalType":"address"},{"name":"id","type":"uint256","internalType":"uint256"},{"name":"value","type":"uint256","internalType":"uint256"},{"name":"data","type":"bytes","internalType":"bytes"}],"outputs":[],"stateMutability":"nonpayable"},{"type":"function","name":"setApprovalForAll","inputs":[{"name":"operator","type":"address","internalType":"address"},{"name":"approved","type":"bool","internalType":"bool"}],"outputs":[],"stateMutability":"nonpayable"},{"type":"function","name":"setURI","inputs":[{"name":"newuri","type":"string","internalType":"string"}],"outputs":[],"stateMutability":"nonpayable"},{"type":"function","name":"supportsInterface","inputs":[{"name":"interfaceId","type":"bytes4","internalType":"bytes4"}],"outputs":[{"name":"","type":"bool","internalType":"bool"}],"stateMutability":"view"},{"type":"function","name":"transferOwnership","inputs":[{"name":"newOwner","type":"address","internalType":"address"}],"outputs":[],"stateMutability":"nonpayable"},{"type":"function","name":"uri","inputs":[{"name":"","type":"uint256","internalType":"uint256"}],"outputs":[{"name":"","type":"string","internalType":"string"}],"stateMutability":"view"},{"type":"event","name":"ApprovalForAll","inputs":[{"name":"account","type":"address","indexed":true,"internalType":"address"},{"name":"operator","type":"address","indexed":true,"internalType":"address"},{"name":"approved","type":"bool","indexed":false,"internalType":"bool"}],"anonymous":false},{"type":"event","name":"OwnershipTransferred","inputs":[{"name":"previousOwner","type":"address","indexed":true,"internalType":"address"},{"name":"newOwner","type":"address","indexed":true,"internalType":"address"}],"anonymous":false},{"type":"event","name":"TransferBatch","inputs":[{"name":"operator","type":"address","indexed":true,"internalType":"address"},{"name":"from","type":"address","indexed":true,"internalType":"address"},{"name":"to","type":"address","indexed":true,"internalType":"address"},{"name":"ids","type":"uint256[]","indexed":false,"internalType":"uint256[]"},{"name":"values","type":"uint256[]","indexed":false,"internalType":"uint256[]"}],"anonymous":false},{"type":"event","name":"TransferSingle","inputs":[{"name":"operator","type":"address","indexed":true,"internalType":"address"},{"name":"from","type":"address","indexed":true,"internalType":"address"},{"name":"to","type":"address","indexed":true,"internalType":"address"},{"name":"id","type":"uint256","indexed":false,"internalType":"uint256"},{"name":"value","type":"uint256","indexed":false,"internalType":"uint256"}],"anonymous":false},{"type":"event","name":"URI","inputs":[{"name":"value","type":"string","indexed":false,"internalType":"string"},{"name":"id","type":"uint256","indexed":true,"internalType":"uint256"}],"anonymous":false},{"type":"error","name":"ERC1155InsufficientBalance","inputs":[{"name":"sender","type":"address","internalType":"address"},{"name":"balance","type":"uint256","internalType":"uint256"},{"name":"needed","type":"uint256","internalType":"uint256"},{"name":"tokenId","type":"uint256","internalType":"uint256"}]},{"type":"error","name":"ERC1155InvalidApprover","inputs":[{"name":"approver","type":"address","internalType":"address"}]},{"type":"error","name":"ERC1155InvalidArrayLength","inputs":[{"name":"idsLength","type":"uint256","internalType":"uint256"},{"name":"valuesLength","type":"uint256","internalType":"uint256"}]},{"type":"error","name":"ERC1155InvalidOperator","inputs":[{"name":"operator","type":"address","internalType":"address"}]},{"type":"error","name":"ERC1155InvalidReceiver","inputs":[{"name":"receiver","type":"address","internalType":"address"}]},{"type":"error","name":"ERC1155InvalidSender","inputs":[{"name":"sender","type":"address","internalType":"address"}]},{"type":"error","name":"ERC1155MissingApprovalForAll","inputs":[{"name":"operator","type":"address","internalType":"address"},{"name":"owner","type":"address","internalType":"address"}]},{"type":"error","name":"OwnableInvalidOwner","inputs":[{"name":"owner","type":"address","internalType":"address"}]},{"type":"error","name":"OwnableUnauthorizedAccount","inputs":[{"name":"account","type":"address","internalType":"address"}]}],"bytecode":{"object":"0x608060405234801561000f575f5ffd5b50604051612cf2380380612cf283398181016040528101906100319190610232565b806040518060400160405280600781526020017f596f757255524900000000000000000000000000000000000000000000000000815250610077816100fe60201b60201c565b505f73ffffffffffffffffffffffffffffffffffffffff168173ffffffffffffffffffffffffffffffffffffffff16036100e8575f6040517f1e4fbdf70000000000000000000000000000000000000000000000000000000081526004016100df919061026c565b60405180910390fd5b6100f78161011160201b60201c565b5050610591565b806002908161010d91906104c2565b5050565b5f60035f9054906101000a900473ffffffffffffffffffffffffffffffffffffffff1690508160035f6101000a81548173ffffffffffffffffffffffffffffffffffffffff021916908373ffffffffffffffffffffffffffffffffffffffff1602179055508173ffffffffffffffffffffffffffffffffffffffff168173ffffffffffffffffffffffffffffffffffffffff167f8be0079c531659141344cd1fd0a4f28419497f9722a3daafe3b4186f6b6457e060405160405180910390a35050565b5f5ffd5b5f73ffffffffffffffffffffffffffffffffffffffff82169050919050565b5f610201826101d8565b9050919050565b610211816101f7565b811461021b575f5ffd5b50565b5f8151905061022c81610208565b92915050565b5f60208284031215610247576102466101d4565b5b5f6102548482850161021e565b91505092915050565b610266816101f7565b82525050565b5f60208201905061027f5f83018461025d565b92915050565b5f81519050919050565b7f4e487b71000000000000000000000000000000000000000000000000000000005f52604160045260245ffd5b7f4e487b71000000000000000000000000000000000000000000000000000000005f52602260045260245ffd5b5f600282049050600182168061030057607f821691505b602082108103610313576103126102bc565b5b50919050565b5f819050815f5260205f209050919050565b5f6020601f8301049050919050565b5f82821b905092915050565b5f600883026103757fffffffffffffffffffffffffffffffffffffffffffffffffffffffffffffffff8261033a565b61037f868361033a565b95508019841693508086168417925050509392505050565b5f819050919050565b5f819050919050565b5f6103c36103be6103b984610397565b6103a0565b610397565b9050919050565b5f819050919050565b6103dc836103a9565b6103f06103e8826103ca565b848454610346565b825550505050565b5f5f905090565b6104076103f8565b6104128184846103d3565b505050565b5b818110156104355761042a5f826103ff565b600181019050610418565b5050565b601f82111561047a5761044b81610319565b6104548461032b565b81016020851015610463578190505b61047761046f8561032b565b830182610417565b50505b505050565b5f82821c905092915050565b5f61049a5f198460080261047f565b1980831691505092915050565b5f6104b2838361048b565b9150826002028217905092915050565b6104cb82610285565b67ffffffffffffffff8111156104e4576104e361028f565b5b6104ee82546102e9565b6104f9828285610439565b5f60209050601f83116001811461052a575f8415610518578287015190505b61052285826104a7565b865550610589565b601f19841661053886610319565b5f5b8281101561055f5784890151825560018201915060208501945060208101905061053a565b8683101561057c5784890151610578601f89168261048b565b8355505b6001600288020188555050505b505050505050565b6127548061059e5f395ff3fe608060405234801561000f575f5ffd5b50600436106100e7575f3560e01c8063715018a61161008a578063a22cb46511610064578063a22cb46514610243578063e985e9c51461025f578063f242432a1461028f578063f2fde38b146102ab576100e7565b8063715018a6146101ff578063731133e9146102095780638da5cb5b14610225576100e7565b80630e89341c116100c65780630e89341c146101675780631f7fdffa146101975780632eb2c2d6146101b35780634e1273f4146101cf576100e7565b8062fdd58e146100eb57806301ffc9a71461011b57806302fe53051461014b575b5f5ffd5b6101056004803603810190610100919061176b565b6102c7565b60405161011291906117b8565b60405180910390f35b61013560048036038101906101309190611826565b61031c565b604051610142919061186b565b60405180910390f35b610165600480360381019061016091906119c0565b6103fd565b005b610181600480360381019061017c9190611a07565b610411565b60405161018e9190611a92565b60405180910390f35b6101b160048036038101906101ac9190611c14565b6104a3565b005b6101cd60048036038101906101c89190611ccc565b6104bd565b005b6101e960048036038101906101e49190611e57565b610564565b6040516101f69190611f84565b60405180910390f35b61020761066e565b005b610223600480360381019061021e9190611fa4565b610681565b005b61022d61069b565b60405161023a9190612033565b60405180910390f35b61025d60048036038101906102589190612076565b6106c3565b005b610279600480360381019061027491906120b4565b6106d9565b604051610286919061186b565b60405180910390f35b6102a960048036038101906102a491906120f2565b610767565b005b6102c560048036038101906102c09190612185565b61080e565b005b5f5f5f8381526020019081526020015f205f8473ffffffffffffffffffffffffffffffffffffffff1673ffffffffffffffffffffffffffffffffffffffff1681526020019081526020015f2054905092915050565b5f7fd9b67a26000000000000000000000000000000000000000000000000000000007bffffffffffffffffffffffffffffffffffffffffffffffffffffffff1916827bffffffffffffffffffffffffffffffffffffffffffffffffffffffff191614806103e657507f0e89341c000000000000000000000000000000000000000000000000000000007bffffffffffffffffffffffffffffffffffffffffffffffffffffffff1916827bffffffffffffffffffffffffffffffffffffffffffffffffffffffff1916145b806103f657506103f582610892565b5b9050919050565b6104056108fb565b61040e81610982565b50565b606060028054610420906121dd565b80601f016020809104026020016040519081016040528092919081815260200182805461044c906121dd565b80156104975780601f1061046e57610100808354040283529160200191610497565b820191905f5260205f20905b81548152906001019060200180831161047a57829003601f168201915b50505050509050919050565b6104ab6108fb565b6104b784848484610995565b50505050565b5f6104c6610a18565b90508073ffffffffffffffffffffffffffffffffffffffff168673ffffffffffffffffffffffffffffffffffffffff161415801561050b575061050986826106d9565b155b1561054f5780866040517fe237d92200000000000000000000000000000000000000000000000000000000815260040161054692919061220d565b60405180910390fd5b61055c8686868686610a1f565b505050505050565b606081518351146105b057815183516040517f5b0599910000000000000000000000000000000000000000000000000000000081526004016105a7929190612234565b60405180910390fd5b5f835167ffffffffffffffff8111156105cc576105cb61189c565b5b6040519080825280602002602001820160405280156105fa5781602001602082028036833780820191505090505b5090505f5f90505b8451811015610663576106396106218287610b1390919063ffffffff16565b6106348387610b2690919063ffffffff16565b6102c7565b82828151811061064c5761064b61225b565b5b602002602001018181525050806001019050610602565b508091505092915050565b6106766108fb565b61067f5f610b39565b565b6106896108fb565b61069584848484610bfc565b50505050565b5f60035f9054906101000a900473ffffffffffffffffffffffffffffffffffffffff16905090565b6106d56106ce610a18565b8383610c91565b5050565b5f60015f8473ffffffffffffffffffffffffffffffffffffffff1673ffffffffffffffffffffffffffffffffffffffff1681526020019081526020015f205f8373ffffffffffffffffffffffffffffffffffffffff1673ffffffffffffffffffffffffffffffffffffffff1681526020019081526020015f205f9054906101000a900460ff16905092915050565b5f610770610a18565b90508073ffffffffffffffffffffffffffffffffffffffff168673ffffffffffffffffffffffffffffffffffffffff16141580156107b557506107b386826106d9565b155b156107f95780866040517fe237d9220000000000000000000000000000000000000000000000000000000081526004016107f092919061220d565b60405180910390fd5b6108068686868686610dfa565b505050505050565b6108166108fb565b5f73ffffffffffffffffffffffffffffffffffffffff168173ffffffffffffffffffffffffffffffffffffffff1603610886575f6040517f1e4fbdf700000000000000000000000000000000000000000000000000000000815260040161087d9190612033565b60405180910390fd5b61088f81610b39565b50565b5f7f01ffc9a7000000000000000000000000000000000000000000000000000000007bffffffffffffffffffffffffffffffffffffffffffffffffffffffff1916827bffffffffffffffffffffffffffffffffffffffffffffffffffffffff1916149050919050565b610903610a18565b73ffffffffffffffffffffffffffffffffffffffff1661092161069b565b73ffffffffffffffffffffffffffffffffffffffff161461098057610944610a18565b6040517f118cdaa70000000000000000000000000000000000000000000000000000000081526004016109779190612033565b60405180910390fd5b565b80600290816109919190612428565b5050565b5f73ffffffffffffffffffffffffffffffffffffffff168473ffffffffffffffffffffffffffffffffffffffff1603610a05575f6040517f57f447ce0000000000000000000000000000000000000000000000000000000081526004016109fc9190612033565b60405180910390fd5b610a125f85858585610f00565b50505050565b5f33905090565b5f73ffffffffffffffffffffffffffffffffffffffff168473ffffffffffffffffffffffffffffffffffffffff1603610a8f575f6040517f57f447ce000000000000000000000000000000000000000000000000000000008152600401610a869190612033565b60405180910390fd5b5f73ffffffffffffffffffffffffffffffffffffffff168573ffffffffffffffffffffffffffffffffffffffff1603610aff575f6040517f01a83514000000000000000000000000000000000000000000000000000000008152600401610af69190612033565b60405180910390fd5b610b0c8585858585610f00565b5050505050565b5f60208202602084010151905092915050565b5f60208202602084010151905092915050565b5f60035f9054906101000a900473ffffffffffffffffffffffffffffffffffffffff1690508160035f6101000a81548173ffffffffffffffffffffffffffffffffffffffff021916908373ffffffffffffffffffffffffffffffffffffffff1602179055508173ffffffffffffffffffffffffffffffffffffffff168173ffffffffffffffffffffffffffffffffffffffff167f8be0079c531659141344cd1fd0a4f28419497f9722a3daafe3b4186f6b6457e060405160405180910390a35050565b5f73ffffffffffffffffffffffffffffffffffffffff168473ffffffffffffffffffffffffffffffffffffffff1603610c6c575f6040517f57f447ce000000000000000000000000000000000000000000000000000000008152600401610c639190612033565b60405180910390fd5b5f5f610c788585610fac565b91509150610c895f87848487610f00565b505050505050565b5f73ffffffffffffffffffffffffffffffffffffffff168273ffffffffffffffffffffffffffffffffffffffff1603610d01575f6040517fced3e100000000000000000000000000000000000000000000000000000000008152600401610cf89190612033565b60405180910390fd5b8060015f8573ffffffffffffffffffffffffffffffffffffffff1673ffffffffffffffffffffffffffffffffffffffff1681526020019081526020015f205f8473ffffffffffffffffffffffffffffffffffffffff1673ffffffffffffffffffffffffffffffffffffffff1681526020019081526020015f205f6101000a81548160ff0219169083151502179055508173ffffffffffffffffffffffffffffffffffffffff168373ffffffffffffffffffffffffffffffffffffffff167f17307eab39ab6107e8899845ad3d59bd9653f200f220920489ca2b5937696c3183604051610ded919061186b565b60405180910390a3505050565b5f73ffffffffffffffffffffffffffffffffffffffff168473ffffffffffffffffffffffffffffffffffffffff1603610e6a575f6040517f57f447ce000000000000000000000000000000000000000000000000000000008152600401610e619190612033565b60405180910390fd5b5f73ffffffffffffffffffffffffffffffffffffffff168573ffffffffffffffffffffffffffffffffffffffff1603610eda575f6040517f01a83514000000000000000000000000000000000000000000000000000000008152600401610ed19190612033565b60405180910390fd5b5f5f610ee68585610fac565b91509150610ef78787848487610f00565b50505050505050565b610f0c85858585610fdc565b5f73ffffffffffffffffffffffffffffffffffffffff168473ffffffffffffffffffffffffffffffffffffffff1614610fa5575f610f48610a18565b90506001845103610f94575f610f675f86610b2690919063ffffffff16565b90505f610f7d5f86610b2690919063ffffffff16565b9050610f8d83898985858961136f565b5050610fa3565b610fa281878787878761151e565b5b505b5050505050565b60608060405191506001825283602083015260408201905060018152826020820152604081016040529250929050565b805182511461102657815181516040517f5b05999100000000000000000000000000000000000000000000000000000000815260040161101d929190612234565b60405180910390fd5b5f61102f610a18565b90505f5f90505b835181101561122e575f6110538286610b2690919063ffffffff16565b90505f6110698386610b2690919063ffffffff16565b90505f73ffffffffffffffffffffffffffffffffffffffff168873ffffffffffffffffffffffffffffffffffffffff161461118c575f5f5f8481526020019081526020015f205f8a73ffffffffffffffffffffffffffffffffffffffff1673ffffffffffffffffffffffffffffffffffffffff1681526020019081526020015f205490508181101561113857888183856040517f03dee4c500000000000000000000000000000000000000000000000000000000815260040161112f94939291906124f7565b60405180910390fd5b8181035f5f8581526020019081526020015f205f8b73ffffffffffffffffffffffffffffffffffffffff1673ffffffffffffffffffffffffffffffffffffffff1681526020019081526020015f2081905550505b5f73ffffffffffffffffffffffffffffffffffffffff168773ffffffffffffffffffffffffffffffffffffffff161461122157805f5f8481526020019081526020015f205f8973ffffffffffffffffffffffffffffffffffffffff1673ffffffffffffffffffffffffffffffffffffffff1681526020019081526020015f205f8282546112199190612567565b925050819055505b5050806001019050611036565b5060018351036112e9575f61124c5f85610b2690919063ffffffff16565b90505f6112625f85610b2690919063ffffffff16565b90508573ffffffffffffffffffffffffffffffffffffffff168773ffffffffffffffffffffffffffffffffffffffff168473ffffffffffffffffffffffffffffffffffffffff167fc3d58168c5ae7397731d063d5bbf3d657854427343f4c083240f7aacaa2d0f6285856040516112da929190612234565b60405180910390a45050611368565b8373ffffffffffffffffffffffffffffffffffffffff168573ffffffffffffffffffffffffffffffffffffffff168273ffffffffffffffffffffffffffffffffffffffff167f4a39dc06d4c0dbc64b70af90fd698a233a518aa5d07e595d983b8c0526c8f7fb868660405161135f92919061259a565b60405180910390a45b5050505050565b5f8473ffffffffffffffffffffffffffffffffffffffff163b1115611516578373ffffffffffffffffffffffffffffffffffffffff1663f23a6e6187878686866040518663ffffffff1660e01b81526004016113cf959493929190612621565b6020604051808303815f875af192505050801561140a57506040513d601f19601f82011682018060405250810190611407919061268d565b60015b61148b573d805f8114611438576040519150601f19603f3d011682016040523d82523d5f602084013e61143d565b606091505b505f81510361148357846040517f57f447ce00000000000000000000000000000000000000000000000000000000815260040161147a9190612033565b60405180910390fd5b805160208201fd5b63f23a6e6160e01b7bffffffffffffffffffffffffffffffffffffffffffffffffffffffff1916817bffffffffffffffffffffffffffffffffffffffffffffffffffffffff19161461151457846040517f57f447ce00000000000000000000000000000000000000000000000000000000815260040161150b9190612033565b60405180910390fd5b505b505050505050565b5f8473ffffffffffffffffffffffffffffffffffffffff163b11156116c5578373ffffffffffffffffffffffffffffffffffffffff1663bc197c8187878686866040518663ffffffff1660e01b815260040161157e9594939291906126b8565b6020604051808303815f875af19250505080156115b957506040513d601f19601f820116820180604052508101906115b6919061268d565b60015b61163a573d805f81146115e7576040519150601f19603f3d011682016040523d82523d5f602084013e6115ec565b606091505b505f81510361163257846040517f57f447ce0000000000000000000000000000000000000000000000000000000081526004016116299190612033565b60405180910390fd5b805160208201fd5b63bc197c8160e01b7bffffffffffffffffffffffffffffffffffffffffffffffffffffffff1916817bffffffffffffffffffffffffffffffffffffffffffffffffffffffff1916146116c357846040517f57f447ce0000000000000000000000000000000000000000000000000000000081526004016116ba9190612033565b60405180910390fd5b505b505050505050565b5f604051905090565b5f5ffd5b5f5ffd5b5f73ffffffffffffffffffffffffffffffffffffffff82169050919050565b5f611707826116de565b9050919050565b611717816116fd565b8114611721575f5ffd5b50565b5f813590506117328161170e565b92915050565b5f819050919050565b61174a81611738565b8114611754575f5ffd5b50565b5f8135905061176581611741565b92915050565b5f5f60408385031215611781576117806116d6565b5b5f61178e85828601611724565b925050602061179f85828601611757565b9150509250929050565b6117b281611738565b82525050565b5f6020820190506117cb5f8301846117a9565b92915050565b5f7fffffffff0000000000000000000000000000000000000000000000000000000082169050919050565b611805816117d1565b811461180f575f5ffd5b50565b5f81359050611820816117fc565b92915050565b5f6020828403121561183b5761183a6116d6565b5b5f61184884828501611812565b91505092915050565b5f8115159050919050565b61186581611851565b82525050565b5f60208201905061187e5f83018461185c565b92915050565b5f5ffd5b5f5ffd5b5f601f19601f8301169050919050565b7f4e487b71000000000000000000000000000000000000000000000000000000005f52604160045260245ffd5b6118d28261188c565b810181811067ffffffffffffffff821117156118f1576118f061189c565b5b80604052505050565b5f6119036116cd565b905061190f82826118c9565b919050565b5f67ffffffffffffffff82111561192e5761192d61189c565b5b6119378261188c565b9050602081019050919050565b828183375f83830152505050565b5f61196461195f84611914565b6118fa565b9050828152602081018484840111156119805761197f611888565b5b61198b848285611944565b509392505050565b5f82601f8301126119a7576119a6611884565b5b81356119b7848260208601611952565b91505092915050565b5f602082840312156119d5576119d46116d6565b5b5f82013567ffffffffffffffff8111156119f2576119f16116da565b5b6119fe84828501611993565b91505092915050565b5f60208284031215611a1c57611a1b6116d6565b5b5f611a2984828501611757565b91505092915050565b5f81519050919050565b5f82825260208201905092915050565b8281835e5f83830152505050565b5f611a6482611a32565b611a6e8185611a3c565b9350611a7e818560208601611a4c565b611a878161188c565b840191505092915050565b5f6020820190508181035f830152611aaa8184611a5a565b905092915050565b5f67ffffffffffffffff821115611acc57611acb61189c565b5b602082029050602081019050919050565b5f5ffd5b5f611af3611aee84611ab2565b6118fa565b90508083825260208201905060208402830185811115611b1657611b15611add565b5b835b81811015611b3f5780611b2b8882611757565b845260208401935050602081019050611b18565b5050509392505050565b5f82601f830112611b5d57611b5c611884565b5b8135611b6d848260208601611ae1565b91505092915050565b5f67ffffffffffffffff821115611b9057611b8f61189c565b5b611b998261188c565b9050602081019050919050565b5f611bb8611bb384611b76565b6118fa565b905082815260208101848484011115611bd457611bd3611888565b5b611bdf848285611944565b509392505050565b5f82601f830112611bfb57611bfa611884565b5b8135611c0b848260208601611ba6565b91505092915050565b5f5f5f5f60808587031215611c2c57611c2b6116d6565b5b5f611c3987828801611724565b945050602085013567ffffffffffffffff811115611c5a57611c596116da565b5b611c6687828801611b49565b935050604085013567ffffffffffffffff811115611c8757611c866116da565b5b611c9387828801611b49565b925050606085013567ffffffffffffffff811115611cb457611cb36116da565b5b611cc087828801611be7565b91505092959194509250565b5f5f5f5f5f60a08688031215611ce557611ce46116d6565b5b5f611cf288828901611724565b9550506020611d0388828901611724565b945050604086013567ffffffffffffffff811115611d2457611d236116da565b5b611d3088828901611b49565b935050606086013567ffffffffffffffff811115611d5157611d506116da565b5b611d5d88828901611b49565b925050608086013567ffffffffffffffff811115611d7e57611d7d6116da565b5b611d8a88828901611be7565b9150509295509295909350565b5f67ffffffffffffffff821115611db157611db061189c565b5b602082029050602081019050919050565b5f611dd4611dcf84611d97565b6118fa565b90508083825260208201905060208402830185811115611df757611df6611add565b5b835b81811015611e205780611e0c8882611724565b845260208401935050602081019050611df9565b5050509392505050565b5f82601f830112611e3e57611e3d611884565b5b8135611e4e848260208601611dc2565b91505092915050565b5f5f60408385031215611e6d57611e6c6116d6565b5b5f83013567ffffffffffffffff811115611e8a57611e896116da565b5b611e9685828601611e2a565b925050602083013567ffffffffffffffff811115611eb757611eb66116da565b5b611ec385828601611b49565b9150509250929050565b5f81519050919050565b5f82825260208201905092915050565b5f819050602082019050919050565b611eff81611738565b82525050565b5f611f108383611ef6565b60208301905092915050565b5f602082019050919050565b5f611f3282611ecd565b611f3c8185611ed7565b9350611f4783611ee7565b805f5b83811015611f77578151611f5e8882611f05565b9750611f6983611f1c565b925050600181019050611f4a565b5085935050505092915050565b5f6020820190508181035f830152611f9c8184611f28565b905092915050565b5f5f5f5f60808587031215611fbc57611fbb6116d6565b5b5f611fc987828801611724565b9450506020611fda87828801611757565b9350506040611feb87828801611757565b925050606085013567ffffffffffffffff81111561200c5761200b6116da565b5b61201887828801611be7565b91505092959194509250565b61202d816116fd565b82525050565b5f6020820190506120465f830184612024565b92915050565b61205581611851565b811461205f575f5ffd5b50565b5f813590506120708161204c565b92915050565b5f5f6040838503121561208c5761208b6116d6565b5b5f61209985828601611724565b92505060206120aa85828601612062565b9150509250929050565b5f5f604083850312156120ca576120c96116d6565b5b5f6120d785828601611724565b92505060206120e885828601611724565b9150509250929050565b5f5f5f5f5f60a0868803121561210b5761210a6116d6565b5b5f61211888828901611724565b955050602061212988828901611724565b945050604061213a88828901611757565b935050606061214b88828901611757565b925050608086013567ffffffffffffffff81111561216c5761216b6116da565b5b61217888828901611be7565b9150509295509295909350565b5f6020828403121561219a576121996116d6565b5b5f6121a784828501611724565b91505092915050565b7f4e487b71000000000000000000000000000000000000000000000000000000005f52602260045260245ffd5b5f60028204905060018216806121f457607f821691505b602082108103612207576122066121b0565b5b50919050565b5f6040820190506122205f830185612024565b61222d6020830184612024565b9392505050565b5f6040820190506122475f8301856117a9565b61225460208301846117a9565b9392505050565b7f4e487b71000000000000000000000000000000000000000000000000000000005f52603260045260245ffd5b5f819050815f5260205f209050919050565b5f6020601f8301049050919050565b5f82821b905092915050565b5f600883026122e47fffffffffffffffffffffffffffffffffffffffffffffffffffffffffffffffff826122a9565b6122ee86836122a9565b95508019841693508086168417925050509392505050565b5f819050919050565b5f61232961232461231f84611738565b612306565b611738565b9050919050565b5f819050919050565b6123428361230f565b61235661234e82612330565b8484546122b5565b825550505050565b5f5f905090565b61236d61235e565b612378818484612339565b505050565b5b8181101561239b576123905f82612365565b60018101905061237e565b5050565b601f8211156123e0576123b181612288565b6123ba8461229a565b810160208510156123c9578190505b6123dd6123d58561229a565b83018261237d565b50505b505050565b5f82821c905092915050565b5f6124005f19846008026123e5565b1980831691505092915050565b5f61241883836123f1565b9150826002028217905092915050565b61243182611a32565b67ffffffffffffffff81111561244a5761244961189c565b5b61245482546121dd565b61245f82828561239f565b5f60209050601f831160018114612490575f841561247e578287015190505b612488858261240d565b8655506124ef565b601f19841661249e86612288565b5f5b828110156124c5578489015182556001820191506020850194506020810190506124a0565b868310156124e257848901516124de601f8916826123f1565b8355505b6001600288020188555050505b505050505050565b5f60808201905061250a5f830187612024565b61251760208301866117a9565b61252460408301856117a9565b61253160608301846117a9565b95945050505050565b7f4e487b71000000000000000000000000000000000000000000000000000000005f52601160045260245ffd5b5f61257182611738565b915061257c83611738565b92508282019050808211156125945761259361253a565b5b92915050565b5f6040820190508181035f8301526125b28185611f28565b905081810360208301526125c68184611f28565b90509392505050565b5f81519050919050565b5f82825260208201905092915050565b5f6125f3826125cf565b6125fd81856125d9565b935061260d818560208601611a4c565b6126168161188c565b840191505092915050565b5f60a0820190506126345f830188612024565b6126416020830187612024565b61264e60408301866117a9565b61265b60608301856117a9565b818103608083015261266d81846125e9565b90509695505050505050565b5f81519050612687816117fc565b92915050565b5f602082840312156126a2576126a16116d6565b5b5f6126af84828501612679565b91505092915050565b5f60a0820190506126cb5f830188612024565b6126d86020830187612024565b81810360408301526126ea8186611f28565b905081810360608301526126fe8185611f28565b9050818103608083015261271281846125e9565b9050969550505050505056fea264697066735822122062566b6f736f3702aed39f1d84243c19b23c5f62704038da9dd2a3e49ec6f72764736f6c634300081e0033","linkReferences":{}},"methodIdentifiers":{"balanceOf(address,uint256)":"00fdd58e","balanceOfBatch(address[],uint256[])":"4e1273f4","isApprovedForAll(address,address)":"e985e9c5","mint(address,uint256,uint256,bytes)":"731133e9","mintBatch(address,uint256[],uint256[],bytes)":"1f7fdffa","owner()":"8da5cb5b","renounceOwnership()":"715018a6","safeBatchTransferFrom(address,address,uint256[],uint256[],bytes)":"2eb2c2d6","safeTransferFrom(address,address,uint256,uint256,bytes)":"f242432a","setApprovalForAll(address,bool)":"a22cb465","setURI(string)":"02fe5305","supportsInterface(bytes4)":"01ffc9a7","transferOwnership(address)":"f2fde38b","uri(uint256)":"0e89341c"},"id":4}